:020000040800F2
:10000000301C0020095B000899460008135B0008BB
:100010009B4600089F460008A34600080000000019
:10002000000000000000000000000000A7460008DB
:10003000A9460008000000001F5B0008794700087F
:10004000235B0008235B0008235B0008235B000898
:10005000235B0008235B0008235B0008235B000888
:10006000235B0008235B0008235B0008235B000878
:10007000235B0008235B0008235B0008235B000868
:10008000235B0008235B0008235B0008235B000858
:10009000235B0008235B0008235B0008AB460008D5
:1000A000235B0008235B0008235B0008235B000838
:1000B000235B0008BD460008C5460008235B000816
:1000C000235B0008235B0008235B0008235B000818
:1000D000235B0008E1460008E9460008F1460008F5
:1000E000235B0008235B0008235B0008235B0008F8
:1000F000235B0008235B0008235B0008235B0008E8
:10010000235B0008235B0008235B0008235B0008D7
:10011000F946000801470008235B0008C7460008AD
:10012000235B0008235B0008235B0008235B0008B7
:10013000235B0008235B0008235B0008235B0008A7
:10014000235B0008235B0008235B0008235B000897
:10015000235B0008235B0008235B000809470008B5
:10016000235B0008235B0008235B0008235B000877
:10017000235B0008235B0008235B0008235B000867
:10018000235B0008235B0008DFF80CD00DF08AFF2A
:1001900000480047A1010008301C002000BFFEE716
:1001A00003F066F800F01EF801E000F041F8FCE70B
:1001B00010B502F0F3FB02F0A2FF10BD70477047CC
:1001C00010B52E4803682E4802682E4801682E4854
:1001D000006802F01BFB10BD10B500F0B9FA10BDAD
:1001E00070477047002000BF1FE000EB4001274A26
:1001F00002EB810189884FF47A7292FBF1F100EBF6
:100200004002224B03EB8202D18000EB40011A46F0
:1002100002EB8101C988012905DA012100EB4002C6
:1002200003EB8202D180411CC8B20728DDD370479E
:1002300070B5002400BF1EE004F0A8FA054604EBE8
:100240004400124901EB80008068281A04EB440145
:100250000E4A02EB8101C98888420AD304EB4400AC
:10026000114601EB8000856004EB440152F8210047
:100270008047601CC4B2072CDED370BDCC010020C7
:10028000B8010020C8010020C401002000000020A7
:100290000146002901DB084670474842FCE7034657
:1002A0008B4201DA08467047934201DD1046FAE7B7
:1002B0001846F8E710B50346CC1A944201DD9818A9
:1002C00010BD5042844201DA981AF9E70846F7E770
:1002D000F9480068F9490988884208D0F64800883A
:1002E000F64908800020F649086001207047002088
:1002F000FCE70146F2480068884206DAF0480068E8
:100300001430EF4A1060002070470020EC4A106063
:100310000120F9E703461BB10868401C086001E0B2
:10032000002008600868904203DD0020086001207A
:1003300070470020FCE770B504460D461646601B6A
:10034000FFF7A6FFB04201DA012070BD0020FCE7F4
:1003500070B504460D46DB48006801F0BFFD206023
:10036000D948006801F0BFFD286070BD7CB5054626
:100370000E461446694601A8FFF7EAFF0199681A7C
:10038000FFF786FFA04207DA0099701AFFF780FF97
:10039000A04201DA01207CBD0020FCE71CB56946C3
:1003A00001A8FFF7D5FFC94901980860C84900981E
:1003B00008601CBD10B504466420C64908600020D2
:1003C00001F0D5FC204602F002FC042001F064FCA0
:1003D00010BDC148B0F8460081B240F2A46081422D
:1003E00005DD40F69800814201DA0120704740F2B5
:1003F0001450814201DA0020F8E7B8480078F5E7A8
:10040000B7480078B7490870B7480068B74908602E
:10041000B7480068B74908600120B74908704C2008
:10042000B64908800020B6490870A8480068B54958
:100430000860A7480068B44908600020B349086014
:10044000704710B50120A5490870CA20B04908704E
:100450005020A34908700020A3490860A4490860FF
:10046000FFF79CFF0F20FFF7A5FFFFF7C9FFCA208A
:1004700001F005FECA2002F037FA10BD10B50020C9
:1004800096490870502096490870002096490860E7
:1004900097490860FFF782FF0F20FFF78BFFFFF7F8
:1004A000AFFF502002F020FA10BD10B58C48037841
:1004B0008D4801688E4802688F48007848B989489D
:1004C00003708A4801608B48026001208A4C2070CA
:1004D00010BD84480078834207D184480068814277
:1004E00003D184480068824207D07E4803707F4869
:1004F0000160804802600120EAE70020E8E770B56B
:1005000005460C4676480078602801D0002070BD72
:100510002846FFF7BDFE782804DC2046FFF7B8FE2A
:10052000782801DD0020F2E70120F0E770B50446ED
:100530002546FA2251422846FFF7B1FE05462846D5
:1005400070BD2DE9FC4707460C46694601A8FFF738
:10055000FFFE3846FFF7EAFF80462046FFF7E6FF3A
:100560008146019800EB0805009800EB09066448F5
:10057000007838B963480560634806600120604927
:10058000087017E05F490968681AC11700EB91719C
:100590005C4A126802EBA1015A4A11605A49096883
:1005A000701AC11700EB9171574A126802EBA10152
:1005B000554A11600C225348016844480068FFF70F
:1005C00079FE424908600C224F48016840480068A3
:1005D000FFF770FE3E490860BDE8FC872DE9F05F3B
:1005E000FFF7F7FE07462FB13C48007810B9FFF738
:1005F00028FF05E027B93948007808B1FFF73EFF2A
:100600003649097809B1192100E00F210846FFF7A2
:10061000D1FE3248007818B9FFF7C0FEBDE8F09F60
:10062000FFF743FF80463048D0F800903048056817
:1006300029464846FFF763FF0446B8F1000F08D08B
:100640003CB100202D49088029464846FFF779FF34
:1006500016E02A4800884FF6FF71884204DA2748DE
:100660000088401C25490880244800884B2807DD65
:10067000002023490870FFF791FE0F2002F0A7FA2F
:1006800008221348016811480068FFF76FFE06460C
:100690008CB14846FFF74AFF8346FFF7F9FD08286B
:1006A00038DA2846FFF742FF8346FFF7F1FD0828B6
:1006B00030DA01202FE02DE0DC0000205400002083
:1006C000E0000020C4010020C8010020EC00002050
:1006D000F0000020E80000208A0B002061000020CC
:1006E0004C01002062000020440100206400002032
:1006F00048010020680000206C0000206E000020EF
:100700007000002074000020780000205C000020B1
:100710004D0100200020824676B1BAF1000F0BD0C7
:100720008B48006847F6FF71884208DA88480068FD
:10073000401C8749086002E0002085490860844821
:1007400000683C2802D1662002F0CEF800BF65E7C1
:1007500070B5804890F8380000B170BD7D48B0F9A0
:100760004400B0F5AF6F1BDD7A48B0F94400B0F536
:10077000C86F15DA7848007818B901F045F876495D
:10078000087000207549087075490860754908604F
:100790004FF6FF7074490880002074490870DCE748
:1007A00000206D4908706B48B0F9440040F2A46124
:1007B00088421ADD6748B0F9440040F69801884243
:1007C00013DA6B48007898B96448007880B9012042
:1007D00067490870614908706149086061490860AB
:1007E0004FF6FF706049088002E000206049087001
:1007F0005A48007800B9B0E75A48006806287DD208
:10080000DFE800F0030D182C538E002059490860D2
:10081000594908604E4908605449087095E0FFF74F
:1008200057FD022000F08EFF4E49096808444D49EB
:1008300008608AE0FFF74CFD40B101F05DFA00204E
:100840004D490860424908604849087000F042FF7D
:100850004449096808444349086076E0FFF738FDD9
:10086000C0B1464890ED000B454880ED000B01F00B
:1008700029FB00204349086043490860642043493C
:100880000860002001F073FA0F2002F0A0F90420A4
:1008900001F002FA4FF47A70FFF72BFD20B13148D6
:1008A0000068401C2F4908604FE0FFF711FD80B140
:1008B00000203449086034490860642033490860E6
:1008C000002001F054FA0F2002F081F9042001F019
:1008D000E3F908222C4801682A480068FFF746FD22
:1008E00005460A222A48016828480068FFF723FDC8
:1008F0000646B1EE040A01F0C4FA00E013E0044633
:100900001DB116B10CB1012100E0002108461422EE
:100910001949FFF7FFFC10B105201249086014E0E7
:10092000FFF75CFE11E0FFF739FD6420174908600E
:10093000002001F01CFA0F2002F049F9042001F018
:10094000ABF905200749086000BF00BF00BF04E7FE
:100950005C0000208A0B00207C000020600000204A
:1009600050010020DC000020540000206100002025
:100970007D000020E00000205800002090010020B1
:1009800010010020EC000020F0000020E800002012
:10099000B8010020FF20F94981F84E006421F74892
:1009A000A0F850100121A0F85210FF20F34981F85F
:1009B00080011421F148A0F882110021A0F88411CF
:1009C000FF20EE4981F820010021EC48A0F8221117
:1009D000A0F82411FF20E94981F832010021E748FD
:1009E000A0F83411A0F83611FF20E44981F838014D
:1009F0000021E248A0F83A11A0F83C11FF20DF499D
:100A000081F886010021DD48A0F88811A0F88A113C
:100A1000FF20DA4981F840050021D848A0F84215A6
:100A2000A0F84415FF20D54981F84C050021D34892
:100A3000A0F84E15A0F85015704770B504460D4645
:100A40002946204604F0C7FF70BDCC4A1070012231
:100A5000CA4B5A707047C94A82F84C05012382F884
:100A60004D3570472DE9F04104460D46002600271C
:100A7000E178A81F814201D0BDE8F081002006E0A6
:100A8000215C3144CEB2B919CFB2411CC8B2A91E03
:100A90008142F5DC601910F8020CB04204D16019F3
:100AA00010F8010CB84200D0E6E72078AA2805D15A
:100AB0006078612803D06078FF2800D0DCE7A07858
:100AC000202811D1A088AE490880E088488020897C
:100AD00088806089C880A0890881E0894881208A4F
:100AE0008881608AC881CAE0A0780F280DD120795A
:100AF00040B2A4490870607940B24870A07940B211
:100B00008870E07940B2C870B9E0A07806280CD1AE
:100B100020799D4948706079C870A0790871E179A1
:100B200099484171217A8171A9E0A07807280AD1FA
:100B3000002005E0211D095C944A1154411CC8B2F3
:100B40000628F7DB9BE0A07803280AD1002005E007
:100B5000211D095C8E4A1154411CC8B20728F7DBDD
:100B60008DE0A07803280AD1002005E0211D095C52
:100B7000884A1154411CC8B20928F7DB7FE0A078ED
:100B800005280AD1002005E0211D095C824A115484
:100B9000411CC8B20928F7DB71E0A07808280AD107
:100BA000002005E0211D095C7C4A1154411CC8B29B
:100BB0000828F7DB63E0A078012860D0A078E0285F
:100BC0001ED12079012806D0022805D0102804D093
:100BD000112804D102E003E002E001E000E000BFE0
:100BE00000BF2079654981F80C06084680F80D663B
:100BF00080F80E7600F20C61AF20FFF726FF3EE092
:100C0000A078B0B95D4890F80F062179884236D1B6
:100C10005A4890F810066179884230D1574890F8C8
:100C20001106A17988422AD10020544981F8000692
:100C300025E0A078E12811D12179607901EB00202D
:100C40001FFA80F84D48A0F814860021C0F8181645
:100C500000F21461FF20FFF7FEFE10E0A078E2280A
:100C60000DD12079454981F80C06084680F80D66BB
:100C700080F80E7600F20C61FF20FFF7E6FE00BF61
:100C8000FAE610B504464648007838B9AA2C05D1D2
:100C9000012043490870434804708EE040480078C2
:100CA000012809D1612C01D0FF2C05D102203C493B
:100CB00008703C48447080E039480078022805D12B
:100CC0000320374908703748847076E0344800784C
:100CD00003280CD1FA2C0ADA042031490870314873
:100CE000C4703148047000203049087065E02C4819
:100CF0000078042819D12C480078002815DD2A48EE
:100D00000078401E2849087028480078274909784B
:100D1000491C264A1170001D22490C5422480078B3
:100D200058BB05201E49087047E01D48007805287B
:100D30000DD106201A4908701C4800781B49097813
:100D4000491C1A4A1170001D16490C5435E014480C
:100D5000007806282ED10020114908701348007829
:100D6000001D10490C5411480078401D10490870AE
:100D7000084601780B48FFF775FE1EE0BC03002013
:100D8000E60A002040030020480B00208F000020CE
:100D900088000020F60A0020FF0A002095000020AD
:100DA00082000020D809002080000020810000205F
:100DB0007E0000200020E249087010BD7CB503468B
:100DC000342B4FD007DC7BB10D2B23D0302B2ED012
:100DD000332B6FD138E0402B52D0412B5DD0E02B2C
:100DE0006AD0E22BF5D17BE0D64890F80C460D781E
:100DF000681C08705455D34890F80D460D78681C4F
:100E000008705455CF4890F80E460D78681C08704D
:100E1000545594E0002007E0CB4C255C0E78741C00
:100E20000C709555441CE0B20428F5DB87E00020E7
:100E300007E0C64C255C0E78741C0C709555441C5C
:100E4000E0B21728F5DB7AE0002008E0BF4C193C3F
:100E5000255C0E78741C0C709555441CE0B2062875
:100E6000F4DB6CE0002008E0B84CE41F255C0E7851
:100E7000741C0C709555441CE0B20728F4DB5EE04E
:100E8000002007E0B24C255C0E78741C0C70955560
:100E9000441CE0B21428F5DB51E0002007E0AD4C23
:100EA000255C0E78741C0C709555441CE0B20E281D
:100EB000F5DB44E042E0FFE7A24890F801460D78F8
:100EC000681C08705455002007E0A34C255C0E7880
:100ED000741C0C709555441CE0B20A28F5DB2EE01A
:100EE0009848B0F8140600B201909DF804400D78BF
:100EF000681C087054559DF805400D78681C0870F2
:100F000054559048D0F8180600909DF800400D7890
:100F1000681C087054559DF801400D78681C0870D5
:100F200054559DF802400D78681C087054559DF882
:100F300003400D78681C0870545500E000BF00BFE6
:100F40007CBDF8B504460F4600200090AA219DF80C
:100F50000020501CC0B200908048815439789DF820
:100F60000020501CC0B200907C4881549DF80010B5
:100F7000481CC0B200907948445400219DF80020DC
:100F8000501CC0B200907548815402466946204604
:100F9000FFF714FF9DF80000001F7049C87000257E
:100FA0000026002007E06D49095C2944CDB2711983
:100FB000CEB2411CC8B29DF800108842F3DB9DF808
:100FC0000010481CC0B20090644845549DF80010C1
:100FD000481CC0B20090614846545A4890F8000638
:100FE00040B1E02C06D1574880F80F4680F81056E3
:100FF00080F811669DF800105848FFF71EFDF8BDF7
:1010000010B5044604EB44004E4901EB4000408813
:1010100028B304EB440001EB4000808804EB44015A
:10102000484A02EB4101498888420CDA04EB44004B
:10103000114601EB40008088401C04EB440102EBA8
:10104000410188800BE0012004EB44013D4A02EBA2
:101050004101888004EB440102EB4101487004EB3C
:101060004400384901EB4000407868B1002004EBAF
:101070004401344A02EB4101487004EB440002EBA6
:1010800040012046FFF75DFF10BD2E4A82F8400563
:10109000012382F8413501222A4B83F8002670474C
:1010A00010B52DED028BB0EE408A00F01BF8302019
:1010B000FFF7A6FF3320FFF7A3FF3420FFF7A0FFC1
:1010C0004020FFF79DFF4120FFF79AFFE020FFF748
:1010D00097FFE220FFF794FF0D20FFF791FFBDEC93
:1010E000028B10BD174890F80006012821D11C483A
:1010F0000078322805DA1A480078401C1849087030
:101100001CE000201649087016480078401C15495C
:10111000087008460078052804DA0121094880F89B
:1011200041150BE000200F490870064981F80006C0
:1011300004E000200A4908700A490870704700005E
:1011400082000020BC03002084000020310B00201E
:10115000C40B0020D80A0020BE090020880300200C
:10116000830000207F00002000B52DED028B85B0AC
:10117000B0EE408AFE4890F8390000287BD1FC4848
:10118000B0F94200B0F5966F06DA012000F0DAFA05
:101190000120F849087010E0F548B0F9420040F22B
:1011A000A461884206DA022000F0CCFA0220F1495C
:1011B000087002E0022000F0C5FAED48B0F93A00EC
:1011C000A0F2DC5000EE900AF8EEE00AB0EE600A01
:1011D0009FEDE91ADFEDE90A02F0B0FC8DED010A9E
:1011E000E348B0F93C00A0F2DC5000EE900AF8EEC3
:1011F000E00AB0EE600A9FEDE01ADFEDE00A02F0CF
:101200009DFC8DED020ADA48B0F93E00A0F2DC50F8
:1012100000EE900AF8EEE00AB0EE600A9FEDD81AF0
:10122000DFEDD60A02F08AFC8DED030AD048B0F952
:101230004000A0F2DC5000EE900AF8EEE00AB0EEBA
:10124000600A9FEDCF1ADFEDCD0A02F077FC8DED3D
:10125000040ACC48007858B19FEDC80A8DED010A08
:101260009FEDC60A8DED020A9FEDC40A8DED040ABA
:101270009DED010A00E053E0DFEDC30A20EE200AF5
:10128000DFEDC20A20EE200ABDEEC00A10EE100A01
:1012900000B2BF4908809DED020AB1EE400ADFEDC1
:1012A000BA0A20EE200ADFEDB90A20EE200ABDEED0
:1012B000C00A10EE100A00B24880AD48C08FA0F5F9
:1012C0007A7000B288809DED040AB1EE400ADFED2D
:1012D000B10A20EE200ADFEDB00A20EE200ABDEEB2
:1012E000C00A10EE100A00B2C880AC480088404224
:1012F00000B2C880AA48008800B20881A9480088C6
:1013000000B24881A848008800B288810121A7481E
:1013100080F887110020A6490870A64908701EE0D1
:10132000A548C07878B1A248007828B9032000F019
:1013300009FA9F49087006E09E48007818B900F045
:1013400029FA9C49087000209149088048804FF490
:10135000AF7088800020C88088814881088105B0EE
:10136000BDEC028B00BD10B504469448008800EE29
:10137000100AB8EE400ADFED920A20EE200ABDEE18
:10138000C00A10EE100A00B28E4908808B484088CF
:1013900000EE100AB8EE400ADFED890A20EE200ABE
:1013A000BDEEC00A10EE100A00B248808348808863
:1013B00000EE100AB8EE400ADFED810A20EE200AA6
:1013C000BDEEC00A10EE100A00B288807B48C088CB
:1013D00000EE100AB8EE400ADFED790A20EE200A8E
:1013E000BDEEC00A10EE100A00B2C8807348008932
:1013F00000EE100AB8EE400ADFED710A20EE200A76
:10140000BDEEC00A10EE100A00B208816B48408998
:1014100000EE100AB8EE400ADFED690A20EE200A5D
:10142000BDEEC00A10EE100A00B248816348808900
:1014300000EE100AB8EE400ADFED610A20EE200A45
:10144000BDEEC00A10EE100A00B288815B48C08968
:1014500000EE100AB8EE400ADFED590A20EE200A2D
:10146000BDEEC00A10EE100A00B2C88156480078DE
:1014700018B901205449087027E0E4B1002017E0B2
:10148000504931F91010002901DC00210BE04D49D1
:1014900031F91010B1F57A7F02DD4FF47A7102E074
:1014A000484931F91010474A22F81010411CC8B2BF
:1014B0000828E5DB09E0002005E00021414A22F888
:1014C0001010411CC8B20828F7DB3E4803F071FC3D
:1014D00010BD10B503F02CFADFED3C0A20EE200A17
:1014E000BCEEC00A10EE100A3949088010BD10B5D4
:1014F00038480088401C37490880084600880A217F
:1015000090FBF1F201FB1200324908800846008886
:1015100010BB9FED310A02F07AF89FED2F0AFFF71A
:1015200023FE9FED2D0A00F09BFB9FED2B0A02F09E
:101530003FFD28484088401C26494880084640888E
:101540000A2190FBF1F201FB120022494880084673
:10155000408808B9FFF7BDFF04F0BCFA012002F093
:10156000C7FE9FED1E0A00F043F89FED1C0A37E00E
:101570008A0B0020A800002000002042000000008C
:101580000000A042BA0000208F360E3B00C05A4532
:10159000D80A0020C6F91B3B00004843D0000020B9
:1015A000C4000020C8000020CC000020BC030020A4
:1015B000A6000020A7000020480B0020E60A00201B
:1015C000CDCCCC3D080B0020AE0000200000C8426E
:1015D00084000020B00000200AD7233C6F12833A19
:1015E000FFF75EFD0120FFF7BEFE03F042FA10BDDB
:1015F00010B52DED028BB0EE408A00F020F800BF50
:101600002D4840782D490978884214D02A484078DE
:101610002A49087000202A4988744FF487712848A5
:10162000A0F813102448C1692548C0F815100121FD
:10163000244880F8391100BFBDEC028B10BD224850
:101640000078FF2804D020480078401C1E4908700C
:10165000194800781D490978884216D01648007844
:101660001A4908701448007A50B11348C07838B14C
:1016700011484089124908800F488089488004E059
:101680004FF400400E49088048800B4840781049CC
:10169000097888420ED0084840780D4908704FF408
:1016A0000040074988800121064880F83311002056
:1016B0000549087070470000F80B0020B7000020B3
:1016C000180B0020BC030020B6000020B40000204E
:1016D000B500002010B50120CB498870CB4890F8A8
:1016E000000688B91020C94981F801060021C748C1
:1016F00080F80216012180F8031600F20161FF2034
:10170000FFF7C3FC012010BD0020FCE710B500204E
:10171000BD498870BD4890F8000688B91020BB49C3
:1017200081F801060021B94880F80216022180F8EC
:10173000031600F20161FF20FFF7A7FC012010BD96
:101740000020FCE710B50446B1480078A0421FD045
:10175000AE4890F80006C8B9AB480470AC480470B5
:101760000120AA4981F801060121A84880F8021643
:1017700080F80316A4480178A44880F8041600F203
:101780000161FF20FFF781FC012010BD0020FCE774
:101790000120FAE710B59D4890F8000688B910209E
:1017A0009A4981F801060021984880F8021607211D
:1017B00080F8031600F20161FF20FFF766FC0120AC
:1017C00010BD0020FCE701B5904890F80006C8B9AC
:1017D00010208E4981F8010600218C4880F80216FD
:1017E000052180F803169DF8001080F804169DF876
:1017F000011080F8051600F20161FF20FFF745FC9B
:10180000012008BD0020FCE710B5804890F80006D4
:1018100088B910207D4981F8010600217B4880F8B5
:101820000216062180F8031600F20161FF20FFF77F
:101830002CFC012010BD0020FCE707B5734890F890
:10184000000648BB1020714981F8010602216F484B
:1018500080F80216032180F803169DF8001080F826
:1018600004169DF8011080F805169DF8041080F804
:1018700006169DF8051080F807169DF8081080F8E8
:1018800008169DF8091080F8091600F20161FF2082
:10189000FFF7FBFB01200EBD0020FCE713B55B4802
:1018A00090F8000608BB1020584981F80106022173
:1018B000564880F80216072180F803169DF800109C
:1018C00080F804169DF8011080F805169DF80410A4
:1018D00080F806169DF8051080F8071600F20161E1
:1018E000FF20FFF7D2FB01201CBD0020FCE713B551
:1018F000464890F8000608BB1020444981F80106CC
:101900000221424880F80216082180F803169DF84B
:10191000001080F804169DF8011080F805169DF857
:10192000041080F806169DF8051080F8071600F2DE
:101930000161FF20FFF7A9FB01201CBD0020FCE78F
:1019400010B5324890F8000688B901202F4981F877
:10195000010600212D4880F80216032180F80316A5
:1019600000F20161FF20FFF790FB012010BD002075
:10197000FCE710B5254890F8000688B901202349F6
:1019800081F801060021214880F80216042180F820
:10199000031600F20161FF20FFF777FB012010BD65
:1019A0000020FCE710B5194890F8000688B901201E
:1019B000164981F801060021144880F80216052115
:1019C00080F8031600F20161FF20FFF75EFB0120A3
:1019D00010BD0020FCE710B50C4890F8000688B94F
:1019E00001200A4981F801060021084880F8021602
:1019F000022180F8031600F20161FF20FFF745FB8A
:101A0000012010BD0020FCE7480B0020BC03002093
:101A1000B800002010B504469848B0F94000B0F571
:101A2000AF6F0BDD9548B0F94000B0F5C86F05DA2F
:101A30000120934948709349087002E000209049C2
:101A400048708E48B0F93E00B0F5966F06DA8C48C3
:101A5000407818B901208A49087002E000208849BE
:101A600008708848007801284AD18748C078002843
:101A700053D18248B0F93A0040F26C71884210DDCF
:101A80007E48B0F93C0040F24C41884209DA7B487C
:101A9000B0F93E00884204DA7848B0F94000884244
:101AA00017DB7648B0F9400040F26C71884230DDB7
:101AB0007248B0F93C0040F24C41884229DA6F4844
:101AC000B0F93E00884224DA6C48B0F93A00884206
:101AD0001FDA6E480088B0F57A7F12DAD4ED000A7A
:101AE0006A48008800EE100AB8EE400A9FED681AB6
:101AF00000EE810ABCEEC00A10EE100A63490880AD
:101B000062E0FFF7E7FD0020604908805D4908704A
:101B10005AE000205D49088056E05B48C078012803
:101B200052D15648B0F93A0040F26C71884210DD4B
:101B30005248B0F93C0040F24C41884209DA4F4823
:101B4000B0F93E00884204DA4C48B0F940008842BF
:101B500017DB4A48B0F9400040F26C71884230DD32
:101B60004648B0F93C0040F24C41884229DA4348EB
:101B7000B0F93E00884224DA4048B0F93A00884281
:101B80001FDA42480088B0F5967F12DAD4ED000AD9
:101B90003E48008800EE100AB8EE400A9FED3C1A5D
:101BA00000EE810ABCEEC00A10EE100A3749088028
:101BB0000AE0FFF7ABFD0020344908803149087086
:101BC00002E000203149088010BD10B52E48C078D1
:101BD000002844D12948B0F9400040F24C418842E5
:101BE00017DA2648B0F93C00884212DA2348B0F9E7
:101BF0003E0088420DDA2148B0F93A00884208DAFE
:101C00002448007838BBFFF79BFE0120214908706B
:101C100025E01A48B0F9400040F26C7188421BDDA3
:101C20001648B0F93C0040F24C41884214DA13489F
:101C3000B0F93E0088420FDA1048B0F93A0040F29D
:101C40006C71884208DD1348007820B9FFF791FED7
:101C500001201049087002E000200E49087010BDF4
:101C600010B52DED020B054890F8390020B96846F3
:101C7000FFF7D0FEFFF7A9FF1CBD00008A0B002074
:101C8000BA000020BE000020480B0020BC0000204D
:101C900000007A44BF0000200021CF4A1160CF4AE3
:101CA0001160CF4A1160CF4A1160CF4A11600128FC
:101CB00006D0022805D003280BD0042819D110E043
:101CC00000BF0121C74A1160C34A1160C34A1160B5
:101CD00010E00121C34A1160BF4A1160C04A11607F
:101CE00008E00121BF4A1160BB4A1160BE4A116081
:101CF00000E000BF00BF70470020BC490860BC493D
:101D00000860704710B50446B8480068A04205DA7C
:101D1000B64800681430B54908600AE00020B349AD
:101D20000860102000F0E0FDB2480068401CB14996
:101D3000086010BD05E0DFEDB00A70EE600AB0EE9D
:101D4000600ADFEDAE0AB4EEE00AF1EE10FAF2DC62
:101D500005E0DFEDA90A70EE200AB0EE600ADFEDC3
:101D6000A80AB4EEE00AF1EE10FAF2D9704700B515
:101D700000EE100AB8EEC00AFFF7DCFFBDEEC00AA5
:101D8000A04981ED000A00219F4A117000BD10B5E5
:101D90002DED028B9D4890ED000B51EC100B0CF0DB
:101DA0009FF808EE100AB0EE480AFFF7C3FFBDEE39
:101DB000C00A944880ED000A002093490870BDECE9
:101DC000028B10BD10B52DED048B044620460CF09F
:101DD00013F841EC190B8D4890ED000B53EC102BD0
:101DE00051EC190B0BF080FE41EC180B0CF015F8C0
:101DF00084490860012084490870BDEC048B10BD43
:101E000010B50446002C00DA64426042FFF7DAFFA6
:101E100010BD10B50446002C00DA64422046FFF7DE
:101E2000D1FF10BD10B52DED028B77480078012849
:101E300012D1764890ED000B51EC100B0CF050F8DD
:101E400000EE100A6F48D0ED000AF8EEE00A30EE1E
:101E5000C00ABDEC028B10BD6C4890ED000B51EC3C
:101E6000100B0CF03DF800EE100A6648D0ED000AA9
:101E7000F8EEE00A30EEC00AB0EE408AFFF75AFFF3
:101E8000E7E710B52DED028BB0EE408AFFF7CAFFF1
:101E9000F0EE408AF4EEC88AF1EE10FA0AD2B1EE02
:101EA000480AF4EEC08AF1EE10FA03DD0120BDEC21
:101EB000028B10BD0020FAE7002055490860554903
:101EC000086070470020544908605448006854492D
:101ED00008605448006854490860704701465048FB
:101EE0000068081A704701464F480068081A704792
:101EF0000D286DD2DFE800F0070D151E272F3740A3
:101F0000484F565E66000021484A1160484A1160F9
:101F10005FE04FF4D771454A11600A21444A1160CD
:101F200057E04FF4D771414A11604FF4B971404AFC
:101F300011604EE04FF4AA713C4A11604FF4B97140
:101F40003B4A116045E04FF4AA71384A11605021B4
:101F5000374A11603DE04FF48771344A11605021D7
:101F6000334A116035E04FF48771304A11604FF405
:101F7000B9712F4A11602CE0C8212C4A11604FF42E
:101F8000B9712B4A116024E0C821284A1160502100
:101F9000274A11601DE08221244A11605021244A01
:101FA000116016E08221214A11604FF4B971204A74
:101FB00011600EE000211D4A11604FF4B9711C4AF6
:101FC000116006E00021194A1160194A116000E011
:101FD00000BF00BF70470000200100202401002046
:101FE0002C0100202801002030010020E00000200A
:101FF000E4000020DC0000200000B4430000344373
:10200000000034C3F400002040010020180100202B
:10201000D4000020D80000203C010020C401002092
:1020200034010020C801002038010020EC0000200D
:10203000F00000200146CA2903D0CB2901D0CC29C9
:1020400001D1012070470020FCE70146502901D052
:10205000602901D1012070470020FCE75020FA4997
:1020600008700020F9490860F94908605020F949D2
:1020700008700020F8490880F8490880704710B5BA
:1020800004462046FFF7D6FF00B910BD204600F0F9
:102090006FFC00BFF9E72DE9F04104460F46082F19
:1020A00003D04FF0FF30BDE8F0812078BB2808D185
:1020B0006078102805D1A078F12802D16079EE2847
:1020C00002D04FF0FF30EEE7E6782579102E13D1DD
:1020D000052D0ED2DFE805F0030507090B000020EF
:1020E000E1E70120DFE70220DDE70320DBE7042052
:1020F000D9E74FF0FF30D6E7202E18D12846FFF75A
:1021000099FF10B94FF0FF30CDE7D548057050204A
:10211000CD4908700020CD490860CD4908602846A7
:10212000FFF7ADFF284600F0DFFB1420BBE74FF0C0
:10213000FF30B8E72DE9F0410446CA480078082886
:1021400076D2DFE800F00415293D49556976BB2CAD
:102150000DD10020C4490870084601780078401C61
:10216000C14A1070C14844540120BE490870A1E022
:10217000102C0BD1BC4801780078401CBA4A107072
:10218000BA4844540220B749087004E00020B54919
:102190000870B54908708DE0F12C0BD1B248017878
:1021A0000078401CB04A1070B04844540320AD4938
:1021B000087004E00020AB490870AB49087079E072
:1021C000A94801780078401CA74A1070A7484454D9
:1021D0000420A44908706DE0A34801780078401CF1
:1021E000A14A1070A148445405209E49087061E03E
:1021F000EE2C0BD19C4801780078401C9A4A107054
:102200009A48445406209749087004E000209549F4
:102210000870954908704DE0934801780078401C9B
:10222000914A10709148445407208E49087041E04B
:102230003AE00026B0468C4801780078401C8A4A73
:1022400010708A484454002709E08848C05D304433
:10225000C6B208EB060000F0FF08781CC7B2062FD4
:10226000F3DB82488079B04215D18048C07940457F
:1022700011D108217D48FFF70EFF0546002D04DB34
:10228000052D02DA7A48056008E0002D06DADD2027
:1022900000F02AFB02E0DF2000F026FB002071495D
:1022A00008707149087005E000206E4908706E4999
:1022B000087000BF00BFBDE8F08170B502460D4652
:1022C0000E2D02D04FF0FF3070BD1078FA2802D1E9
:1022D000507BAB2802D04FF0FF30F5E7507810B1BB
:1022E0005078012809D1507910B15079012804D1D2
:1022F000507A28B1507A012802D04FF0FF30E3E73E
:1023000090780004D67840EA0620167940EA060361
:1023100090790004D67940EA0620167A40EA06044D
:10232000907A0004D67A40EA0620167B40EA06013D
:102330005078012800D15B425079012800D16442D5
:10234000507A012800D1494200EE101AB8EEC00AB6
:10235000DFED480A20EE200ABDEEC00A464880EDB7
:10236000000A5842454E30606042454E30600020C1
:10237000AAE710B50446434800780E2862D2DFE889
:1023800000F00718191A1B1C1D1E1F2021222331C3
:10239000FA2C0DD100203C490870084601780078DD
:1023A000401C394A1070394844540120354908709E
:1023B00076E000BF00BF00BF00BF00BF00BF00BF8E
:1023C00000BF00BF00BF00BF2F4801780078401C4D
:1023D0002D4A10702D4844542A480078401C294941
:1023E00008705DE0284801780078401C264A10708B
:1023F00026484454104600780E2817D12348007808
:10240000FA2813D12148407BAB280FD10E211F4859
:10241000FFF753FF18B901201D4908700CE0002098
:102420001B490870DE2000F05FFA05E00020184923
:102430000870DE2000F058FA002013490870114996
:1024400008702DE026E000004C010020440100202F
:10245000480100205F01002060010020620100208F
:102460004D010020640100206D0100206501002065
:1024700050010020CDCCCC3DCC010020C401002077
:10248000C80100206E0100206F010020530B0020C6
:10249000540100200020C5490870C549087000BFDC
:1024A00000BF10BD38B50446C2A0006800900221EC
:1024B000684602F071FF38BDBF49096829B90A288A
:1024C00003D10121BC4A116034E0BB4909680129EC
:1024D00005D1BA4908700221B74A11602AE0B6490D
:1024E0000968022905D1B64908700321B24A116072
:1024F00020E0B1490968032905D1B24908700421D7
:10250000AD4A116016E0AC490968042905D1AE490D
:1025100008700521A84A11600CE0A749096805293F
:1025200005D1AA4908700021A34A116002E00021E8
:10253000A14A1160A1490978A54A1180114609886C
:10254000012946D19F490978A24A1180114609788C
:10255000090209B211801146B1F90010984A1278A7
:1025600011439C4A1180994909789B4A1180114670
:102570000978090209B211801146B1F90010924A96
:1025800012781143944A11809249B1F9001000EE7B
:10259000101AB8EEC00AF6EE080A20EE200ABDEEC8
:1025A000C00A10EE101A09B28A4A11808A49B1F99C
:1025B000001000EE101AB8EEC00AF6EE080A20EE7F
:1025C000200ABDEEC00A10EE101A09B2824A11802C
:1025D00004E000217F4A11807F4A1180704738B59E
:1025E000044674A0006800900221684602F0F5FFDE
:1025F00038BD2DE9F04704468946B9F10A0F02D0EB
:102600000020BDE8F0872078BB2802D1607AFF283F
:1026100001D00020F5E76678A5783046FFF70AFD7F
:1026200018B12846FFF711FD08B90020E9E7E07866
:1026300010B1E078012804D1A07920B1A079012857
:1026400001D00020DDE765480078FFF7F3FC28B1F2
:1026500062480078864201D00020D2E76079217973
:1026600040EA012007B2207AE17940EA01200FFA1E
:1026700080F8E078012801D1784207B2A0790128DA
:1026800003D1C8F100000FFA80F85548057055488D
:10269000067055480570554807805548A0F80080D9
:1026A000602D05D1534807605348C0F8008004E00E
:1026B0000020504908605049086050480088401C7C
:1026C0004E49088001209CE710B50446BB2C11D16F
:1026D0004B48007870B100204A49087008460178DC
:1026E0000078401C474A1070474844540120444930
:1026F000087010BD424800780A284ED2DFE800F08A
:1027000005161718191A1B1C1D2BBB2C0DD10020E8
:102710003C490870084601780078401C394A10701E
:10272000394844540120364908703CE000BF00BFDE
:1027300000BF00BF00BF00BF00BF32480178007873
:10274000401C304A1070304844542D480078401CDA
:102750002B49087027E02B4801780078401C294A53
:10276000107029484454104600780A280CD1264895
:102770000078BB2808D12448407AFF2804D10A21D8
:102780002148FFF736FF02E0DE2000F0ADF8002020
:102790001C4908701A49087005E0002018490870A3
:1027A0001849087000BF00BF00BFA2E76E010020FB
:1027B0006F010020010A0000700100207401002058
:1027C00075010020760100207701002078010020AB
:1027D00056010020580100205A0100204D01002020
:1027E0004C0100205E0100205F01002060010020FC
:1027F0006201002044010020480100205C0100200B
:10280000790100207A010020610B00207FB50024AF
:10281000BB222146641C6048425410222146641C9D
:102820004254F1222146641C425408222146641C71
:1028300042549DF800202146641C42549DF801201A
:102840002146641C42549DF804202146641C4254D5
:102850009DF805202046611CCCB24F490A549DF8D2
:1028600008202146601CC4B24B4842549DF8092000
:102870002046611CCCB248490A549DF80C202046E1
:10288000611CCCB244490A549DF80D202046611CBD
:10289000CCB241490A54EE222046611CCCB23E49DA
:1028A0000A5400250026002007E03B49095C294422
:1028B000CDB27119CEB2411CC8B23749C978491D91
:1028C0008142F2DC2046611CCCB233490D542046D3
:1028D000611CCCB230490E540846C078C01DC1B24C
:1028E0002D4802F065FC7FBDF1B50024BB222146D6
:1028F000641C2948425410222146641C4254F1228F
:102900002146641C425402222146641C42549DF814
:1029100000202146641C42549DF801202146641C7D
:102920004254EE222146641C425400250026002019
:1029300007E01949095C2944CDB27119CEB2411C96
:10294000C8B21549C978491D8142F2DC2046611C94
:10295000CCB211490D542046611CCCB20E490E5424
:102960000846C078C01DC1B20B4802F021FCF8BD7A
:1029700070B505460024BB222146641C064842541B
:102980002146641C4554FF222146641C4254032105
:1029900002F023FE70BD00006B0B002010B52DED82
:1029A000048B5E49B1F900000BF026FA41EC180BDC
:1029B0009FED5B0B53EC102B0BF0AFF95A4A03C29F
:1029C0005649B1F902000BF017FA41EC180B9FEDD4
:1029D000540B53EC102B0BF0A0F9544A03C24F498F
:1029E000B1F904000BF008FA514A03C29FED510BF4
:1029F00053EC102B514890ED000B51EC100B0BF0E9
:102A000057FA18D29FED4E0B53EC102B484890ED1F
:102A1000000B51EC100B0BF033FA0CD29FED4A0B6C
:102A200053EC102B4A4890ED000B51EC100B0BF0BF
:102A30005BF8474A03C29FED420B53EC102B3F4813
:102A400090ED000B51EC100B0BF01AFA18D29FED21
:102A5000390B53EC102B364890ED000B51EC100B5A
:102A60000BF026FA0CD29FED380B53EC102B3848A4
:102A700090ED000B51EC100B0BF0D7F8344A03C269
:102A80009FED270B53EC102B294890ED000B51ECD8
:102A9000100B0BF042F941EC180B9FED2E0B53EC91
:102AA000102B2B4890ED000B51EC100B0BF0C3F8E2
:102AB00041EC190B53EC182B0BF016F8274A03C204
:102AC0001B4890ED000B1D4880ED000B244890ED55
:102AD000000B53EC102B214890ED000B51EC100B28
:102AE0000BF0A3F81F4A03C21F48B0F918001F4992
:102AF00008601D48B0F91A001D4908601D4800888B
:102B00001D4908801B4840881C4908801C484068B3
:102B10001C490860BDEC048B10BD0000880000203B
:102B200000000000000059408001002088010020C2
:102B300098010020000000000094C140A001002086
:102B4000000000000094C1C0000000000000F03F41
:102B5000A8010020000000000080764090010020C5
:102B60001001002018010020F80B0020BC010020FB
:102B7000C00100208F000020B0010020B201002021
:102B8000FF0A0020B80100200146002901DB0846A9
:102B900070474842FCE7884201DD084603E04A42AC
:102BA000904200DA484270470146052901DA0520C3
:102BB0007047322901DD3220FAE70846F8E710B500
:102BC00004462046FFF7F0FFFE49086010BD10B52F
:102BD00004462046FFF7E8FFFB49086010BD10B52A
:102BE00004462046FFF7E0FFF849086010BDF548AD
:102BF00000687047F44800687047F4480068704700
:102C000030B503460C46181B00EB4005142128463E
:102C1000FFF7C1FF30BD2DE9F04F2DED108B87B0D0
:102C2000B0EE408AF0EE608AB0EE419AF0EE619A22
:102C300005460E4617469946DDE921B8E81B069081
:102C4000A6EB0900059005980BF0D6F841EC1E0B99
:102C500005980BF0D1F841EC1F0B53EC1E2B0AF03A
:102C6000EAFF41EC1C0B06980BF0C6F841EC1E0B7A
:102C700006980BF0C1F841EC1F0B53EC1E2B0AF029
:102C8000DAFF41EC1D0B53EC1C2B0AF02DFF41EC3D
:102C90001B0B0BF025F90AEE100AB0EE4A0A00F001
:102CA00037FEBDEEC00A10EE104A002C0BDC0020EF
:102CB000CBF80000C8F80000C549086007B0BDECBB
:102CC000108BBDE8F08F20460BF096F841EC1B0B03
:102CD00053EC182B0AF0AFFF41EC1A0B0BF09DF8E8
:102CE0008246BB490968601A0BF086F841EC1B0B61
:102CF00053EC192B0AF09FFF41EC1A0B0BF08DF8E7
:102D00000490B348046004985044039020990398B9
:102D1000FFF741FF039020460BF06EF841EC1B0BD0
:102D200006980BF069F841EC1D0B03980BF064F862
:102D300041EC1E0B53EC1D2B0AF07DFF41EC1C0BEC
:102D400053EC1B2B0AF0E9FF41EC1A0B0BF065F872
:102D5000029020460BF050F841EC1B0B05980BF04D
:102D60004BF841EC1D0B03980BF046F841EC1E0BA1
:102D700053EC1D2B0AF05FFF41EC1C0B53EC1B2B9B
:102D80000AF0CBFF41EC1A0B0BF047F801902099A9
:102D90000298FFF700FFCBF8000020990198FFF799
:102DA000FAFEC8F8000000BF88E72DE9F04F2DEDCE
:102DB000048B87B007460E4690469946B8F1140F2B
:102DC00001DD142000E040460690B8F1120F01DD4D
:102DD000122000E0404605903846FFF7D5FE0090EF
:102DE0000BF00AF841EC180B9FED7A0B53EC102B0B
:102DF0000BF046F800D800273046FFF7C5FE0090DC
:102E00000AF0FAFF41EC180B9FED720B53EC102BFC
:102E10000BF036F800D800263C4635466F4800785F
:102E200030B96F4804606F48056001206B49087035
:102E30006B480068A4EB000A6A480068A5EB000B29
:102E4000674804606748056020460AF0D5FF41ECFA
:102E5000190B654890ED000B53EC102B51EC190B3E
:102E60000AF0E9FE41EC180B0AF0D7FF049028465F
:102E70000AF0C2FF41EC190B5C4890ED000B53ECDB
:102E8000102B51EC190B0AF0D6FE41EC180B0AF08E
:102E9000C4FF039050460AF0AFFF41EC190B5448B1
:102EA00090ED000B53EC102B51EC190B0AF0C3FE04
:102EB00041EC180B0AF0B1FF029058460AF09CFF53
:102EC00041EC190B4B4890ED000B53EC102B51ECDF
:102ED000190B0AF0B0FE41EC180B0AF09EFF0190AE
:102EE00008210298FFF757FE029008210198FFF78A
:102EF00052FE0190029A049988180699FFF74BFE3A
:102F0000C9F80000019A039988180599FFF743FE54
:102F1000149908601FB916B900203049087007B02D
:102F2000BDEC048BBDE8F08F70B52DED088B044629
:102F3000B0EE409AF0EE609A2F48007801280CD14C
:102F400051EC190B0AF0CCFF00EE900A00EE104A8B
:102F5000B8EEC00A30EE608A11E051EC190B0AF0AD
:102F6000BFFF00EE900A00EE104AB8EEC00A30EE45
:102F7000600AF0EE408AFEF7DDFEB0EE408A1F48A0
:102F800090ED000AB8EEC00AB4EEC08AF1EE10FA75
:102F90000ED290ED000AB8EEC00AB1EE400AB4EECF
:102FA000C08AF1EE10FA03DD9FED150AB0EE408AFB
:102FB00018EE100A0AF050FF41EC1B0B114890ED7F
:102FC000000B21E050020020540200205802002093
:102FD0005C020020000000000000E03F68020020CA
:102FE000600200206402002020020020280200204D
:102FF000300200203802002040010020480200205A
:10300000000000004002002053EC102B51EC1B0B81
:103010000AF011FE41EC1A0B0AF0FFFE0546724859
:1030200001682846FFF7B7FDBDEC088B70BD70B591
:1030300004460D4629462046FFF7E2FD6B4908602D
:1030400070BD2DE9F0412DED048B86B0B0EE408AC5
:10305000F0EE608AB0EE419AF0EE619A04460D46B9
:1030600016461F46DDF8408000200590049004A815
:1030700005A93B463246CDE900810290294620460B
:10308000B0EE491AF0EE691AB0EE480AF0EE680A9E
:10309000FFF7C1FD56490598086056490498086035
:1030A00006B0BDEC048BBDE8F081FEB504460D46CC
:1030B000164600200290019001A802AB3246294634
:1030C00000902046FFF771FE49490298086049497F
:1030D00001980860FEBD10B52DED028B0446B0EEE0
:1030E000408AF0EE608AB0EE480AF0EE680A2046A8
:1030F000FFF71AFF40490860BDEC028B10BDF0B528
:1031000085B0002004900390002400253B4800680F
:1031100030B13B4801683B480068FFF771FD044649
:1031200039480068B0B103A904A8384A1268CDE94B
:103130000020029136480368364802683648016824
:1031400036480068364E96ED001B364E96ED000B65
:10315000FFF761FD3448006808B334480068FEF7A3
:10316000BDFE064632480068FEF7BDFE074603A8CE
:1031700004A9304A12683B46CDE90021029032464C
:103180002548016825480068DFF8ACC09CED001BAD
:10319000DFF8A8C09CED000BFFF73DFD00BF2848FD
:1031A000006850B103A804AB009026480268264886
:1031B000016826480068FFF7F8FD2548006838B127
:1031C000244890ED000B24480068FFF7ADFE05464B
:1031D0000749049808600749039808600348046099
:1031E0000548056005B0F0BD4C020020CC00002071
:1031F000C4000020C8000020D000002020010020D2
:10320000B8010020E8000020240100205002002026
:10321000C0010020BC010020F0000020EC000020D4
:10322000E0010020D001002030010020C401002076
:10323000C80100205402002000020020F0010020FC
:103240002C010020580200204801002044010020E9
:103250002801002018010020F400002010B501F022
:10326000F3FD0120F84981F8380081F8390010BDDC
:1032700010B501F0C5FA642001F0B6FA01F098FB30
:1032800001F024FC642001F0AFFA4FF4E13001F0CA
:1032900014FF4FF4E13002F00AF84FF4E13002F08D
:1032A00000F9EA4802F01EFAE84802F004FB642044
:1032B00001F09AFAFFF7D2FF01F0E6FA642001F07C
:1032C00093FAFDF767FB4FF4487001F08DFA01F0B7
:1032D000B4F801F0E3FE012010BD40F6C4118842AD
:1032E00003DDDB490978032903DCD94909780A2978
:1032F0000DD10021D64A1170D349B1F84E10491CA6
:10330000D14AA2F84E10012182F8501012E0B0F517
:10331000967F0FDD40F6B83188420BDA02B2CA4917
:10332000891CCB4B1B7821F81320C9490978491C0B
:10333000C74A1170704738B50446C6A000680090AF
:10334000C5484068C449086001F023FAC249486092
:10335000084640680968401A40F6C411884202D9FC
:103360000020BE490870BD4801780078401CBB4A67
:103370001070BB4844541046007819287ED118209C
:1033800011460870B64800780F2878D1B448007EFE
:1033900038B1B348007EB34A12781DF80210884253
:1033A000F3D10020AD490870AD484078AC49897828
:1033B00001F0070140EA0120A3498882A848C078AB
:1033C0008006400DA649897840EAE1009E49C882FE
:1033D000A3484079C007400DA149097940EA81001E
:1033E0009F49C97840EAA110974908839C48807991
:1033F0000007400D9A49497940EA610092494883A3
:103400009748C0794006400D9549897940EA2110D6
:103410008D4988839248407A8007400D9049097A07
:1034200040EA41008E49C97940EAE1108649C883E3
:103430008B48807AC006400D8949497A40EAA1004C
:10344000814908848648C07AC0008549897A40EA63
:1034500061117D4841848248007B8149497B01F0AC
:10346000070140EA0120784988847D48807B8006F6
:10347000400D7B49497B40EAE10001E072E067E0F2
:103480007149C8847648007CC007400D7449C97BE7
:1034900040EA81007249897B40EAA1106A490885A7
:1034A0006F48407C0007400D6D49097C40EA61008F
:1034B000654948856A48807C4006400D6849497CDA
:1034C00040EA2110604988856548007D8007400DED
:1034D0006349C97C40EA41006149897C40EAE110C6
:1034E0005949C8855E48407DC006400D5C49097D4C
:1034F00040EAA100544908865948807DC0005849D7
:10350000497D40EA6111504841865548C07D4E4989
:1035100081F83400084690F8340000F0080040B903
:103520000846B0F84E00401CA1F84E00022081F879
:1035300050004C480078401C4A4908700878C11770
:1035400000EB91718910A0EB8101464A117009E0EE
:10355000002005E0424A411C515C1154411CC8B294
:103560001828F7DB38BD10B50446D4ED000A3E48F4
:10357000008800EE100AB8EE400A9FED3C1A00EEFB
:10358000810ABCEEC00A10EE100A374908800846CE
:103590000088B0F57A7F39DD002008802A48B0F82D
:1035A0004E002949C8860846C08E052803DA012046
:1035B00081F8380003E00020234981F838002248D0
:1035C00090F83800C8B120480078D8B92848007869
:1035D000401C27490870087800EBD0714910A0EB17
:1035E0004101234A117010460078012802D101F0F0
:1035F000ACFC07E001F028FC04E0134890F8500010
:103600001149087000201049A1F84E0010BD10B5F6
:103610002DED020B6846FFF7A6FF0B4890F8380027
:1036200000286AD108480078012823D1002008E04A
:103630000549891C31F81020383121F81020411C2F
:10364000C8B20A28F4DB38E08A0B002020A107006A
:103650006C02002004142434700200207802002040
:10366000DC0B0020790200207C02002000007A445C
:103670007A0200202B48007802281ED100201AE090
:103680002849143131F91010A1F5806100EE101AAB
:10369000F8EEC00A9FED240A9FED241A01EE200ADD
:1036A000BDEEC00A10EE101A0AB21E493A3121F8D6
:1036B0001020411CC8B20A28E2DB1A48B0F94200C7
:1036C000B0F5966F05DD1748B0F94200B0F5AF6F61
:1036D0000BDB1448B0F94200B0F5C86F09DD1148A2
:1036E000B0F94200B0F5E16F03DA0120104908702B
:1036F00011E000200E4908700DE001200C4908700F
:10370000002006E0002207493A3121F81020411C30
:10371000C8B20A28F6DB06480078024981F8390069
:103720001CBD00008A0B00200080BB442FDD243F1D
:103730007E020020F0EE400AF5EEC00AF1EE10FA2B
:1037400002DBB0EE600A7047B1EE600AFBE700B53D
:10375000B0EE403AB0EE602AB5EEC03AF1EE10FAA3
:1037600007D1B5EEC02AF1EE10FA02D19FEDFC1A96
:1037700099E0B0EE430AFFF7DDFFF0EE403AB0EE1D
:10378000420AFFF7D7FFF0EE402AF4EEE23AF1EEFC
:1037900010FA02D283EEA24A01E082EEA34A9FED24
:1037A000F10AB4EEC04AF1EE10FA02D2F0EE441A79
:1037B0002DE0DFEDED0AB6EE000A14EE200AF0EE81
:1037C000404ABDEEE40A10EE100A00EE100AB8EE10
:1037D000C00A34EEC00AF0EE404AE44901EB800131
:1037E00091ED000AF0EE401AE04A411C02EB810123
:1037F00091ED000A114601EB8001D1ED000A70EE57
:10380000600AB0EE610A00EEA40AF0EE401AF4EE8F
:10381000E32AF1EE10FA20DDB5EEC02AF1EE10FA3F
:103820000ADBB5EEC03AF1EE10FA02DBB0EE611A37
:1038300039E0B1EE611A36E09FEDCD1AB5EEC03A2F
:10384000F1EE10FA04DB31EE610AB0EE401A2AE024
:1038500031EEC10AB0EE401A25E0B5EEC03AF1EE05
:1038600010FA10DB9FEDC31AB5EEC02AF1EE10FA84
:1038700004DB31EE610AB0EE401A14E031EE210AA9
:10388000B0EE401A0FE09FEDBC1AB5EEC02AF1EE83
:1038900010FA04DB31EE210AB0EE401A03E031EEFB
:1038A000610AB0EE401AB0EE410A00BD00B5B0EEBC
:1038B000405AF0EE605AF0EE450AB0EE650AFFF7A6
:1038C00046FF00BDF0EE400AF6EE001A60EEA11AC7
:1038D000B0EE611AB0EE600A10EE100AA749A1EB33
:1038E000600000EE100A21EE002AF7EE081A42EE00
:1038F000401A61EE801AB0EE610A21EE002AF7EE5E
:10390000081A42EE401A61EE801AB0EE610A704762
:1039100000B5F0EE402AB0EE620AFFF7D3FF20EECA
:10392000220A00BD10B52DED0A8BB0EE409AF0EEE4
:10393000609A9FED930B53EC102B51EC190B0AF08E
:103940009FFA18D29FED900B53EC102B51EC190BF2
:103950000AF071F941EC1B0B9FED8D0B53EC102B12
:103960000AF0C2F841EC1A0B53EC192B0AF063F978
:1039700041EC180B17E09FED840B53EC102B51EC2E
:10398000190B0AF058F941EC1B0B9FED810B53EC1E
:10399000102B0AF04DF941EC1A0B53EC192B0AF0DD
:1039A0004AF941EC180B9FED760B53EC102B51ECC0
:1039B000180B0AF065FA20D29FED770B53EC102B11
:1039C00051EC180B0AF090F841EC1C0B9FED740BB6
:1039D00053EC102B0AF02FF941EC1B0B9FED6E0BF3
:1039E00053EC102B0AF080F841EC1A0B53EC182B17
:1039F0000AF021F941EC180B1FE09FED670B53EC27
:103A0000102B51EC180B0AF010F941EC1C0B9FED38
:103A1000660B53EC102B0AF00EF941EC1B0B9FEDDB
:103A20005E0B53EC102B0AF05FF841EC1A0B53ECD1
:103A3000182B0AF000F941EC180BB0EE480AF0EE32
:103A4000680ABDEC0A8B10BD10B52DED068BB0EEEB
:103A5000408AF0EE608A01249FED550B53EC102B49
:103A600051EC180B0AF024FA0AD89FED510B53ECD5
:103A7000102B51EC180B0AF0D8F841EC180BA41ECF
:103A800020460AF0B9F941EC190BB0EE480AF0EE05
:103A9000680AFFF747FFB0EE40AAF0EE60AA53ECC9
:103AA000192B51EC1A0B0AF0C6F841EC100BBDECC7
:103AB000068B10BD10B52DED088BB0EE408AF0EEF0
:103AC000608A01249FED3C0B53EC102B51EC180B3A
:103AD0000AF00AF841EC180B9FED350B53EC102B54
:103AE00051EC180B0AF0E4F90AD8A41E9FED300B34
:103AF00053EC102B51EC180B0AF097F841EC180B13
:103B000020460AF079F941EC1A0BB0EE480AF0EEC3
:103B1000680AFFF799FFB0EE40BAF0EE60BA53ECD6
:103B20001A2B51EC1B0B0AF086F841EC190B0AF02A
:103B3000D7F900EE100ABDEC088B10BDF0EE401A6C
:103B4000F4EEE01AF1EE10FA3ADD31EEC10AB4EE0D
:103B5000E00AF1EE10FA3CD2B0EE600A39E0000063
:103B6000000000008180803B000080433CE10008B1
:103B7000DB0F4940DB0FC93FDB0FC9BFDF59375FA0
:103B80000000000000000000000000602FF0D93F9E
:103B900000000060305FF43F000000000000F03FD4
:103BA000000000C0CCCCCCBF000000C0CCCCCC3FCF
:103BB000F1D4C853FB210940F1D4C853FB21F93F8C
:103BC00031EE810AB4EEE00AF1EE10FA01DDB0EE5A
:103BD000600A7047F0EE401AB1EE412A32EE202A18
:103BE000B4EEE12AF1EE10FA09D231EE202AB4EE59
:103BF000E12AF1EE10FA02DDB0EE600A01E0B0EE6B
:103C0000610A7047F0EE402AB5EEC01AF1EE10FAE4
:103C100002DDB0EE410A01E0B1EE410AB6EE003A33
:103C200022EE033A23EE213AB4EEC30AF1EE10FA83
:103C300006D29FEDD40A20EE800AF0EE400A4DE055
:103C4000B5EEC01AF1EE10FA02DDB0EE410A01E065
:103C5000B1EE410A22EE213AB4EEC30AF1EE10FAB7
:103C600006D29FEDC90A20EE800AF0EE400A35E048
:103C7000B5EEC01AF1EE10FA02DDB0EE410A01E035
:103C8000B1EE410AB4EEE10AF1EE10FA06D2B6EE58
:103C9000000A20EE800AF0EE400A1FE0B5EEC01ADE
:103CA000F1EE10FA02DDB0EE410A01E0B1EE410A98
:103CB000B0EE003A21EE833AB4EEC30AF1EE10FA08
:103CC00006D29FEDB20A20EE800AF0EE400A05E02F
:103CD0009FEDAF0A20EE800AF0EE400A9FEDAD0A9C
:103CE00020EE800A20EE223AF7EE003A83EE830AB5
:103CF000B7EE003A30EE030AF7EE003A83EE803A70
:103D000090ED000A71EE403A90ED000A03EE230AAE
:103D100080ED000A90ED000AB1EE423A23EE213A1E
:103D2000B4EEC30AF1EE10FA04D8B1EE420A20EE66
:103D3000210A0DE090ED000A22EE213AB4EEC30A0A
:103D4000F1EE10FA02DD22EE210A01E090ED000A08
:103D500080ED000A90ED000A31EE400A704710B580
:103D60002DED028BB0EE408AF0EE608A9FED8A0B5B
:103D700053EC102B51EC180B0AF09AF80CD29FED73
:103D8000880B53EC102B51EC180B09F04EFF41EC53
:103D9000100BBDEC028B10BD9FED830B53EC102B71
:103DA00051EC180B0AF06CF80AD29FED7D0B53EC26
:103DB000102B51EC180B09F097FE41EC100BE8E7C3
:103DC000B0EE480AF0EE680AE3E730B505460C4667
:103DD000F0EE403AD5ED000A60EEA00A94ED001A2C
:103DE000D4ED001A41EE210AB0EE600AFFF790FD13
:103DF000B0EE403AB5EEC03AF1EE10FA02D81FED3F
:103E0000A80A09E0B4EEE33AF1EE10FA02DDB0EEF2
:103E1000630A01E0B0EE430AB0EE404AB5EEC03AA4
:103E2000F1EE10FA06D11FEDB20A83ED000A82ED21
:103E3000000A0FE084EE030AD5ED000A20EE200A06
:103E400082ED000A84EE030AD4ED000A20EE200A77
:103E500083ED000A30BDF0EE400A0B7802EB8303DD
:103E6000C3ED000A0B785B1C0B700B78834201DBFF
:103E700000230B700B7802EB830393ED000A70476D
:103E800000B50246B0EE403A0B46F7EE000A43EEAC
:103E9000430AB0EE600AFFF73BFDD2ED000A20EEC8
:103EA000200AD2ED010A00EEC30A83ED000AF7EE04
:103EB000000A43EE430AB0EE600AFFF729FDD2ED97
:103EC000010A20EE200AD2ED000A00EE830A83EDFB
:103ED000010A00BD90ED000AD1ED010A20EE200A92
:103EE000D0ED010A91ED001A00EEC10A704790ED85
:103EF000000AD1ED000A20EE200AD0ED010A91ED72
:103F0000011A00EE810A704790ED010AD1ED020A14
:103F100020EE200AD0ED020A91ED011A00EEC10A4E
:103F200082ED000A90ED020AD1ED000A20EE200A8F
:103F3000D0ED000A91ED021A00EEC10A82ED010AED
:103F400090ED000AD1ED010A20EE200AD0ED010A21
:103F500091ED001A00EEC10A82ED020A704790ED61
:103F6000000AD1ED000A20EE200AD0ED010A91ED01
:103F7000011A00EE810AD0ED020A91ED021A00EE5C
:103F8000810A70479A99993FCDCC4C3FCDCC4C3E9D
:103F9000CDCCCC3DC3F5C840000000000080664099
:103FA000000000000080764000000000008066C035
:103FB00008B5C648D0ED000A9FEDC51AF4EEC10A57
:103FC000F1EE10FA0BD2D0ED000AB7EE001A70EE47
:103FD000810AC0ED000A0120BE49887002E000207D
:103FE000BC498870B948D0ED010A9FEDB91AF4EECA
:103FF000C10AF1EE10FA0BD2D0ED010AB7EE001AA9
:1040000070EE810AC0ED010A01208DF8000002E087
:1040100000208DF80000AD48D0ED020A9FEDAC1AEB
:10402000F4EEC10AF1EE10FA0BD2D0ED020AB7EEAF
:10403000001A70EE810AC0ED020A01208DF801001D
:1040400002E000208DF801009DF8000030B19DF8DD
:10405000010018B101209F49C87002E000209D496D
:10406000C87008BD30B500220024C5788B1F9D4262
:1040700000D030BD002306E0C55C1544EAB2A518A7
:10408000ECB25D1CEBB28D1E9D42F5DC431813F8BB
:10409000023C934204D1431813F8013CA34200D0E0
:1040A000E7E78378512B38D103795BB94379894DA0
:1040B0006B7183795BB2AB71C3795BB2EB71037ADD
:1040C0002B7183E00379012B12D14379814D2B723F
:1040D000C3886B810389AB81837A2B719FED7E0A44
:1040E0007A4B83ED010A2B461B785B1C2B706DE02D
:1040F0000379022B6AD14379764DAB73C3882B8247
:1041000003896B824389AB828389EB82C3892B83CA
:10411000038A6B83837C2B7158E08378342B0DD119
:10412000D0F807306B4DEB619FED6B0A674B83ED69
:10413000020A2B465B785B1C6B7047E08378012B8F
:104140000DD18388634D2B86C3886B860389AB862C
:104150004389EB8683892B87C3896B8736E0837815
:10416000042B33D1B0F9043000EE103AB8EEC00A97
:10417000DFED5A0A20EE200A564B83ED080AB0F90B
:10418000063000EE103AB8EEC00ADFED540A20EE19
:10419000200A504B83ED090AB0F9083000EE103ABE
:1041A000B8EEC00ADFED4D0A20EE200A494B83ED40
:1041B0000A0AB0F90A3000EE103AB8EEC00ADFED94
:1041C000470A20EE200A434B83ED0B0A00BF50E75D
:1041D00010B504464248007838B9AA2C05D1012010
:1041E0003F4908703F4804706FE03D48007801285F
:1041F00009D1612C01D0FF2C05D10220384908706B
:104200003848447061E036480078022805D1032020
:10421000334908703348847057E0314800780328E8
:104220000CD1FA2C0ADA04202D4908702D48C470EC
:104230002D48047000202D49087046E02848007879
:10424000042819D128480078002815DD2648007870
:10425000401E254908702548007824490978491CE2
:10426000224A1170001D1F490C541F48007840BBA2
:1042700005201B49087028E01948007805280DD151
:104280000620174908701948007818490978491C10
:10429000164A1170001D13490C5416E0104800789E
:1042A00006280FD100200E49087010480078001D24
:1042B0000C490C540D480078401DC1B20948FFF765
:1042C000D1FE02E000200649087010BD680C0020F5
:1042D0000000FA43F80B00200000000017B7D138A7
:1042E00081020020340C00207F0200208002002088
:1042F0000146D548007800287ED00022D24B1A70A3
:10430000D24A1288C832D14B1A80D14A127DD14B81
:104310005A76CF4AD37DCF4A9376CD4A9369CD4A18
:10432000C2F81B30CA4AD369CA4AC2F81F30C84A09
:10433000526A0A2392FBF3F3C64AC2F82330C44AF6
:10434000126B0A2392FBF3F213B2C24AA2F827308F
:10435000BF4A526B0A2392FBF3F213B2BD4AA2F892
:104360002930BB4A926B0A2392FBF3F213B2B94A8B
:10437000A2F82B30B64AB2F84C2000EE102AB8EE64
:10438000400ADFEDB50A20EE200ABCEEC00A10EEAE
:10439000100A08B9002204E0C82801D9C82200E0A8
:1043A00002461046AB4A82F82D00A94A526C00EE34
:1043B000102AB8EE400ADFEDA80A20EE200ABCEE73
:1043C000C00A10EE100A08B9002204E0C82801D97A
:1043D000C82200E0024610469E4A82F82E009C4AFF
:1043E000D26A00EE102AB8EE400ADFED9B0A20EEFA
:1043F000200ABCEEC00A00E012E010EE100A08B974
:10440000002204E0C82801D9C82200E00246104674
:10441000904A82F82F000123904A82F8213100BF90
:10442000704710B50E218E4800F0C2FE10BD10B5C9
:104430000E218C4800F0BCFE10BD10B5642000F0C9
:10444000D3F94FF4165000F038FE322000F0CCF9CA
:104450001C21854800F0ACFE642000F0C5F94FF443
:10446000964000F02AFE322000F0BEF91C217E4862
:1044700000F09EFE642000F0B7F94FF4164000F003
:104480001CFE322000F0B0F91C21774800F090FEAD
:10449000642000F0A9F94FF4E13000F00EFE142082
:1044A00000F0A2F90B21714800F082FE142000F008
:1044B0009BF90B216E4800F07BFE142000F094F96C
:1044C0000B216C4800F074FE142000F08DF90B21D4
:1044D000694800F06DFE142000F086F90B21674852
:1044E00000F066FE142000F07FF90B21644800F014
:1044F0005FFE142000F078F9FFF793FF10BD10B5B0
:104500000146002000225F4B1B782BB9B52903D14F
:1045100001235C4C237095E05A4B1B78012B05D18D
:10452000622903D10223574C23708BE0554B1B7833
:10453000022B05D10323534C2370534B197081E098
:10454000504B1B78032B05D104234E4C23704F4B4B
:10455000197077E04B4B1B78042B05D10523494C90
:1045600023704B4B19706DE0464B1B78052B10D117
:104570000623444C2370464B1B7803EB0123454C28
:10458000238023461B88622B5CDB00233D4C237079
:1045900058E03C4B1B78062B54DB3A4B1B789B1F97
:1045A0003C4C2488A41CA3420ADA364B1B789B1F80
:1045B000274CE154334B1B785B1C324C237041E099
:1045C000314B1B780344D8B21318DAB22F4B1B7847
:1045D0000344D8B21318DAB22E4B1B780344D8B276
:1045E0001318DAB22B4B1B8800EB1323D8B2131825
:1045F000DAB2002307E0164CE45C0444E0B214187D
:10460000E2B25C1CE3B2234C2488A342F3DB104BE0
:10461000204C24881B5D834211D10D4C1D4B1B88FF
:104620005B1CE35C93420AD1174B1B78012B06D12C
:10463000164B1B78072B02D10123034C2370002358
:10464000104C237010BD0000820200208402002064
:10465000740C0020180B00200AD7233CBC03002058
:104660008602002094020020BE020020EF020020FB
:10467000FA02002005030020100300201B03002085
:1046800026030020370300203103002032030020DE
:104690003303002034030020704700BFFEE700BF53
:1046A000FEE700BFFEE77047704710B5802003F0BB
:1046B000C4FE10B1802003F016FF10BD10B500F04D
:1046C0001BFC10BD704710B50121114807F0ABFD70
:1046D00028B101210E4807F003FEFCF708FF10BDCA
:1046E00010B500F0ADFD10BD10B500F09EFE10BD80
:1046F00010B500F0BBFF10BD10B501F0A0F810BD63
:1047000010B501F0B0F910BD10B500F071FC10BD8E
:10471000001400407FB5684604F0C1FD4FF47A7183
:104720000198B0FBF1F4E4082146B1F1807F00D399
:104730001DE021F07F40401E4FF0E02250615017F5
:104740000F22002807DA13071E0E314B00F00F0569
:104750002D1F5E5503E013071D0E2E4B1D5400BF89
:1047600000204FF0E02290610720106100BF6FF041
:10477000040001F095FB7FBD2748D0E900305A1CAA
:1047800040F100002449C1E9002070472248006838
:10479000704710B500BF204A11684FF0E0225269FF
:1047A0004FF0E0239B69D21A4FF47A735A434FF0CB
:1047B000E0235B69B2FBF3F201EB4103C3EBC113EE
:1047C00002EBC300144C18CC4B402343E3D110BD83
:1047D00030B50446FFF7DDFF054600BFFFF7D9FF00
:1047E000401BA042FAD330BD10B5044603E04FF49D
:1047F0007A70FFF7EDFF201EA4F10104F7D110BD80
:1048000010B54FF4806001F099FAFFF783FF10BDF7
:1048100018ED00E000E400E03803002000B58FB0A0
:10482000684602F096FD0121880504F050FE00BFA5
:10483000564803F0ABF80028FAD100905448019094
:1048400054480290002003903220049000200590EC
:104850004FF48060069040000790800008900001AF
:104860000A904012099000200B9001200C9000202B
:104870000D900E906946454802F015FC0121434811
:1048800002F078FD0FB000BD00B58DB001A801F0B9
:1048900009FC0121042004F01AFE0121080204F0A1
:1048A000FCFEFFF7BBFF03208DF8300020200B90AB
:1048B00000208DF833000BA9374803F0B9FE002023
:1048C000099007904FF48030089000200A9007A8C4
:1048D00001F0F2FB002001908DF8080001208DF816
:1048E000090000200390059001208DF8180001A90F
:1048F00027484C3801F00DFB072301220F212448E3
:104900004C3801F09EFD012121484C3801F077FF21
:1049100001211F484C3801F080FC01211C484C3813
:1049200001F047FF1A484C3801F057FE0DB000BDAA
:104930009FED1A0AF0EE400A002010E0154931F808
:10494000101000EE101AB8EE401ADFED151AB0EE96
:10495000600A01EE210AF0EE400A411CC8B232287A
:10496000ECDB9FED101A80EE810A9FED0F1A20EE0E
:10497000010AB2EE061A20EE010AF7EE001A80EEE6
:10498000211A9FED0A0A21EE000A704710640240C6
:104990004C200140D80C002000080240000000001C
:1049A0000AD7A33C0000804500404E456F12833A71
:1049B0001CB5684603F0E7FE0121102004F087FDD6
:1049C00001208DF804008DF8070000208DF8060006
:1049D00002208DF80500072000906946384803F052
:1049E00027FE01208DF804008DF8060002208DF8C6
:1049F0000500802000906946314803F019FE02212D
:104A00002F4804F04BF801212D4804F047F8042109
:104A10002B4804F043F88021294804F03FF81CBDDE
:104A200000F0010119B10221254A118302E002219F
:104A3000234A518300F0020119B10121204A118358
:104A400002E001211E4A518300F0040119B1042142
:104A50001B4A118302E00421194A518300F0080126
:104A600019B18021164A518302E08021144A118332
:104A7000704700B500201DE0124931F81010124AAD
:104A80001256914204DA0121814019438BB202E0AF
:104A9000012181408B430B4931F81010491C89B228
:104AA000084A22F81010142902DB002122F8101005
:104AB000411CC8B20428DFDB1846FFF7B1FF00BD78
:104AC00000100240440300204003002030B58BB0AA
:104AD0000025D44C01A803F056FE08A805F063F9A0
:104AE00003A805F09CFF012C01D8012004E0CE486A
:104AF000844200D900E0204604460121082004F049
:104B0000A9FD0121022004F0C8FD0121084604F09E
:104B1000C4FD0121152004F0DAFC0C2001900220D4
:104B20008DF8080003208DF8090000208DF80A0098
:104B300001208DF80B0001A9BC4803F079FD022289
:104B40001146BA4804F088F802220321B74804F05D
:104B500083F8B74800684008B0FBF4F0401E85B207
:104B600042F210700990ADF820500020ADF82800F6
:104B7000ADF8220008A9AF4805F08AF86020ADF82A
:104B80000C000020ADF818000120ADF80E004FF425
:104B90007A60059003A9A74805F0E8FD0821A5481B
:104BA00006F0B1F90120ADF80E004FF47A600590DF
:104BB00003A9A04805F0A2FE08219E4806F0CFF9FF
:104BC00001219C4805F0E9FA01219A4805F0D1FB42
:104BD0004FF4D440019002208DF8080003208DF896
:104BE000090000208DF80A0001208DF80B0001A9B2
:104BF000914803F01DFD012209218F4804F02CF893
:104C000001220B218C4804F027F801220D218A484B
:104C100004F022F801220E21874804F01DF8844890
:104C20000068B0FBF4F0401E85B242F210700990AB
:104C3000ADF820500020ADF82800ADF822008DF826
:104C40002A0008A97D4805F023F86020ADF80C0083
:104C50000020ADF81000ADF818000820ADF81A00DB
:104C60004001ADF81C000020ADF81E000120ADF899
:104C70000E004FF47A60059003A9704805F0C1FB5F
:104C800008216E4806F0CBF84FF47A60059003A92E
:104C90006A4805F07EFC0821684806F0FEF84FF4EB
:104CA0007A60059003A9654805F060FD0821634816
:104CB00006F029F94FF47A60059003A95F4805F0E2
:104CC0001DFE08215D4806F04AF901215B4807F006
:104CD000FCF80121594805F060FA0121574805F018
:104CE00048FB4FF44070019002208DF8080003202B
:104CF0008DF8090000208DF80A0001208DF80B00C6
:104D000001A94F4803F094FC032208214C4803F00A
:104D1000A3FF032209214A4803F09EFF444800688C
:104D2000B0FBF4F0401E85B242F210700990ADF86D
:104D300020500020ADF82800ADF822008DF82A00A0
:104D400008A9404804F0A4FF6020ADF80C00002042
:104D5000ADF81000ADF818000820ADF81A004001B9
:104D6000ADF81C000020ADF81E004FF47A600590ED
:104D700003A9344805F0FAFC0821304806F0C3F8CE
:104D80004FF47A60059003A92E4805F0B7FD08217D
:104D90002A4806F0E4F801212A4807F096F8012194
:104DA000284805F0FAF90121264805F0E2FA0BB08F
:104DB00030BDB0F90010890001F57A611F4A116415
:104DC000B0F90210890001F57A61D163B0F90410DD
:104DD000890001F57A619163B0F90610890001F547
:104DE0007A615163B0F90810890001F57A61114ABE
:104DF00040321160B0F90A10890001F57A61121F82
:104E00001160B0F90C10890001F57A610D4A403249
:104E10001160B0F90E10890001F57A61121F11605E
:104E20007047000000093D0000BD01050000024080
:104E300064030020000C004000100240000001400C
:104E4000000802400004014000B587B005A803F047
:104E50009AFC02A806F0BBFE0121022004F0FAFB36
:104E60000121042004F033FB1D208DF804000220F2
:104E70008DF8050001208DF806008DF8070001A8C7
:104E800000F077FF8020059002208DF818000320A5
:104E90008DF8190000208DF81A0002208DF81B00F3
:104EA00005A95D4803F0C4FB022207215A4803F01C
:104EB000D3FE5320594908800420ADF808000A2089
:104EC000ADF80A000120ADF80C000020ADF80E008E
:104ED000ADF8100002A95148283806F092FD0121D2
:104EE0004E48283805F045FA012204214B4828385D
:104EF00007F05AF807B000BD10B5484818380088C8
:104F000000F0040000B34FF6FB70444918390880E4
:104F10004FF6FF30088040481030006800F08000F5
:104F200090B93E48283806F0FEFE3D490880084604
:104F300000884988401A84B22046FEF7CEF93848E6
:104F400000883749488000BF10BD00B587B068466B
:104F500003F019FC0121202004F09FFB0121042013
:104F600004F0B5FA47208DF8080004208DF80900F8
:104F700001208DF80A008DF80B0002A800F0F9FE60
:104F800008220721244803F067FE802000900220B9
:104F90008DF804008DF8050001208DF80600002032
:104FA0008DF8070069461C4803F042FB1D4803903A
:104FB0000020ADF810004FF40050ADF81200C01002
:104FC000ADF814000020ADF818000420ADF816006C
:104FD00003A9154807F0DBFE012240F225511248D3
:104FE00008F071FB0121104808F01AF807B000BD65
:104FF00010B540F225510C4808F08BFC58B140F236
:105000002551094808F010FD0748001D0088C4B26A
:105010002046FEF790F910BD000802402804004029
:105020004C030020A0860100001401403EB5044658
:105030000121202004F00EFB1E4804F04DFD0194D8
:105040005320ADF800000020ADF80800ADF80200D4
:105050006946184804F01CFE0121164807F0ADF817
:1050600001221146134806F09FFF0121114805F067
:1050700080F90021202004F0EDFA3EBD08B537206C
:105080008DF8000007208DF8010001208DF8020046
:105090008DF80300684600F06CFE08BD10B54FF4B3
:1050A0007A70FFF7C3FFFFF7E9FF0121202004F02A
:1050B000D1FA10BD00140040704710B58AB0044604
:1050C00006A807F048FF0121102004F0E6FA0121AC
:1050D000084604F0FCF925208DF80C0003208DF81B
:1050E0000D0000208DF80E0001208DF80F0003A8A0
:1050F00000F03FFE07220921FE4803F0ADFD072224
:105100000A21FC4803F0A8FD4FF400700190022032
:105110008DF808008DF8090000208DF80A000120A4
:105120008DF80B0001A9F34803F082FA4FF4806078
:10513000019002208DF808008DF8090001208DF8FB
:105140000A0000208DF80B0001A9EA4803F070FA6C
:10515000E94807F0B7FD06940020ADF81C00ADF853
:105160001E00ADF82000ADF824000C20ADF82200A0
:105170000020ADF81000ADF812004FF40070ADF84B
:1051800014000020ADF8160006A9DB4807F0FFFD6B
:1051900004A9D94807F0EBFE012240F22551D64878
:1051A00008F091FA0121D44807F03AFF0AB010BD87
:1051B00070B505460E4600240AE0295DCF48027806
:1051C0000078401CCD4B1870CD488154601CC4B28F
:1051D000B442F2DBC848808900F0800028B901227F
:1051E00040F22771C44808F06EFA70BDC5490A78CC
:1051F0000978491CC34B1970C3498854194609786A
:10520000642902DB00211A461170704710B510E0C6
:10521000BE490A780978491CBC4B1970BA49885CA8
:10522000FCF788FFB9480078642802DB0020B74902
:105230000870B4480078B54909788842E8D110BDB3
:1052400010B5AD48008800F0080010B1AA48808869
:10525000C4B240F22551A84808F05BFB50B140F2BF
:105260002551A54808F0E0FBA3488088C4B2204639
:10527000FFF7BCFF40F227719F4808F04AFBA8B136
:10528000A34801780078401CA14A10709C48405CFB
:10529000994988801046007898490978884205D154
:1052A0009548808920F080009349888110BD10B511
:1052B0008AB0044606A807F04EFE0121480404F017
:1052C000C9F90121082004F002F926208DF80C000C
:1052D00004208DF80D0001208DF80E008DF80F00D0
:1052E00003A800F046FD072205218A4803F0B4FC1C
:1052F00007220621874803F0AFFC202001900220FE
:105300008DF808008DF8090000208DF80A000120B2
:105310008DF80B0001A97F4803F08AF94020019025
:1053200002208DF808008DF8090001208DF80A0090
:1053300000208DF80B0001A9764803F079F9069456
:105340000020ADF81C00ADF81E00ADF82000ADF84F
:1053500024000C20ADF822000020ADF81000ADF8BC
:1053600012004FF40070ADF814000020ADF81600E4
:1053700006A9694807F00BFD04A9674807F0F7FD87
:10538000012240F22551644808F09DF9012162484C
:1053900007F046FE0AB010BD70B505460E46002463
:1053A0000AE0295D5D4802780078401C5B4B18706C
:1053B0005B488154601CC4B2B442F2DB56480C30E6
:1053C000008800F0800028B9012240F2277152487D
:1053D00008F079F970BD53490A780978491C514B96
:1053E00019705149885419460978642902DB002153
:1053F0001A461170704710B510E04C490A780978C8
:10540000491C4A4B19704849885CFCF7B2FF474871
:105410000078642802DB0020444908704148007885
:10542000424909788842E8D110BD10B53A48008851
:1054300000F0080018B13848001D0088C4B240F2DE
:105440002551354808F065FA58B140F225513248E7
:1054500008F0EAFA3048001D0088C4B22046FFF781
:10546000BAFF40F227712C4808F053FAC0B1304817
:1054700001780078401C2E4A10702948405C26496B
:10548000091D08801046007824490978884207D110
:1054900021480C30008820F080001F490C31088022
:1054A00010BD10B58AB0044606A807F054FD0121CE
:1054B000880404F0CFF80121022004F008F8272026
:1054C0008DF80C0002208DF80D0000208DF80E00E4
:1054D00001208DF80F0003A800F04BFC07220A21E1
:1054E000144803F0B9FB07220B21124803F0B4FB68
:1054F00022E00000000002400010014051030020A3
:105500003C0D0020520300203C0E002053030020DD
:1055100050030020000C02400044004055030020CE
:10552000A00E002056030020A00F002057030020EB
:1055300054030020000402404FF4806001900220D8
:105540008DF808008DF8090000208DF80A00012070
:105550008DF80B0001A9FE4803F06AF84FF40060D3
:10556000019002208DF808008DF8090001208DF8C7
:105570000A0000208DF80B0001A9F54803F058F847
:1055800006940020ADF81C00ADF81E00ADF8200018
:10559000ADF824000C20ADF822000020ADF810007A
:1055A000ADF812004FF40070ADF814000020ADF813
:1055B000160006A9E74807F0EAFB04A9E54807F04A
:1055C000D6FC012240F22551E24808F07CF8012186
:1055D000E04807F025FD0AB010BD70B505460E463F
:1055E00000240AE0295DDC4802780078401CDA4B90
:1055F0001870DA488154601CC4B2B442F2DBD5485A
:105600000C30008800F0800028B9012240F2277198
:10561000D04808F058F870BDD1490A780978491C7B
:10562000CF4B1970CF49885419460978642902DB99
:1056300000211A461170704710B510E0CA490A7867
:105640000978491CC84B1970C649885CFDF73CF8BD
:10565000C5480078642802DB0020C3490870C048B0
:105660000078C14909788842E8D110BD10B5B94821
:10567000008800F0080018B1B648001D0088C4B2C8
:1056800040F22551B34808F044F958B140F2255191
:10569000B04808F0C9F9AF48001D0088C4B22046E0
:1056A000FFF7BAFF40F22771AA4808F032F9C0B1FB
:1056B000AE4801780078401CAC4A1070A748405CA6
:1056C000A449091D088010460078A349097888423A
:1056D00007D1A0480C30008820F080009D490C3193
:1056E000088010BD10B588B0044604A807F033FC4C
:1056F0000121C80403F0AEFF0121084603F0E7FED4
:1057000034208DF80C0003208DF80D0001208DF859
:105710000E008DF80F0003A800F02BFB08220021DB
:10572000934803F099FA08220121914803F094FA72
:105730000120019002208DF808008DF8090000205A
:105740008DF80A0001208DF80B0001A9884802F0AD
:105750006FFF022001908DF808008DF809000120EC
:105760008DF80A0000208DF80B0001A9804802F096
:105770005FFF04940020ADF81400ADF81600ADF8FA
:105780001800ADF81C000C20ADF81A0004A97948E7
:1057900007F0FDFA012240F22551764807F093FF09
:1057A0000121744807F03CFC08B010BD70B50546F7
:1057B0000E4600240AE0295D6F4802780078401CFC
:1057C0006D4B18706D488154601CC4B2B442F2DB5A
:1057D00068480C30008800F0800028B9012240F2AF
:1057E0002771644807F06FFF70BD65490A78097832
:1057F000491C634B19706349885419460978642918
:1058000002DB00211A461170704710B510E05E49A6
:105810000A780978491C5C4B19705A49885CFEF774
:10582000D7FC59480078642802DB002056490870EC
:1058300053480078544909788842E8D110BD10B522
:105840004C48008800F0080018B14A48001D008844
:10585000C4B240F22551474808F05BF858B140F215
:105860002551444808F0E0F84248001D0088C4B2C1
:105870002046FFF7BAFF40F227713E4808F049F88A
:10588000C0B1424801780078401C404A10703B4843
:10589000405C3849091D088010460078364909786F
:1058A000884207D133480C30008820F0800031490D
:1058B0000C31088010BD10B588B0044604A807F06C
:1058C0004AFB0121080503F0C5FE0121042003F075
:1058D000FEFD0121082003F0FAFD35208DF80C00B3
:1058E00001208DF80D0000208DF80E0001208DF8AC
:1058F0000F0003A800F03DFA08220C21244803F011
:10590000ABF908220221234803F0A6F94FF4805096
:10591000019002208DF808008DF8090000208DF814
:105920000A0001208DF80B0001A9194802F080FE41
:105930000420019002208DF808008DF80900012054
:105940008DF80A0000208DF80B0001A9114823E012
:1059500000040240004800405903002004100020C9
:105960005A030020041100205B030020580300208C
:1059700000000240004C00405D0300206811002040
:105980005E030020681200205F0300205C030020FB
:1059900000080240000C024002F04AFE049400207D
:1059A000ADF81400ADF81600ADF81800ADF81C0005
:1059B0000C20ADF81A0004A94C4807F0E8F90122C0
:1059C00040F22551494807F07EFE0121474807F083
:1059D00027FB08B010BD70B505460E4600240AE04E
:1059E000295D434802780078401C414B18704148BB
:1059F0008154601CC4B2B442F2DB3C48808900F0A0
:105A0000800028B9012240F22771384807F05BFE78
:105A100070BD39490A780978491C374B19703749E4
:105A2000885419460978642902DB00211A4611704E
:105A3000704710B510E032490A780978491C304B9C
:105A400019702E49885CFBF71CF92D4800786428F2
:105A500002DB00202A490870274800782849097885
:105A60008842E8D110BD10B52048008800F0080039
:105A700010B11E488088C4B240F225511B4807F07F
:105A800048FF50B140F22551184807F0CDFF1748A4
:105A90008088C4B22046FFF7BCFF40F2277113484C
:105AA00007F037FFA8B1174801780078401C154A65
:105AB00010701048405C0D498880104600780C49F1
:105AC0000978884205D10948808920F0800007497B
:105AD000888110BD10B5FFF799FBFFF78CFCFFF72D
