:020000040800F2
:10000000481C002059630008E94E0008636300089B
:10001000EB4E0008EF4E0008F34E00080000000011
:10002000000000000000000000000000F74E000883
:10003000F94E0008000000006F630008C94F000877
:100040007363000873630008736300087363000838
:100050007363000873630008736300087363000828
:100060007363000873630008736300087363000818
:100070007363000873630008736300087363000808
:1000800073630008736300087363000873630008F8
:10009000736300087363000873630008FB4E000875
:1000A00073630008736300087363000873630008D8
:1000B000736300080D4F0008154F000873630008B4
:1000C00073630008736300087363000873630008B8
:1000D00073630008314F0008394F0008414F000892
:1000E0007363000873630008736300087363000898
:1000F0007363000873630008736300087363000888
:100100007363000873630008736300087363000877
:10011000494F0008514F000873630008174F00084B
:100120007363000873630008736300087363000857
:100130007363000873630008736300087363000847
:100140007363000873630008736300087363000837
:10015000736300087363000873630008594F000855
:100160007363000873630008736300087363000817
:100170007363000873630008736300087363000807
:100180007363000873630008DFF80CD00EF0B2FB55
:1001900000480047A1010008481C002000BFFEE7FE
:1001A00003F08EFC00F01EF801E000F041F8FCE7DF
:1001B00010B503F01BF803F0CAFB10BD7047704781
:1001C00010B52E4803682E4802682E4801682E4854
:1001D000006802F009FF10BD10B500F059FC10BD19
:1001E00070477047002000BF1FE000EB4001274A26
:1001F00002EB810189884FF47A7292FBF1F100EBF6
:100200004002224B03EB8202D18000EB40011A46F0
:1002100002EB8101C988012905DA012100EB4002C6
:1002200003EB8202D180411CC8B20728DDD370479E
:1002300070B5002400BF1EE004F0D0FE054604EBBC
:100240004400124901EB80008068281A04EB440145
:100250000E4A02EB8101C98888420AD304EB4400AC
:10026000114601EB8000856004EB440152F8210047
:100270008047601CC4B2072CDED370BDE4010020AF
:10028000D0010020E0010020DC010020000000205F
:100290000146002901DB084670474842FCE7034657
:1002A0008B4201DA08467047934201DD1046FAE7B7
:1002B0001846F8E710B50346CC1A944201DD9818A9
:1002C00010BD5042844201DA981AF9E70846F7E770
:1002D0000146CA2903D0CB2901D0CC2901D1012064
:1002E00070470020FCE7FE480068FE490988884204
:1002F0000AD0FB480088FB4908800020FA490860C2
:10030000FA490880012070470020FCE70146F648C2
:100310000068884206DAF44800681430F24A106037
:10032000002070470020F04A10600120F9E70246E3
:100330005AB1EE4800884EF66023984208DAEB483E
:100340000088401CE94B188002E00020E74B188031
:10035000E6480088884204DB0020E44B1880012036
:1003600070470020FCE770B504460D461646601B3A
:10037000FFF78EFFB04201DC012070BD0020FCE7DA
:1003800070B504460D46DA48006802F057F920605F
:10039000D848006802F057F9286070BD7CB5054662
:1003A0000E461446694601A8FFF7EAFF0199681A4C
:1003B000FFF76EFFA04207DC0099701AFFF768FF95
:1003C000A04201DC01207CBD0020FCE710B500202C
:1003D00002F07DF8042002F00FF810BD2DE9F04185
:1003E00007460C4615461E46F02200213846FFF708
:1003F00056FFC14908604FF4967200212046FFF76E
:100400004EFFBE490860BE480560304603F007F85D
:10041000BDE8F0817CB504460D46694601A8FFF7AA
:10042000AFFF2B462246DDE90010FFF7D7FF7CBD6A
:1004300001207047014611B1012904D101E00C20CF
:1004400070470820FCE70620FAE718B5024612B10B
:10045000012A18D10AE00C2091FBF0F300FB1310E5
:10046000A84B03EB80000068009017E00846CB170C
:1004700001EB5373DB10A1EBC303A34C04EB830329
:100480001B6800930AE0062091FBF0F300FB1310B9
:100490009E4B03EB80000068009000BF00BF0098F7
:1004A00018BD70B59A4890ED000B51EC100B0EF092
:1004B000DCF89849B1F93A20B1F93C100A44954961
:1004C000B1F9401011440844934909684518884817
:1004D000006802F0B3F805448648006802F0B3F8FB
:1004E0002C18002C00DA6442032094FBF0F100FB8E
:1004F0001140C0B270BD4FF6FF707A4908800020ED
:1005000086490870864908708649087086490870CF
:1005100086490870754908808548008885490880A3
:1005200000208549088085490880854908808549DB
:1005300008708549087085490870854908708549A3
:100540000870854908808549088085490870854973
:100550000860854908608549088085490880854983
:1005600008708549088085490880854908605C498C
:100570000860704710B583480078FFF7A9FE10B1F6
:100580008048007810BDCA20FCE710B504467B48BF
:10059000008818B97C48007802F021F97748008873
:1005A00014307649088008460088A04201DB00200C
:1005B000088010BD5E4801885E480088814203D0F3
:1005C0005C480180012070470020FCE76F480078FC
:1005D0006D490978884201D1012070470020FCE76D
:1005E00010B5FFF725FF08B9002010BD6848007856
:1005F000602808D167480078602804D1FFF7E6FF3B
:1006000008B10120F1E70020EFE770B50446C4EB24
:10061000C40040000A2190FBF1F5F0225142284627
:10062000FFF73DFE0546284670BD70B505460C46F1
:100630002846FFF72DFE962804DC2046FFF728FE0B
:10064000962801DD002070BD0120FCE72DE9FC4764
:1006500007460C46694601A8FFF792FE3846FFF7A9
:10066000D4FF80462046FFF7D0FF8146019901EB79
:100670000800F0220021FFF712FE0546009901EB69
:1006800009004FF496720021FFF709FE0646344830
:10069000007838B933480560334806600120304996
:1006A000087017E02F490968681AC11700EB9171AB
:1006B0002C4A126802EBA1012A4A11602A490968F2
:1006C000701AC11700EB9171274A126802EBA10161
:1006D000254A11600A2223480168074800685BE048
:1006E000E400002054000020E80000205C0000200E
:1006F000DC010020E0010020F4000020F8000020D0
:10070000F00000208CE90008BCE90008DCE90008E2
:10071000A8010020A20B0020D001002056000020DC
:1007200057000020590000205A0000205B000020E4
:1007300072010020600000206200002064000020A0
:100740006600002068000020690000206A00002088
:100750006B0000206C0000206E0000207000002064
:100760007200002074000020780000207C0000202F
:100770007E000020800000208200002084000020F5
:1007800058010020550100205E0000207401002067
:100790005401002075010020FFF78CFDFE49086020
:1007A0000A22FE480168FE480068FFF783FDFC4905
:1007B0000860F0220021F8480068FFF770FDF64954
:1007C00008604FF496720021F5480068FFF767FD56
:1007D000F3490860BDE8FC871CB5F248007830B1E9
:1007E000F14800680190ED480068009003E0694618
:1007F00001A8FFF7C5FDF02200210198FFF74FFD8A
:1008000000B2EA4908804FF4967200210098FFF781
:1008100046FD00B2E64908801CBD1CB5694601A82A
:10082000FFF7AEFD0120E34908700020E24908709F
:10083000E2490870E2490870E2490870E24908801C
:10084000E2490880E2490880E2490880E2490880DC
:10085000D4490870D44901980860D04900980860CC
:10086000DE480088DE4908801CBD2DE9F05F4FF0AE
:100870000008C146C246DB48D0F800B0DA48066836
:10088000D34800881430D2490880FFF793FE07460A
:10089000002F3AD0D5480078602834D1FFF796FE73
:1008A00080B34FF001080120C34908700020CA49F5
:1008B0000880C6490880CE48B0F900B0CD48B0F9EC
:1008C000006031465846FFF7B0FEF0B13146584659
:1008D000FFF7BCFE5846FFF7DBFC06280CDC304671
:1008E000FFF7D6FC062807DCC1460120B549087091
:1008F0000020B549088008E00020B2490870B249DC
:10090000088002E0FFE7B9480078B8F1000F15D180
:10091000B14800884EF66021884204DAAE4800886B
:100920001430AD490880A84800884EF660218842FE
:1009300004DAA54800881430A34908800A229848A0
:10094000016895480068FFF729FD05460A22AA4874
:1009500001689620FFF707FD0446B9F1000F02D0A9
:100960004FF0010A09E09748007830B196480088B6
:10097000B0F5967F01DC4FF0010A9148007808BB82
:100980000DB304B3BAF1000F1DD0924800884EF6A3
:100990006021884204DA8F48008814308D4908802D
:1009A000FFF71AFF8B48008840F6980188420DDB5C
:1009B00001208349087040F6980086490880D220BB
:1009C00002F080FB02E00020824908808248008813
:1009D000B0F57A7F07DD7A48007820B90C2196209F
:1009E000FFF718FD0DE07648007808B10C2000E014
:1009F0000F20034696226A48016867480068FFF79F
:100A0000EDFC6F480078E0B16B480078C8B17748DA
:100A10000078502815D16D4800884EF66021884234
:100A200004DA6A48008814306849088067480088FA
:100A3000B0F5C87F05DB012060490870D02002F0C6
:100A400041FB5E48007820B1FFF7C6FE0120BDE8FB
:100A5000F09F5F48008846F2A811884209DB5148A0
:100A6000007830B1FFF7B8FEE12002F02BFB012047
:100A7000EDE70020EBE710B54D48B0F900304B48EA
:100A8000B0F900205D480178102002F05FFB10BD36
:100A9000F8B55B4890F8380000B1F8BD5848B0F997
:100AA0004400B0F5AF6F12DD5548B0F94400B0F521
:100AB000C86F0CDA5348007830B9002052490860FA
:100AC00001F052FA4F490870FFF715FDE5E70020E5
:100AD0004C4908704A48B0F9440040F2A461884289
:100AE0001ADD4748B0F9440040F69801884213DA0D
:100AF0004648007898B94648007880B901204349B3
:100B000008704349087043490860434908604FF63C
:100B1000FF704249088002E000203C4908703C48D0
:100B2000007800B9B9E73C4800680E287CD2DFE8BD
:100B300000F00708137FC7FBFAF9F8F7F6F5F4F3AE
:100B4000CAE2FFF7D0FB022001F0ACF93249096894
:100B5000084431490860BFE2FFF7C5FBB0B101F0BE
:100B60007BFCFFF707FD25490870084600782C49F3
:100B7000087001F023FE2148007801F030FE0020CB
:100B8000284908801D48007802F09CFA01F052F9CB
:100B900021490968084448E0F4000020780000205A
:100BA000F800002072000020740000207C0000206B
:100BB0007E00002068000020690000206A000020FC
:100BC0006B0000206C0000206E00002070000020F0
:100BD00064000020660000206200002072010020F6
:100BE000600000204C010020500100207501002011
:100BF0007601002078010020D00100205E00002056
:100C0000A20B002058000020F00000205700002018
:100C10005600002058010020E4000020540000206D
:100C200055010020840000204AE2F949086053E29F
:100C3000FFF759FB88B3F74890ED000BF64880EDBD
:100C4000000B01F0EFFCFFF72CFCF44908700020CA
:100C5000F3490870F3480088F34908800020F349FD
:100C60000870F3490870F3490870F3490870F349B4
:100C70000870F3490880F3490880F3490870FFF7CA
:100C8000A5FB0C23962200210846FFF7A7FBE349AA
:100C9000097801F1A00002F015FA0C239622002138
:100CA0000846FFF79BFB4FF47A70FFF76EFC4FF49A
:100CB0007A70FFF72BFB10B10420D54908600BE2D6
:100CC000FFF711FB38B1FFF781FB0C2396220021BF
:100CD0000846FFF783FB0C23962200210846FFF706
:100CE0007DFB4FF47A70FFF750FC0A220021084682
:100CF000FFF754FB05460A22D44801689620FFF707
:100D000032FB0646B0EE080A01F06BFC044665B102
:100D10005EB154B1012109E0C4E1A1E15EE128E145
:100D2000F2E0DCE09AE03DE009E00021084619210C
:100D3000FFF7FDFA10B10520B5490860CCE1FFF7D7
:100D4000D2FA50B1FFF742FB0C239622002108464D
:100D5000FFF744FB902002F0B5F90C239622002106
:100D60000846FFF73BFB4FF47A70FFF70EFCFFF7E6
:100D700037FC18B10820A6490860ADE141F2707057
:100D8000FFF7C4FA68B101F04DFC0C239622002154
:100D90000846FFF723FB912002F094F906209C49B6
:100DA000086099E1FFF71CFC18B108209849086019
:100DB00092E19A480078FFF73DFB9949097888420B
:100DC00003DC0A209249086086E19548017893483F
:100DD0000078FFF73AFB0090FFF785FA78B1FFF74C
:100DE000F5FABDF90210BDF900000C239622FFF7B9
:100DF000F5FA8B49097801F1B00002F063F9BDF909
:100E00000210BDF900000C239622FFF7E7FA4FF419
:100E10007A70FFF7BAFBBDF90210BDF900000A2293
:100E2000FFF7BCFA05460A22884801689620FFF7BA
:100E30009AFA0646B0EE080A01F0D3FB04461DB14B
:100E400016B10CB1012100E0002108460A21FFF78C
:100E50006EFA10B107206E4908603DE1FFF7C0FB54
:100E600018B108206A49086036E16D4801786B487E
:100E70000078FFF7EAFA0090FFF735FA48B1FFF77C
:100E8000A5FABDF90210BDF900000C239622FFF768
:100E9000A5FABDF90210BDF900000C239622FFF758
:100EA0009DFA4FF47A70FFF770FB40F2DC50FFF7C9
:100EB0002DFA98B15A480078401C59490870574893
:100EC0000078FFF7B7FA56490978884203DC0A2010
:100ED0004F49086002E006204D490860FCE0FFF73A
:100EE00002FA50B1FFF772FAFFF797FC0C21962037
:100EF000FFF790FA602002F0E5F8FFF7B6FC10B1BA
:100F0000092043490860E7E0FFF7EDF970B10020E0
:100F10004F4908704F490880FFF7ADFD4C480078F5
:100F2000401C4B490870D12002F0CCF80C239622CB
:100F30004948016849480068FFF750FA444800787A
:100F4000082812DA434800881430424908800846CD
:100F5000008864280CDB00200880FFF78CFD3C48EB
:100F60000078401C3A49087002E00A2028490860CD
:100F7000B2E0FFF7B8F950B1FFF728FA0C23962238
:100F800000210846FFF72AFAC02002F09BF80C2344
:100F9000962200210846FFF721FA05220021084683
:100FA000FFF7FCF905460A22284801689620FFF75A
:100FB000DAF90646B0EE080A01F013FB04461DB14B
:100FC00016B10CB1012100E0002108461E21FFF7F7
:100FD000AEF910B10B200E4908607DE0FFF783F9F0
:100FE00038B1FFF7F3F90C23962200210846FFF7EA
:100FF000F5F90C23962200210846FFF7EFF940F29D
:10100000DC50FFF783F910B10C200149086063E060
:10101000E4000020A8010020180100205A00002050
:101020005B000020720100206000002068000020AA
:10103000690000206A0000206B0000206C00002086
:101040006E0000207000002072000020D0010020FF
:101050008000002082000020F8000020F400002022
:10106000FFF741F968B1FFF7B1F90C23962200218F
:101070000846FFF7B3F9002019490870C12002F0B3
:1010800021F81748007830B900201649086000F0B0
:101090006BFF134908701248007810B10D201249F7
:1010A000086019E0FFF71FF910B1C22002F00AF83A
:1010B00000200E4908700E4908600B4908600BE0DB
:1010C000FFF784F90C23962200210846FFF786F9E2
:1010D0000A200549086000BF00BF00BFDDE4000032
:1010E00059000020F0000020E400002056000020FD
:1010F00058010020FF20F94981F84E006421F7488B
:10110000A0F850100121A0F85210FF20F34981F8F7
:1011100080011421F148A0F882110021A0F8841167
:10112000FF20EE4981F820010021EC48A0F82211AF
:10113000A0F82411FF20E94981F832010021E74895
:10114000A0F83411A0F83611FF20E44981F83801E5
:101150000021E248A0F83A11A0F83C11FF20DF4935
:1011600081F886010021DD48A0F88811A0F88A11D5
:10117000FF20DA4981F840050021D848A0F842153F
:10118000A0F84415FF20D54981F84C050021D3482B
:10119000A0F84E15A0F85015704770B504460D46DE
:1011A0002946204605F03FF870BDCC4A1070012258
:1011B000CA4B5A707047C94A82F84C05012382F81D
:1011C0004D3570472DE9F04104460D4600260027B5
:1011D000E178A81F814201D0BDE8F081002006E03F
:1011E000215C3144CEB2B919CFB2411CC8B2A91E9C
:1011F0008142F5DC601910F8020CB04204D160198C
:1012000010F8010CB84200D0E6E72078AA2805D1F2
:101210006078612803D06078FF2800D0DCE7A078F0
:10122000202811D1A088AE490880E0884880208914
:1012300088806089C880A0890881E0894881208AE7
:101240008881608AC881CAE0A0780F280DD12079F2
:1012500040B2A4490870607940B24870A07940B2A9
:101260008870E07940B2C870B9E0A07806280CD147
:1012700020799D4948706079C870A0790871E1793A
:1012800099484171217A8171A9E0A07807280AD193
:10129000002005E0211D095C944A1154411CC8B28C
:1012A0000628F7DB9BE0A07803280AD1002005E0A0
:1012B000211D095C8E4A1154411CC8B20728F7DB76
:1012C0008DE0A07803280AD1002005E0211D095CEB
:1012D000884A1154411CC8B20928F7DB7FE0A07886
:1012E00005280AD1002005E0211D095C824A11541D
:1012F000411CC8B20928F7DB71E0A07808280AD1A0
:10130000002005E0211D095C7C4A1154411CC8B233
:101310000828F7DB63E0A078012860D0A078E028F7
:101320001ED12079012806D0022805D0102804D02B
:10133000112804D102E003E002E001E000E000BF78
:1013400000BF2079654981F80C06084680F80D66D3
:1013500080F80E7600F20C61AF20FFF726FF3EE02A
:10136000A078B0B95D4890F80F062179884236D14F
:101370005A4890F810066179884230D1574890F861
:101380001106A17988422AD10020544981F800062B
:1013900025E0A078E12811D12179607901EB0020C6
:1013A0001FFA80F84D48A0F814860021C0F81816DE
:1013B00000F21461FF20FFF7FEFE10E0A078E228A3
:1013C0000DD12079454981F80C06084680F80D6654
:1013D00080F80E7600F20C61FF20FFF7E6FE00BFFA
:1013E000FAE610B504464648007838B9AA2C05D16B
:1013F000012043490870434804708EE0404800785B
:10140000012809D1612C01D0FF2C05D102203C49D3
:1014100008703C48447080E039480078022805D1C3
:101420000320374908703748847076E034480078E4
:1014300003280CD1FA2C0ADA04203149087031480B
:10144000C4703148047000203049087065E02C48B1
:101450000078042819D12C480078002815DD2A4886
:101460000078401E284908702848007827490978E4
:10147000491C264A1170001D22490C54224800784C
:1014800058BB05201E49087047E01D480078052814
:101490000DD106201A4908701C4800781B490978AC
:1014A000491C1A4A1170001D16490C5435E01448A5
:1014B000007806282ED100201149087013480078C2
:1014C000001D10490C5411480078401D1049087047
:1014D000084601780B48FFF775FE1EE0D403002094
:1014E000FE0A002058030020600B00209700002017
:1014F000900000200E0B0020170B00209D00002004
:101500008A000020F00900208800002089000020C7
:10151000860000200020E249087010BD7CB503461B
:10152000342B4FD007DC7BB10D2B23D0302B2ED0AA
:10153000332B6FD138E0402B52D0412B5DD0E02BC4
:101540006AD0E22BF5D17BE0D64890F80C460D78B6
:10155000681C08705455D34890F80D460D78681CE7
:1015600008705455CF4890F80E460D78681C0870E6
:10157000545594E0002007E0CB4C255C0E78741C99
:101580000C709555441CE0B20428F5DB87E0002080
:1015900007E0C64C255C0E78741C0C709555441CF5
:1015A000E0B21728F5DB7AE0002008E0BF4C193CD8
:1015B000255C0E78741C0C709555441CE0B206280E
:1015C000F4DB6CE0002008E0B84CE41F255C0E78EA
:1015D000741C0C709555441CE0B20728F4DB5EE0E7
:1015E000002007E0B24C255C0E78741C0C709555F9
:1015F000441CE0B21428F5DB51E0002007E0AD4CBC
:10160000255C0E78741C0C709555441CE0B20E28B5
:10161000F5DB44E042E0FFE7A24890F801460D7890
:10162000681C08705455002007E0A34C255C0E7818
:10163000741C0C709555441CE0B20A28F5DB2EE0B2
:101640009848B0F8140600B201909DF804400D7857
:10165000681C087054559DF805400D78681C08708A
:1016600054559048D0F8180600909DF800400D7829
:10167000681C087054559DF801400D78681C08706E
:1016800054559DF802400D78681C087054559DF81B
:1016900003400D78681C0870545500E000BF00BF7F
:1016A0007CBDF8B504460F4600200090AA219DF8A5
:1016B0000020501CC0B200908048815439789DF8B9
:1016C0000020501CC0B200907C4881549DF800104E
:1016D000481CC0B200907948445400219DF8002075
:1016E000501CC0B20090754881540246694620469D
:1016F000FFF714FF9DF80000001F7049C870002517
:101700000026002007E06D49095C2944CDB271191B
:10171000CEB2411CC8B29DF800108842F3DB9DF8A0
:101720000010481CC0B20090644845549DF8001059
:10173000481CC0B20090614846545A4890F80006D0
:1017400040B1E02C06D1574880F80F4680F810567B
:1017500080F811669DF800105848FFF71EFDF8BD8F
:1017600010B5044604EB44004E4901EB40004088AC
:1017700028B304EB440001EB4000808804EB4401F3
:10178000484A02EB4101498888420CDA04EB4400E4
:10179000114601EB40008088401C04EB440102EB41
:1017A000410188800BE0012004EB44013D4A02EB3B
:1017B0004101888004EB440102EB4101487004EBD5
:1017C0004400384901EB4000407868B1002004EB48
:1017D0004401344A02EB4101487004EB440002EB3F
:1017E00040012046FFF75DFF10BD2E4A82F84005FC
:1017F000012382F8413501222A4B83F800267047E5
:1018000010B52DED028BB0EE408A00F01BF83020B1
:10181000FFF7A6FF3320FFF7A3FF3420FFF7A0FF59
:101820004020FFF79DFF4120FFF79AFFE020FFF7E0
:1018300097FFE220FFF794FF0D20FFF791FFBDEC2B
:10184000028B10BD174890F80006012821D11C48D2
:101850000078322805DA1A480078401C18490870C8
:101860001CE000201649087016480078401C1549F5
:10187000087008460078052804DA0121094880F834
:1018800041150BE000200F490870064981F8000659
:1018900004E000200A4908700A49087070470000F7
:1018A0008A000020D40300208C000020490B002077
:1018B000DC0B0020F00A0020D6090020A003002045
:1018C0008B0000208700002000B52DED028B85B035
:1018D000B0EE408AFE4890F8390000287BD1FC48E1
:1018E000B0F94200B0F5966F06DA012000F0DAFA9E
:1018F0000120F849087010E0F548B0F9420040F2C4
:10190000A461884206DA022000F0CCFA0220F149F4
:10191000087002E0022000F0C5FAED48B0F93A0084
:10192000A0F2DC5000EE900AF8EEE00AB0EE600A99
:101930009FEDE91ADFEDE90A02F028FD8DED010ABD
:10194000E348B0F93C00A0F2DC5000EE900AF8EE5B
:10195000E00AB0EE600A9FEDE01ADFEDE00A02F067
:1019600015FD8DED020ADA48B0F93E00A0F2DC5018
:1019700000EE900AF8EEE00AB0EE600A9FEDD81A89
:10198000DFEDD60A02F002FD8DED030AD048B0F972
:101990004000A0F2DC5000EE900AF8EEE00AB0EE53
:1019A000600A9FEDCF1ADFEDCD0A02F0EFFC8DED5E
:1019B000040ACC48007858B19FEDC80A8DED010AA1
:1019C0009FEDC60A8DED020A9FEDC40A8DED040A53
:1019D0009DED010A00E053E0DFEDC30A20EE200A8E
:1019E000DFEDC20A20EE200ABDEEC00A10EE100A9A
:1019F00000B2BF4908809DED020AB1EE400ADFED5A
:101A0000BA0A20EE200ADFEDB90A20EE200ABDEE68
:101A1000C00A10EE100A00B24880AD48C08FA0F591
:101A20007A7000B288809DED040AB1EE400ADFEDC5
:101A3000B10A20EE200ADFEDB00A20EE200ABDEE4A
:101A4000C00A10EE100A00B2C880AC4800884042BC
:101A500000B2C880AA48008800B20881A94800885E
:101A600000B24881A848008800B288810121A748B7
:101A700080F887110020A6490870A64908701EE06A
:101A8000A548C07878B1A248007828B9032000F0B2
:101A900009FA9F49087006E09E48007818B900F0DE
:101AA00029FA9C49087000209149088048804FF429
:101AB000AF7088800020C88088814881088105B087
:101AC000BDEC028B00BD10B504469448008800EEC2
:101AD000100AB8EE400ADFED920A20EE200ABDEEB1
:101AE000C00A10EE100A00B28E4908808B48408868
:101AF00000EE100AB8EE400ADFED890A20EE200A57
:101B0000BDEEC00A10EE100A00B2488083488088FB
:101B100000EE100AB8EE400ADFED810A20EE200A3E
:101B2000BDEEC00A10EE100A00B288807B48C08863
:101B300000EE100AB8EE400ADFED790A20EE200A26
:101B4000BDEEC00A10EE100A00B2C88073480089CA
:101B500000EE100AB8EE400ADFED710A20EE200A0E
:101B6000BDEEC00A10EE100A00B208816B48408931
:101B700000EE100AB8EE400ADFED690A20EE200AF6
:101B8000BDEEC00A10EE100A00B248816348808999
:101B900000EE100AB8EE400ADFED610A20EE200ADE
:101BA000BDEEC00A10EE100A00B288815B48C08901
:101BB00000EE100AB8EE400ADFED590A20EE200AC6
:101BC000BDEEC00A10EE100A00B2C8815648007877
:101BD00018B901205449087027E0E4B1002017E04B
:101BE000504931F91010002901DC00210BE04D496A
:101BF00031F91010B1F57A7F02DD4FF47A7102E00D
:101C0000484931F91010474A22F81010411CC8B257
:101C10000828E5DB09E0002005E00021414A22F820
:101C20001010411CC8B20828F7DB3E4803F0E9FC5D
:101C300010BD10B503F0A4FADFED3C0A20EE200A37
:101C4000BCEEC00A10EE100A3949088010BD10B56C
:101C500038480088401C37490880084600880A2117
:101C600090FBF1F201FB120032490880084600881F
:101C700010BB9FED310A02F0F2F89FED2F0AFFF73B
:101C800023FE9FED2D0A00F09BFB9FED2B0A02F037
:101C9000B7FD28484088401C2649488008464088AF
:101CA0000A2190FBF1F201FB12002249488008460C
:101CB000408808B9FFF7BDFF04F034FB012002F0B3
:101CC0003FFF9FED1E0A00F043F89FED1C0A37E02E
:101CD000A20B0020B0000020000020420000000005
:101CE0000000A042C20000208F360E3B00C05A45C3
:101CF000F00A0020C6F91B3B00004843D800002032
:101D0000CC000020D0000020D4000020D40300200C
:101D1000AE000020AF000020600B0020FE0A002073
:101D2000CDCCCC3D200B0020B60000200000C842E6
:101D30008C000020B80000200AD7233C6F12833AA1
:101D4000FFF75EFD0120FFF7BEFE03F0BAFA10BDFB
:101D500010B52DED028BB0EE408A00F020F800BFE8
:101D60002D4840782D490978884214D02A48407877
:101D70002A49087000202A4988744FF4877128483E
:101D8000A0F813102448C1692548C0F81510012196
:101D9000244880F8391100BFBDEC028B10BD2248E9
:101DA0000078FF2804D020480078401C1E490870A5
:101DB000194800781D490978884216D016480078DD
:101DC0001A4908701448007A50B11348C07838B1E5
:101DD00011484089124908800F488089488004E0F2
:101DE0004FF400400E49088048800B484078104965
:101DF000097888420ED0084840780D4908704FF4A1
:101E00000040074988800121064880F833110020EE
:101E10000549087070470000100C0020BF0000202A
:101E2000300B0020D4030020BE000020BC000020A6
:101E3000BD00002010B50120CB498870CB4890F838
:101E4000000688B91020C94981F801060021C74859
:101E500080F80216012180F8031600F20161FF20CC
:101E6000FFF7C3FC012010BD0020FCE710B50020E7
:101E7000BD498870BD4890F8000688B91020BB495C
:101E800081F801060021B94880F80216022180F885
:101E9000031600F20161FF20FFF7A7FC012010BD2F
:101EA0000020FCE710B50446B1480078A0421FD0DE
:101EB000AE4890F80006C8B9AB480470AC4804704E
:101EC0000120AA4981F801060121A84880F80216DC
:101ED00080F80316A4480178A44880F8041600F29C
:101EE0000161FF20FFF781FC012010BD0020FCE70D
:101EF0000120FAE710B59D4890F8000688B9102037
:101F00009A4981F801060021984880F802160721B5
:101F100080F8031600F20161FF20FFF766FC012044
:101F200010BD0020FCE701B5904890F80006C8B944
:101F300010208E4981F8010600218C4880F8021695
:101F4000052180F803169DF8001080F804169DF80E
:101F5000011080F8051600F20161FF20FFF745FC33
:101F6000012008BD0020FCE710B5804890F800066D
:101F700088B910207D4981F8010600217B4880F84E
:101F80000216062180F8031600F20161FF20FFF718
:101F90002CFC012010BD0020FCE707B5734890F829
:101FA000000648BB1020714981F8010602216F48E4
:101FB00080F80216032180F803169DF8001080F8BF
:101FC00004169DF8011080F805169DF8041080F89D
:101FD00006169DF8051080F807169DF8081080F881
:101FE00008169DF8091080F8091600F20161FF201B
:101FF000FFF7FBFB01200EBD0020FCE713B55B489B
:1020000090F8000608BB1020584981F8010602210B
:10201000564880F80216072180F803169DF8001034
:1020200080F804169DF8011080F805169DF804103C
:1020300080F806169DF8051080F8071600F2016179
:10204000FF20FFF7D2FB01201CBD0020FCE713B5E9
:10205000464890F8000608BB1020444981F8010664
:102060000221424880F80216082180F803169DF8E4
:10207000001080F804169DF8011080F805169DF8F0
:10208000041080F806169DF8051080F8071600F277
:102090000161FF20FFF7A9FB01201CBD0020FCE728
:1020A00010B5324890F8000688B901202F4981F810
:1020B000010600212D4880F80216032180F803163E
:1020C00000F20161FF20FFF790FB012010BD00200E
:1020D000FCE710B5254890F8000688B9012023498F
:1020E00081F801060021214880F80216042180F8B9
:1020F000031600F20161FF20FFF777FB012010BDFE
:102100000020FCE710B5194890F8000688B90120B6
:10211000164981F801060021144880F802160521AD
:1021200080F8031600F20161FF20FFF75EFB01203B
:1021300010BD0020FCE710B50C4890F8000688B9E7
:1021400001200A4981F801060021084880F802169A
:10215000022180F8031600F20161FF20FFF745FB22
:10216000012010BD0020FCE7600B0020D4030020FC
:10217000C000002010B504469848B0F94000B0F502
:10218000AF6F0BDD9548B0F94000B0F5C86F05DAC8
:102190000120934948709349087002E0002090495B
:1021A00048708E48B0F93E00B0F5966F06DA8C485C
:1021B000407818B901208A49087002E00020884957
:1021C00008708848007801284AD18748C0780028DC
:1021D00053D18248B0F93A0040F26C71884210DD68
:1021E0007E48B0F93C0040F24C41884209DA7B4815
:1021F000B0F93E00884204DA7848B0F940008842DD
:1022000017DB7648B0F9400040F26C71884230DD4F
:102210007248B0F93C0040F24C41884229DA6F48DC
:10222000B0F93E00884224DA6C48B0F93A0088429E
:102230001FDA6E480088B0F57A7F12DAD4ED000A12
:102240006A48008800EE100AB8EE400A9FED681A4E
:1022500000EE810ABCEEC00A10EE100A6349088045
:1022600062E0FFF7E7FD0020604908805D490870E3
:102270005AE000205D49088056E05B48C07801289C
:1022800052D15648B0F93A0040F26C71884210DDE4
:102290005248B0F93C0040F24C41884209DA4F48BC
:1022A000B0F93E00884204DA4C48B0F94000884258
:1022B00017DB4A48B0F9400040F26C71884230DDCB
:1022C0004648B0F93C0040F24C41884229DA434884
:1022D000B0F93E00884224DA4048B0F93A0088421A
:1022E0001FDA42480088B0F5967F12DAD4ED000A72
:1022F0003E48008800EE100AB8EE400A9FED3C1AF6
:1023000000EE810ABCEEC00A10EE100A37490880C0
:102310000AE0FFF7ABFD002034490880314908701E
:1023200002E000203149088010BD10B52E48C07869
:10233000002844D12948B0F9400040F24C4188427D
:1023400017DA2648B0F93C00884212DA2348B0F97F
:102350003E0088420DDA2148B0F93A00884208DA96
:102360002448007838BBFFF79BFE01202149087004
:1023700025E01A48B0F9400040F26C7188421BDD3C
:102380001648B0F93C0040F24C41884214DA134838
:10239000B0F93E0088420FDA1048B0F93A0040F236
:1023A0006C71884208DD1348007820B9FFF791FE70
:1023B00001201049087002E000200E49087010BD8D
:1023C00010B52DED020B054890F8390020B968468C
:1023D000FFF7D0FEFFF7A9FF1CBD0000A20B0020F5
:1023E000C2000020C6000020600B0020C4000020B6
:1023F00000007A44C70000200021CF4A1160CF4A74
:102400001160CF4A1160CF4A1160CF4A1160012894
:1024100006D0022805D003280BD0042819D110E0DB
:1024200000BF0121C74A1160C34A1160C34A11604D
:1024300010E00121C34A1160BF4A1160C04A116017
:1024400008E00121BF4A1160BB4A1160BE4A116019
:1024500000E000BF00BF70470020BC490860BC49D5
:102460000860704710B50446B8480068A04205DA15
:10247000B64800681430B54908600AE00020B34946
:102480000860102000F01EFEB2480068401CB149F0
:10249000086010BD05E0DFEDB00A70EE600AB0EE36
:1024A000600ADFEDAE0AB4EEE00AF1EE10FAF2DCFB
:1024B00005E0DFEDA90A70EE200AB0EE600ADFED5C
:1024C000A80AB4EEE00AF1EE10FAF2D9704700B5AE
:1024D00000EE100AB8EEC00AFFF7DCFFBDEEC00A3E
:1024E000A04981ED000A00219F4A117000BD10B57E
:1024F0002DED028B9D4890ED000B51EC100B0CF074
:1025000017F908EE100AB0EE480AFFF7C3FFBDEE58
:10251000C00A944880ED000A002093490870BDEC81
:10252000028B10BD10B52DED048B044620460CF037
:102530008BF841EC190B8D4890ED000B53EC102BF0
:1025400051EC190B0BF0F8FE41EC180B0CF08DF868
:1025500084490860012084490870BDEC048B10BDDB
:1025600010B50446002C00DA64426042FFF7DAFF3F
:1025700010BD10B50446002C00DA64422046FFF777
:10258000D1FF10BD10B52DED028B774800780128E2
:1025900012D1764890ED000B51EC100B0CF0C8F8FE
:1025A00000EE100A6F48D0ED000AF8EEE00A30EEB7
:1025B000C00ABDEC028B10BD6C4890ED000B51ECD5
:1025C000100B0CF0B5F800EE100A6648D0ED000ACA
:1025D000F8EEE00A30EEC00AB0EE408AFFF75AFF8C
:1025E000E7E710B52DED028BB0EE408AFFF7CAFF8A
:1025F000F0EE408AF4EEC88AF1EE10FA0AD2B1EE9B
:10260000480AF4EEC08AF1EE10FA03DD0120BDECB9
:10261000028B10BD0020FAE700205549086055499B
:1026200008607047002054490860544800685449C5
:102630000860544800685449086070470146504893
:102640000068081A704701464F480068081A70472A
:102650000D286DD2DFE800F0070D151E272F37403B
:10266000484F565E66000021484A1160484A116092
:102670005FE04FF4D771454A11600A21444A116066
:1026800057E04FF4D771414A11604FF4B971404A95
:1026900011604EE04FF4AA713C4A11604FF4B971D9
:1026A0003B4A116045E04FF4AA71384A116050214D
:1026B000374A11603DE04FF48771344A1160502170
:1026C000334A116035E04FF48771304A11604FF49E
:1026D000B9712F4A11602CE0C8212C4A11604FF4C7
:1026E000B9712B4A116024E0C821284A1160502199
:1026F000274A11601DE08221244A11605021244A9A
:10270000116016E08221214A11604FF4B971204A0C
:1027100011600EE000211D4A11604FF4B9711C4A8E
:10272000116006E00021194A1160194A116000E0A9
:1027300000BF00BF70470000280100202C010020CE
:10274000340100203001002038010020E800002082
:10275000EC000020E40000200000B44300003443FB
:10276000000034C3FC0000204801002020010020AC
:10277000DC000020E000002044010020DC010020FB
:102780003C010020E001002040010020F400002076
:10279000F80000200146CA2903D0CB2901D0CC295A
:1027A00001D1012070470020FCE70146502901D0EB
:1027B000602901D1012070470020FCE75020F94931
:1027C00008700020F8490860F84908605020F8496E
:1027D00008700020F7490880F7490880704710B555
:1027E00004462046FFF7D6FF00B910BD204600F092
:1027F000E7FC00BFF9E72DE9F04104460F46082F3A
:1028000003D04FF0FF30BDE8F0812078BB2808D11D
:102810006078102805D1A078F12802D16079EE28DF
:1028200002D04FF0FF30EEE7E6782579102E13D175
:10283000052D0ED2DFE805F0030507090B00002087
:10284000E1E70120DFE70220DDE70320DBE70420EA
:10285000D9E74FF0FF30D6E7202E15D12846FFF7F5
:1028600099FF10B94FF0FF30CDE7D44805705020E4
:10287000CC4908700020CC490860CC490860284643
:10288000FFF7ADFF1420BEE74FF0FF30BBE72DE9A7
:10289000F0410446CA480078082876D2DFE800F004
:1028A0000415293D49556976BB2C0DD10020C54939
:1028B0000870084601780078401CC24A1070C2486F
:1028C00044540120BE490870A1E0102C0BD1BD4832
:1028D00001780078401CBB4A1070BB484454022069
:1028E000B749087004E00020B5490870B549087080
:1028F0008DE0F12C0BD1B34801780078401CB14A2F
:102900001070B14844540320AD49087004E0002021
:10291000AB490870AB49087079E0AA4801780078A3
:10292000401CA84A1070A84844540420A4490870C8
:102930006DE0A44801780078401CA24A1070A248BB
:10294000445405209E49087061E0EE2C0BD19D484F
:1029500001780078401C9B4A10709B484454062024
:102960009749087004E0002095490870954908705F
:102970004DE0944801780078401C924A10709248CB
:10298000445407208E49087041E03AE00026B046E2
:102990008C4801780078401C8A4A10708A48445458
:1029A000002709E08848C05D3044C6B208EB060045
:1029B00000F0FF08781CC7B2062FF3DB824880794D
:1029C000B04215D18048C079404511D108217E48D8
:1029D000FFF711FF0546002D04DB052D02DA7B48C9
:1029E000056008E0002D06DADD2000F06BFB02E058
:1029F000DF2000F067FB0020714908707149087002
:102A000005E000206E4908706E49087000BF00BFE5
:102A1000BDE8F081024641EA022000B270472DE98C
:102A2000F05F04468846B8F10F0F03D04FF0FF3037
:102A3000BDE8F09F2078AA2802D1A07B0A2802D006
:102A40004FF0FF30F4E76078012802DB607803285C
:102A500002DD4FF0FF30EBE7E178A078FFF7DAFF17
:102A6000064661792079FFF7D5FF0746E179A0791D
:102A7000FFF7D0FF8146617A207AFFF7CBFF8246CD
:102A8000E17AA07AFFF7C6FF8346617B207BFFF7E0
:102A9000C1FF054660784E4908704E4806804E4892
:102AA00007804E48A0F800904D48A0F800A04D487F
:102AB000A0F800B04C48058070424C49086078424C
:102AC0004B49086000EE105AB8EEC00ABDEEC00ACD
:102AD000484880ED000A0020AAE710B50446AA2C59
:102AE00011D14548007870B100204449087008466B
:102AF00001780078401C414A10704148445401203C
:102B00003D49087010BD3C4800780F2849D2DFE8E5
:102B100000F008192F303132333435363738393A2E
:102B20007900AA2C0DD1002034490870084601789C
:102B30000078401C314A10703148445401202E491D
:102B4000087095E0012C0DDB032C0BDC2B48017881
:102B50000078401C294A1070294844540220264914
:102B6000087004E0002025490870234908707FE0C0
:102B700000BF00BF00BF00BF00BF00BF00BF00BF5D
:102B800000BF00BF00BF1D4801780078401C1B4AF1
:102B900010701B48445418480078401C16490870AF
:102BA00066E05FE0540100204C010020500100204D
:102BB00075010020760100207801002055010020D9
:102BC0007A010020830100207B01002058010020B1
:102BD0006401002066010020680100206A010020D5
:102BE0006C0100206E01002070010020DC0100203B
:102BF000E0010020E4010020840100208501002084
:102C00006B0B0020DE4801780078401CDC4A107015
:102C1000DC484454104600780F2817D1D948007872
:102C2000AA2813D1D748807B0A280FD10F21D54875
:102C3000FFF7F5FE18B90120D34908700CE0002019
:102C4000D1490870DE2000F03DFA05E00020CE49B1
:102C50000870DE2000F036FA0020C9490870CB4920
:102C6000087005E00020C9490870C549087000BF18
:102C700000BF00BF46E738B50446C5A00068009015
:102C80000221684602F0B0FF38BDC249096829B97F
:102C90000A2803D10121BF4A116034E0BD49096807
:102CA000012905D1BC4908700221BA4A11602AE005
:102CB000B8490968022905D1B84908700321B54A05
:102CC000116020E0B3490968032905D1B4490870AF
:102CD0000421B04A116016E0AE490968042905D103
:102CE000B04908700521AB4A11600CE0A949096898
:102CF000052905D1AC4908700021A64A116002E0FF
:102D00000021A44A1160A4490978A84A11801146FB
:102D10000988012946D1A2490978A54A118011469E
:102D20000978090209B211801146B1F900109B4AD5
:102D3000127811439E4A11809B4909789D4A11805F
:102D400011460978090209B211801146B1F9001043
:102D5000944A12781143974A11809549B1F90010AD
:102D600000EE101AB8EEC00AF6EE080A20EE200AAD
:102D7000BDEEC00A10EE101A09B28D4A11808D49BD
:102D8000B1F9001000EE101AB8EEC00AF6EE080A0B
:102D900020EE200ABDEEC00A10EE101A09B2854AD4
:102DA000118004E00021824A1180824A118070471C
:102DB00038B5044676A0006800900221684603F00A
:102DC00034F838BD2DE9F04704468946B9F10A0FB9
:102DD00002D00020BDE8F0872078BB2802D1607ABD
:102DE000FF2801D00020F5E76678A5783046FFF788
:102DF000D1FC18B12846FFF7D8FC08B90020E9E754
:102E0000E07810B1E078012804D1A07920B1A07950
:102E1000012801D00020DDE767480078FFF7BAFC01
:102E200028B165480078864201D00020D2E7607959
:102E3000217940EA012007B2207AE17940EA0120B5
:102E40000FFA80F8E078012801D1784207B2A07922
:102E5000012803D1C8F100000FFA80F85748057027
:102E60005748067057480570574807805748A0F8DC
:102E70000080602D05D1564807605648C0F8008094
:102E800004E0002052490860524908605248008816
:102E9000401C5149088001209CE710B50446BB2C1A
:102EA00011D14E48007870B100204D490870084695
:102EB00001780078401C4A4A10704A484454012066
:102EC0004649087010BD454800780A284ED2DFE810
:102ED00000F005161718191A1B1C1D2BBB2C0DD141
:102EE00000203F490870084601780078401C3C4AA1
:102EF00010703C4844540120384908703CE000BF41
:102F000000BF00BF00BF00BF00BF00BF3448017852
:102F10000078401C324A1070324844542F480078E0
:102F2000401C2E49087027E02D4801780078401C8D
:102F30002B4A10702B484454104600780A280CD1B4
:102F400028480078BB2808D12648407AFF2804D1B9
:102F50000A212448FFF736FF02E0DE2000F0B2F835
:102F600000201F4908701D49087005E000201B491A
:102F700008701B49087000BF00BF00BFA2E7000037
:102F8000850100206B0B00205C01002084010020E3
:102F9000010A0000880100208C0100208D01002022
:102FA0008E0100208F010020900100205E01002092
:102FB0006001002062010020550100205401002022
:102FC00074010020750100207601002078010020A6
:102FD0004C010020500100207201002091010020CE
:102FE000920100207A0B00207FB50024BB222146ED
:102FF000641C7D48425410222146641C4254F12234
:103000002146641C425408222146641C42549DF807
:1030100000202146641C42549DF801202146641C76
:1030200042549DF804202146641C42549DF805201A
:103030002046611CCCB26C490A549DF808202146F8
:10304000601CC4B2684842549DF809202046611CA7
:10305000CCB265490A549DF80C202046611CCCB2C4
:1030600061490A549DF80D202046611CCCB25E498E
:103070000A54EE222046611CCCB25B490A5400255A
:103080000026002007E05849095C2944CDB2711997
:10309000CEB2411CC8B25449C978491D8142F2DC04
:1030A0002046611CCCB250490D542046611CCCB264
:1030B0004D490E540846C078C01DC1B24A4802F0BE
:1030C0009FFC7FBDF1B50024BB222146641C46480D
:1030D000425410222146641C4254F1222146641CB1
:1030E000425402222146641C42549DF8002021468D
:1030F000641C42549DF801202146641C4254EE2277
:103100002146641C425400250026002007E0364971
:10311000095C2944CDB27119CEB2411CC8B2324902
:10312000C978491D8142F2DC2046611CCCB22E498F
:103130000D542046611CCCB22B490E540846C07871
:10314000C01DC1B2284802F05BFCF8BD2DE9F04774
:1031500005460E461746984600241FFA87F91FFABF
:1031600088FAAA222146641C1F484254BB222146E9
:10317000641C42542146641C45542146641C465438
:103180004FEA19222146641C42542146641C00F86F
:1031900001904FEA1A222146641C42542046611CC9
:1031A000CCB2114901F800A0FF222046611CCCB22C
:1031B0000D490A5409210C4802F022FCBDE8F087B1
:1031C00070B505460024BB222146641C06484254C3
:1031D0002146641C4554FF222146641C42540321AD
:1031E00002F023FE70BD0000840B002010B52DED11
:1031F000048B5E49B1F900000BF026FA41EC180B84
:103200009FED5B0B53EC102B0BF0AFF95A4A03C246
:103210005649B1F902000BF017FA41EC180B9FED7B
:10322000540B53EC102B0BF0A0F9544A03C24F4936
:10323000B1F904000BF008FA514A03C29FED510B9B
:1032400053EC102B514890ED000B51EC100B0BF090
:1032500057FA18D29FED4E0B53EC102B484890EDC7
:10326000000B51EC100B0BF033FA0CD29FED4A0B14
:1032700053EC102B4A4890ED000B51EC100B0BF067
:103280005BF8474A03C29FED420B53EC102B3F48BB
:1032900090ED000B51EC100B0BF01AFA18D29FEDC9
:1032A000390B53EC102B364890ED000B51EC100B02
:1032B0000BF026FA0CD29FED380B53EC102B38484C
:1032C00090ED000B51EC100B0BF0D7F8344A03C211
:1032D0009FED270B53EC102B294890ED000B51EC80
:1032E000100B0BF042F941EC180B9FED2E0B53EC39
:1032F000102B2B4890ED000B51EC100B0BF0C3F88A
:1033000041EC190B53EC182B0BF016F8274A03C2AB
:103310001B4890ED000B1D4880ED000B244890EDFC
:10332000000B53EC102B214890ED000B51EC100BCF
:103330000BF0A3F81F4A03C21F48B0F918001F4939
:1033400008601D48B0F91A001D4908601D48008832
:103350001D4908801B4840881C4908801C4840685B
:103360001C490860BDEC048B10BD000090000020DB
:10337000000000000000594098010020A00100203A
:10338000B0010020000000000094C140B8010020FE
:10339000000000000094C1C0000000000000F03FE9
:1033A000C00100200000000000807640A80100203D
:1033B0001801002020010020100C0020D401002062
:1033C000D801002097000020C8010020CA01002079
:1033D000170B0020D00100200146002901DB084620
:1033E00070474842FCE7884201DD084603E04A4254
:1033F000904200DA484270470146052901DA05206B
:103400007047322901DD3220FAE70846F8E710B5A7
:1034100004462046FFF7F0FFFE49086010BD10B5D6
:1034200004462046FFF7E8FFFB49086010BD10B5D1
:1034300004462046FFF7E0FFF849086010BDF54854
:1034400000687047F44800687047F44800687047A7
:1034500030B503460C46181B00EB400514212846E6
:10346000FFF7C1FF30BD2DE9F04F2DED108B87B078
:10347000B0EE408AF0EE608AB0EE419AF0EE619ACA
:1034800005460E4617469946DDE921B8E81B069029
:10349000A6EB0900059005980BF0D6F841EC1E0B41
:1034A00005980BF0D1F841EC1F0B53EC1E2B0AF0E2
:1034B000EAFF41EC1C0B06980BF0C6F841EC1E0B22
:1034C00006980BF0C1F841EC1F0B53EC1E2B0AF0D1
:1034D000DAFF41EC1D0B53EC1C2B0AF02DFF41ECE5
:1034E0001B0B0BF025F90AEE100AB0EE4A0A00F0A9
:1034F00037FEBDEEC00A10EE104A002C0BDC002097
:10350000CBF80000C8F80000C549086007B0BDEC62
:10351000108BBDE8F08F20460BF096F841EC1B0BAA
:1035200053EC182B0AF0AFFF41EC1A0B0BF09DF88F
:103530008246BB490968601A0BF086F841EC1B0B08
:1035400053EC192B0AF09FFF41EC1A0B0BF08DF88E
:103550000490B34804600498504403902099039861
:10356000FFF741FF039020460BF06EF841EC1B0B78
:1035700006980BF069F841EC1D0B03980BF064F80A
:1035800041EC1E0B53EC1D2B0AF07DFF41EC1C0B94
:1035900053EC1B2B0AF0E9FF41EC1A0B0BF065F81A
:1035A000029020460BF050F841EC1B0B05980BF0F5
:1035B0004BF841EC1D0B03980BF046F841EC1E0B49
:1035C00053EC1D2B0AF05FFF41EC1C0B53EC1B2B43
:1035D0000AF0CBFF41EC1A0B0BF047F80190209951
:1035E0000298FFF700FFCBF8000020990198FFF741
:1035F000FAFEC8F8000000BF88E72DE9F04F2DED76
:10360000048B87B007460E4690469946B8F1140FD2
:1036100001DD142000E040460690B8F1120F01DDF4
:10362000122000E0404605903846FFF7D5FE009096
:103630000BF00AF841EC180B9FED7A0B53EC102BB2
:103640000BF046F800D800273046FFF7C5FE009083
:103650000AF0FAFF41EC180B9FED720B53EC102BA4
:103660000BF036F800D800263C4635466F48007807
:1036700030B96F4804606F48056001206B490870DD
:103680006B480068A4EB000A6A480068A5EB000BD1
:10369000674804606748056020460AF0D5FF41ECA2
:1036A000190B654890ED000B53EC102B51EC190BE6
:1036B0000AF0E9FE41EC180B0AF0D7FF0490284607
:1036C0000AF0C2FF41EC190B5C4890ED000B53EC83
:1036D000102B51EC190B0AF0D6FE41EC180B0AF036
:1036E000C4FF039050460AF0AFFF41EC190B544859
:1036F00090ED000B53EC102B51EC190B0AF0C3FEAC
:1037000041EC180B0AF0B1FF029058460AF09CFFFA
:1037100041EC190B4B4890ED000B53EC102B51EC86
:10372000190B0AF0B0FE41EC180B0AF09EFF019055
:1037300008210298FFF757FE029008210198FFF731
:1037400052FE0190029A049988180699FFF74BFEE1
:10375000C9F80000019A039988180599FFF743FEFC
:10376000149908601FB916B900203049087007B0D5
:10377000BDEC048BBDE8F08F70B52DED088B0446D1
:10378000B0EE409AF0EE609A2F48007801280CD1F4
:1037900051EC190B0AF0CCFF00EE900A00EE104A33
:1037A000B8EEC00A30EE608A11E051EC190B0AF055
:1037B000BFFF00EE900A00EE104AB8EEC00A30EEED
:1037C000600AF0EE408AFEF765FEB0EE408A1F48C0
:1037D00090ED000AB8EEC00AB4EEC08AF1EE10FA1D
:1037E0000ED290ED000AB8EEC00AB1EE400AB4EE77
:1037F000C08AF1EE10FA03DD9FED150AB0EE408AA3
:1038000018EE100A0AF050FF41EC1B0B114890ED26
:10381000000B21E0680200206C02002070020020F2
:1038200074020020000000000000E03F8002002041
:10383000780200207C020020380200204002002094
:1038400048020020500200204801002060020020B1
:10385000000000005802002053EC102B51EC1B0B11
:103860000AF011FE41EC1A0B0AF0FFFE0546724801
:1038700001682846FFF7B7FDBDEC088B70BD70B539
:1038800004460D4629462046FFF7E2FD6B490860D5
:1038900070BD2DE9F0412DED048B86B0B0EE408A6D
:1038A000F0EE608AB0EE419AF0EE619A04460D4661
:1038B00016461F46DDF8408000200590049004A8BD
:1038C00005A93B463246CDE90081029029462046B3
:1038D000B0EE491AF0EE691AB0EE480AF0EE680A46
:1038E000FFF7C1FD564905980860564904980860DD
:1038F00006B0BDEC048BBDE8F081FEB504460D4674
:10390000164600200290019001A802AB32462946DB
:1039100000902046FFF771FE494902980860494926
:1039200001980860FEBD10B52DED028B0446B0EE87
:10393000408AF0EE608AB0EE480AF0EE680A20464F
:10394000FFF71AFF40490860BDEC028B10BDF0B5CF
:1039500085B0002004900390002400253B480068B7
:1039600030B13B4801683B480068FFF771FD0446F1
:1039700039480068B0B103A904A8384A1268CDE9F3
:1039800000200291364803683648026836480168CC
:1039900036480068364E96ED001B364E96ED000B0D
:1039A000FFF761FD3448006808B334480068FEF74B
:1039B00045FE064632480068FEF745FE074603A866
:1039C00004A9304A12683B46CDE9002102903246F4
:1039D0002548016825480068DFF8ACC09CED001B55
:1039E000DFF8A8C09CED000BFFF73DFD00BF2848A5
:1039F000006850B103A804AB00902648026826482E
:103A0000016826480068FFF7F8FD2548006838B1CE
:103A1000244890ED000B24480068FFF7ADFE0546F2
:103A20000749049808600749039808600348046040
:103A30000548056005B0F0BD64020020D4000020F8
:103A4000CC000020D0000020D80000202801002059
:103A5000D0010020F00000202C010020680200208E
:103A6000D8010020D4010020F8000020F40000203C
:103A7000F8010020E801002038010020DC010020CE
:103A8000E00100206C020020180200200802002043
:103A90003401002070020020500100204C01002061
:103AA0003001002020010020FC00002010B501F0B2
:103AB000F3FD0120F84981F8380081F8390010BD84
:103AC00010B501F0C5FA642001F0B6FA01F098FBD8
:103AD00001F024FC642001F0AFFA4FF4E13001F072
:103AE00014FF4FF4E13002F00AF84FF4E13002F035
:103AF00000F9EA4802F01EFAE84802F004FB6420EC
:103B000001F09AFAFFF7D2FF01F0E6FA642001F023
:103B100093FAFDF7EFFA4FF4487001F08DFA01F0D7
:103B2000B4F801F0E3FE012010BD40F6C411884254
:103B300003DDDB490978032903DCD94909780A291F
:103B40000DD10021D64A1170D349B1F84E10491C4D
:103B5000D14AA2F84E10012182F8501012E0B0F5BF
:103B6000967F0FDD40F6B83188420BDA02B2CA49BF
:103B7000891CCB4B1B7821F81320C9490978491CB3
:103B8000C74A1170704738B50446C6A00068009057
:103B9000C5484068C449086001F023FAC24948603A
:103BA000084640680968401A40F6C411884202D9A4
:103BB0000020BE490870BD4801780078401CBB4A0F
:103BC0001070BB4844541046007819287ED1182044
:103BD00011460870B64800780F2878D1B448007EA6
:103BE00038B1B348007EB34A12781DF802108842FB
:103BF000F3D10020AD490870AD484078AC498978D0
:103C000001F0070140EA0120A3498882A848C07852
:103C10008006400DA649897840EAE1009E49C882A5
:103C2000A3484079C007400DA149097940EA8100C5
:103C30009F49C97840EAA110974908839C48807938
:103C40000007400D9A49497940EA6100924948834A
:103C50009748C0794006400D9549897940EA21107E
:103C60008D4988839248407A8007400D9049097AAF
:103C700040EA41008E49C97940EAE1108649C8838B
:103C80008B48807AC006400D8949497A40EAA100F4
:103C9000814908848648C07AC0008549897A40EA0B
:103CA00061117D4841848248007B8149497B01F054
:103CB000070140EA0120784988847D48807B80069E
:103CC000400D7B49497B40EAE10001E072E067E09A
:103CD0007149C8847648007CC007400D7449C97B8F
:103CE00040EA81007249897B40EAA1106A4908854F
:103CF0006F48407C0007400D6D49097C40EA610037
:103D0000654948856A48807C4006400D6849497C81
:103D100040EA2110604988856548007D8007400D94
:103D20006349C97C40EA41006149897C40EAE1106D
:103D30005949C8855E48407DC006400D5C49097DF3
:103D400040EAA100544908865948807DC00058497E
:103D5000497D40EA6111504841865548C07D4E4931
:103D600081F83400084690F8340000F0080040B9AB
:103D70000846B0F84E00401CA1F84E00022081F821
:103D800050004C480078401C4A4908700878C11718
:103D900000EB91718910A0EB8101464A117009E096
:103DA000002005E0424A411C515C1154411CC8B23C
:103DB0001828F7DB38BD10B50446D4ED000A3E489C
:103DC000008800EE100AB8EE400A9FED3C1A00EEA3
:103DD000810ABCEEC00A10EE100A37490880084676
:103DE0000088B0F57A7F39DD002008802A48B0F8D5
:103DF0004E002949C8860846C08E052803DA0120EE
:103E000081F8380003E00020234981F83800224877
:103E100090F83800C8B120480078D8B92848007810
:103E2000401C27490870087800EBD0714910A0EBBE
:103E30004101234A117010460078012802D101F097
:103E4000ACFC07E001F028FC04E0134890F85000B7
:103E50001149087000201049A1F84E0010BD10B59E
:103E60002DED020B6846FFF7A6FF0B4890F83800CF
:103E700000286AD108480078012823D1002008E0F2
:103E80000549891C31F81020383121F81020411CD7
:103E9000C8B20A28F4DB38E0A20B002020A10700FA
:103EA00084020020041424348802002090020020A0
:103EB000F40B0020910200209402002000007A44BC
:103EC000920200202B48007802281ED100201AE020
:103ED0002849143131F91010A1F5806100EE101A53
:103EE000F8EEC00A9FED240A9FED241A01EE200A85
:103EF000BDEEC00A10EE101A0AB21E493A3121F87E
:103F00001020411CC8B20A28E2DB1A48B0F942006E
:103F1000B0F5966F05DD1748B0F94200B0F5AF6F08
:103F20000BDB1448B0F94200B0F5C86F09DD114849
:103F3000B0F94200B0F5E16F03DA012010490870D2
:103F400011E000200E4908700DE001200C490870B6
:103F5000002006E0002207493A3121F81020411CD8
:103F6000C8B20A28F6DB06480078024981F8390011
:103F70001CBD0000A20B00200080BB442FDD243FAD
:103F800096020020F0EE400AF5EEC00AF1EE10FABB
:103F900002DBB0EE600A7047B1EE600AFBE700B5E5
:103FA000B0EE403AB0EE602AB5EEC03AF1EE10FA4B
:103FB00007D1B5EEC02AF1EE10FA02D19FEDFC1A3E
:103FC00099E0B0EE430AFFF7DDFFF0EE403AB0EEC5
:103FD000420AFFF7D7FFF0EE402AF4EEE23AF1EEA4
:103FE00010FA02D283EEA24A01E082EEA34A9FEDCC
:103FF000F10AB4EEC04AF1EE10FA02D2F0EE441A21
:104000002DE0DFEDED0AB6EE000A14EE200AF0EE28
:10401000404ABDEEE40A10EE100A00EE100AB8EEB7
:10402000C00A34EEC00AF0EE404AE44901EB8001D8
:1040300091ED000AF0EE401AE04A411C02EB8101CA
:1040400091ED000A114601EB8001D1ED000A70EEFE
:10405000600AB0EE610A00EEA40AF0EE401AF4EE37
:10406000E32AF1EE10FA20DDB5EEC02AF1EE10FAE7
:104070000ADBB5EEC03AF1EE10FA02DBB0EE611ADF
:1040800039E0B1EE611A36E09FEDCD1AB5EEC03AD7
:10409000F1EE10FA04DB31EE610AB0EE401A2AE0CC
:1040A00031EEC10AB0EE401A25E0B5EEC03AF1EEAD
:1040B00010FA10DB9FEDC31AB5EEC02AF1EE10FA2C
:1040C00004DB31EE610AB0EE401A14E031EE210A51
:1040D000B0EE401A0FE09FEDBC1AB5EEC02AF1EE2B
:1040E00010FA04DB31EE210AB0EE401A03E031EEA3
:1040F000610AB0EE401AB0EE410A00BD00B5B0EE64
:10410000405AF0EE605AF0EE450AB0EE650AFFF74D
:1041100046FF00BDF0EE400AF6EE001A60EEA11A6E
:10412000B0EE611AB0EE600A10EE100AA749A1EBDA
:10413000600000EE100A21EE002AF7EE081A42EEA7
:10414000401A61EE801AB0EE610A21EE002AF7EE05
:10415000081A42EE401A61EE801AB0EE610A70470A
:1041600000B5F0EE402AB0EE620AFFF7D3FF20EE72
:10417000220A00BD10B52DED0A8BB0EE409AF0EE8C
:10418000609A9FED930B53EC102B51EC190B0AF036
:104190009FFA18D29FED900B53EC102B51EC190B9A
:1041A0000AF071F941EC1B0B9FED8D0B53EC102BBA
:1041B0000AF0C2F841EC1A0B53EC192B0AF063F920
:1041C00041EC180B17E09FED840B53EC102B51ECD6
:1041D000190B0AF058F941EC1B0B9FED810B53ECC6
:1041E000102B0AF04DF941EC1A0B53EC192B0AF085
:1041F0004AF941EC180B9FED760B53EC102B51EC68
:10420000180B0AF065FA20D29FED770B53EC102BB8
:1042100051EC180B0AF090F841EC1C0B9FED740B5D
:1042200053EC102B0AF02FF941EC1B0B9FED6E0B9A
:1042300053EC102B0AF080F841EC1A0B53EC182BBE
:104240000AF021F941EC180B1FE09FED670B53ECCE
:10425000102B51EC180B0AF010F941EC1C0B9FEDE0
:10426000660B53EC102B0AF00EF941EC1B0B9FED83
:104270005E0B53EC102B0AF05FF841EC1A0B53EC79
:10428000182B0AF000F941EC180BB0EE480AF0EEDA
:10429000680ABDEC0A8B10BD10B52DED068BB0EE93
:1042A000408AF0EE608A01249FED550B53EC102BF1
:1042B00051EC180B0AF024FA0AD89FED510B53EC7D
:1042C000102B51EC180B0AF0D8F841EC180BA41E77
:1042D00020460AF0B9F941EC190BB0EE480AF0EEAD
:1042E000680AFFF747FFB0EE40AAF0EE60AA53EC71
:1042F000192B51EC1A0B0AF0C6F841EC100BBDEC6F
:10430000068B10BD10B52DED088BB0EE408AF0EE97
:10431000608A01249FED3C0B53EC102B51EC180BE1
:104320000AF00AF841EC180B9FED350B53EC102BFB
:1043300051EC180B0AF0E4F90AD8A41E9FED300BDB
:1043400053EC102B51EC180B0AF097F841EC180BBA
:1043500020460AF079F941EC1A0BB0EE480AF0EE6B
:10436000680AFFF799FFB0EE40BAF0EE60BA53EC7E
:104370001A2B51EC1B0B0AF086F841EC190B0AF0D2
:10438000D7F900EE100ABDEC088B10BDF0EE401A14
:10439000F4EEE01AF1EE10FA3ADD31EEC10AB4EEB5
:1043A000E00AF1EE10FA3CD2B0EE600A39E000000B
:1043B000000000008180803B00008043F4E9000899
:1043C000DB0F4940DB0FC93FDB0FC9BFDF59375F48
:1043D0000000000000000000000000602FF0D93F46
:1043E00000000060305FF43F000000000000F03F7C
:1043F000000000C0CCCCCCBF000000C0CCCCCC3F77
:10440000F1D4C853FB210940F1D4C853FB21F93F33
:1044100031EE810AB4EEE00AF1EE10FA01DDB0EE01
:10442000600A7047F0EE401AB1EE412A32EE202ABF
:10443000B4EEE12AF1EE10FA09D231EE202AB4EE00
:10444000E12AF1EE10FA02DDB0EE600A01E0B0EE12
:10445000610A7047F0EE402AB5EEC01AF1EE10FA8C
:1044600002DDB0EE410A01E0B1EE410AB6EE003ADB
:1044700022EE033A23EE213AB4EEC30AF1EE10FA2B
:1044800006D29FEDD40A20EE800AF0EE400A4DE0FD
:10449000B5EEC01AF1EE10FA02DDB0EE410A01E00D
:1044A000B1EE410A22EE213AB4EEC30AF1EE10FA5F
:1044B00006D29FEDC90A20EE800AF0EE400A35E0F0
:1044C000B5EEC01AF1EE10FA02DDB0EE410A01E0DD
:1044D000B1EE410AB4EEE10AF1EE10FA06D2B6EE00
:1044E000000A20EE800AF0EE400A1FE0B5EEC01A86
:1044F000F1EE10FA02DDB0EE410A01E0B1EE410A40
:10450000B0EE003A21EE833AB4EEC30AF1EE10FAAF
:1045100006D29FEDB20A20EE800AF0EE400A05E0D6
:104520009FEDAF0A20EE800AF0EE400A9FEDAD0A43
:1045300020EE800A20EE223AF7EE003A83EE830A5C
:10454000B7EE003A30EE030AF7EE003A83EE803A17
:1045500090ED000A71EE403A90ED000A03EE230A56
:1045600080ED000A90ED000AB1EE423A23EE213AC6
:10457000B4EEC30AF1EE10FA04D8B1EE420A20EE0E
:10458000210A0DE090ED000A22EE213AB4EEC30AB2
:10459000F1EE10FA02DD22EE210A01E090ED000AB0
:1045A00080ED000A90ED000A31EE400A704710B528
:1045B0002DED028BB0EE408AF0EE608A9FED8A0B03
:1045C00053EC102B51EC180B0AF09AF80CD29FED1B
:1045D000880B53EC102B51EC180B09F04EFF41ECFB
:1045E000100BBDEC028B10BD9FED830B53EC102B19
:1045F00051EC180B0AF06CF80AD29FED7D0B53ECCE
:10460000102B51EC180B09F097FE41EC100BE8E76A
:10461000B0EE480AF0EE680AE3E730B505460C460E
:10462000F0EE403AD5ED000A60EEA00A94ED001AD3
:10463000D4ED001A41EE210AB0EE600AFFF790FDBA
:10464000B0EE403AB5EEC03AF1EE10FA02D81FEDE6
:10465000A80A09E0B4EEE33AF1EE10FA02DDB0EE9A
:10466000630A01E0B0EE430AB0EE404AB5EEC03A4C
:10467000F1EE10FA06D11FEDB20A83ED000A82EDC9
:10468000000A0FE084EE030AD5ED000A20EE200AAE
:1046900082ED000A84EE030AD4ED000A20EE200A1F
:1046A00083ED000A30BDF0EE400A0B7802EB830385
:1046B000C3ED000A0B785B1C0B700B78834201DBA7
:1046C00000230B700B7802EB830393ED000A704715
:1046D00000B50246B0EE403A0B46F7EE000A43EE54
:1046E000430AB0EE600AFFF73BFDD2ED000A20EE70
:1046F000200AD2ED010A00EEC30A83ED000AF7EEAC
:10470000000A43EE430AB0EE600AFFF729FDD2ED3E
:10471000010A20EE200AD2ED000A00EE830A83EDA2
:10472000010A00BD90ED000AD1ED010A20EE200A39
:10473000D0ED010A91ED001A00EEC10A704790ED2C
:10474000000AD1ED000A20EE200AD0ED010A91ED19
:10475000011A00EE810A704790ED010AD1ED020ABC
:1047600020EE200AD0ED020A91ED011A00EEC10AF6
:1047700082ED000A90ED020AD1ED000A20EE200A37
:10478000D0ED000A91ED021A00EEC10A82ED010A95
:1047900090ED000AD1ED010A20EE200AD0ED010AC9
:1047A00091ED001A00EEC10A82ED020A704790ED09
:1047B000000AD1ED000A20EE200AD0ED010A91EDA9
:1047C000011A00EE810AD0ED020A91ED021A00EE04
:1047D000810A70479A99993FCDCC4C3FCDCC4C3E45
:1047E000CDCCCC3DC3F5C840000000000080664041
:1047F000000000000080764000000000008066C0DD
:1048000008B5C648D0ED000A9FEDC51AF4EEC10AFE
:10481000F1EE10FA0BD2D0ED000AB7EE001A70EEEE
:10482000810AC0ED000A0120BE49887002E0002024
:10483000BC498870B948D0ED010A9FEDB91AF4EE71
:10484000C10AF1EE10FA0BD2D0ED010AB7EE001A50
:1048500070EE810AC0ED010A01208DF8000002E02F
:1048600000208DF80000AD48D0ED020A9FEDAC1A93
:10487000F4EEC10AF1EE10FA0BD2D0ED020AB7EE57
:10488000001A70EE810AC0ED020A01208DF80100C5
:1048900002E000208DF801009DF8000030B19DF885
:1048A000010018B101209F49C87002E000209D4915
:1048B000C87008BD30B500220024C5788B1F9D420A
:1048C00000D030BD002306E0C55C1544EAB2A5184F
:1048D000ECB25D1CEBB28D1E9D42F5DC431813F863
:1048E000023C934204D1431813F8013CA34200D088
:1048F000E7E78378512B38D103795BB94379894D48
:104900006B7183795BB2AB71C3795BB2EB71037A84
:104910002B7183E00379012B12D14379814D2B72E6
:10492000C3886B810389AB81837A2B719FED7E0AEB
:104930007A4B83ED010A2B461B785B1C2B706DE0D4
:104940000379022B6AD14379764DAB73C3882B82EE
:1049500003896B824389AB828389EB82C3892B8372
:10496000038A6B83837C2B7158E08378342B0DD1C1
:10497000D0F807306B4DEB619FED6B0A674B83ED11
:10498000020A2B465B785B1C6B7047E08378012B37
:104990000DD18388634D2B86C3886B860389AB86D4
:1049A0004389EB8683892B87C3896B8736E08378BD
:1049B000042B33D1B0F9043000EE103AB8EEC00A3F
:1049C000DFED5A0A20EE200A564B83ED080AB0F9B3
:1049D000063000EE103AB8EEC00ADFED540A20EEC1
:1049E000200A504B83ED090AB0F9083000EE103A66
:1049F000B8EEC00ADFED4D0A20EE200A494B83EDE8
:104A00000A0AB0F90A3000EE103AB8EEC00ADFED3B
:104A1000470A20EE200A434B83ED0B0A00BF50E704
:104A200010B504464248007838B9AA2C05D10120B7
:104A30003F4908703F4804706FE03D480078012806
:104A400009D1612C01D0FF2C05D102203849087012
:104A50003848447061E036480078022805D10320C8
:104A6000334908703348847057E031480078032890
:104A70000CD1FA2C0ADA04202D4908702D48C47094
:104A80002D48047000202D49087046E02848007821
:104A9000042819D128480078002815DD2648007818
:104AA000401E254908702548007824490978491C8A
:104AB000224A1170001D1F490C541F48007840BB4A
:104AC00005201B49087028E01948007805280DD1F9
:104AD0000620174908701948007818490978491CB8
:104AE000164A1170001D13490C5416E01048007846
:104AF00006280FD100200E49087010480078001DCC
:104B00000C490C540D480078401DC1B20948FFF70C
:104B1000D1FE02E000200649087010BD800C002084
:104B20000000FA43100C00200000000017B7D13835
:104B3000990200204C0C00209702002098020020CF
:104B40000146D548007800287ED00022D24B1A704A
:104B5000D24A1288C832D14B1A80D14A127DD14B29
:104B60005A76CF4AD37DCF4A9376CD4A9369CD4AC0
:104B7000C2F81B30CA4AD369CA4AC2F81F30C84AB1
:104B8000526A0A2392FBF3F3C64AC2F82330C44A9E
:104B9000126B0A2392FBF3F213B2C24AA2F8273037
:104BA000BF4A526B0A2392FBF3F213B2BD4AA2F83A
:104BB0002930BB4A926B0A2392FBF3F213B2B94A33
:104BC000A2F82B30B64AB2F84C2000EE102AB8EE0C
:104BD000400ADFEDB50A20EE200ABCEEC00A10EE56
:104BE000100A08B9002204E0C82801D9C82200E050
:104BF00002461046AB4A82F82D00A94A526C00EEDC
:104C0000102AB8EE400ADFEDA80A20EE200ABCEE1A
:104C1000C00A10EE100A08B9002204E0C82801D921
:104C2000C82200E0024610469E4A82F82E009C4AA6
:104C3000D26A00EE102AB8EE400ADFED9B0A20EEA1
:104C4000200ABCEEC00A00E012E010EE100A08B91B
:104C5000002204E0C82801D9C82200E0024610461C
:104C6000904A82F82F000123904A82F8213100BF38
:104C7000704710B50E218E4800F0C2FE10BD10B571
:104C80000E218C4800F0BCFE10BD10B5642000F071
:104C9000D3F94FF4165000F038FE322000F0CCF972
:104CA0001C21854800F0ACFE642000F0C5F94FF4EB
:104CB000964000F02AFE322000F0BEF91C217E480A
:104CC00000F09EFE642000F0B7F94FF4164000F0AB
:104CD0001CFE322000F0B0F91C21774800F090FE55
:104CE000642000F0A9F94FF4E13000F00EFE14202A
:104CF00000F0A2F90B21714800F082FE142000F0B0
:104D00009BF90B216E4800F07BFE142000F094F913
:104D10000B216C4800F074FE142000F08DF90B217B
:104D2000694800F06DFE142000F086F90B216748F9
:104D300000F066FE142000F07FF90B21644800F0BB
:104D40005FFE142000F078F9FFF793FF10BD10B557
:104D50000146002000225F4B1B782BB9B52903D1F7
:104D600001235C4C237095E05A4B1B78012B05D135
:104D7000622903D10223574C23708BE0554B1B78DB
:104D8000022B05D10323534C2370534B197081E040
:104D9000504B1B78032B05D104234E4C23704F4BF3
:104DA000197077E04B4B1B78042B05D10523494C38
:104DB00023704B4B19706DE0464B1B78052B10D1BF
:104DC0000623444C2370464B1B7803EB0123454CD0
:104DD000238023461B88622B5CDB00233D4C237021
:104DE00058E03C4B1B78062B54DB3A4B1B789B1F3F
:104DF0003C4C2488A41CA3420ADA364B1B789B1F28
:104E0000274CE154334B1B785B1C324C237041E040
:104E1000314B1B780344D8B21318DAB22F4B1B78EE
:104E20000344D8B21318DAB22E4B1B780344D8B21D
:104E30001318DAB22B4B1B8800EB1323D8B21318CC
:104E4000DAB2002307E0164CE45C0444E0B2141824
:104E5000E2B25C1CE3B2234C2488A342F3DB104B88
:104E6000204C24881B5D834211D10D4C1D4B1B88A7
:104E70005B1CE35C93420AD1174B1B78012B06D1D4
:104E8000164B1B78072B02D10123034C2370002300
:104E9000104C237010BD00009A0200209C020020DC
:104EA0008C0C0020300B00200AD7233CD4030020B8
:104EB0009E020020AC020020D60200200703002042
:104EC000120300201D0300202803002033030020CC
:104ED0003E0300204F030020490300204A03002026
:104EE0004B0300204C030020704700BFFEE700BFCB
:104EF000FEE700BFFEE77047704710B5802003F063
:104F0000C4FE10B1802003F016FF10BD10B500F0F4
:104F10001BFC10BD704710B50121114807F0ABFD17
:104F200028B101210E4807F003FEFCF790FE10BDEA
:104F300010B500F0ADFD10BD10B500F09EFE10BD27
:104F400010B500F0BBFF10BD10B501F0A0F810BD0A
:104F500010B501F0B0F910BD10B500F071FC10BD36
:104F6000001400407FB5684604F0C1FD4FF47A712B
:104F70000198B0FBF1F4E4082146B1F1807F00D341
:104F80001DE021F07F40401E4FF0E022506150179D
:104F90000F22002807DA13071E0E314B00F00F0511
:104FA0002D1F5E5503E013071D0E2E4B1D5400BF31
:104FB00000204FF0E02290610720106100BF6FF0E9
:104FC000040001F095FB7FBD2748D0E900305A1C52
:104FD00040F100002449C1E90020704722480068E0
:104FE000704710B500BF204A11684FF0E0225269A7
:104FF0004FF0E0239B69D21A4FF47A735A434FF073
:10500000E0235B69B2FBF3F201EB4103C3EBC11395
:1050100002EBC300144C18CC4B402343E3D110BD2A
:1050200030B50446FFF7DDFF054600BFFFF7D9FFA7
:10503000401BA042FAD330BD10B5044603E04FF444
:105040007A70FFF7EDFF201EA4F10104F7D110BD27
:1050500010B54FF4806001F099FAFFF783FF10BD9F
:1050600018ED00E000E400E05003002000B58FB030
:10507000684602F096FD0121880504F050FE00BF4D
:10508000564803F0ABF80028FAD10090544801903C
:105090005448029000200390322004900020059094
:1050A0004FF4806006904000079080000890000157
:1050B0000A904012099000200B9001200C900020D3
:1050C0000D900E906946454802F015FC01214348B9
:1050D00002F078FD0FB000BD00B58DB001A801F061
:1050E00009FC0121042004F01AFE0121080204F049
:1050F000FCFEFFF7BBFF03208DF8300020200B9053
:1051000000208DF833000BA9374803F0B9FE0020CA
:10511000099007904FF48030089000200A9007A86B
:1051200001F0F2FB002001908DF8080001208DF8BD
:10513000090000200390059001208DF8180001A9B6
:1051400027484C3801F00DFB072301220F2124488A
:105150004C3801F09EFD012121484C3801F077FFC9
:1051600001211F484C3801F080FC01211C484C38BB
:1051700001F047FF1A484C3801F057FE0DB000BD52
:105180009FED1A0AF0EE400A002010E0154931F8B0
:10519000101000EE101AB8EE401ADFED151AB0EE3E
:1051A000600A01EE210AF0EE400A411CC8B2322822
:1051B000ECDB9FED101A80EE810A9FED0F1A20EEB6
:1051C000010AB2EE061A20EE010AF7EE001A80EE8E
:1051D000211A9FED0A0A21EE000A7047106402406E
:1051E0004C200140F00C00200008024000000000AC
:1051F0000AD7A33C0000804500404E456F12833A19
:105200001CB5684603F0E7FE0121102004F087FD7D
:1052100001208DF804008DF8070000208DF80600AD
:1052200002208DF80500072000906946384803F0F9
:1052300027FE01208DF804008DF8060002208DF86D
:105240000500802000906946314803F019FE0221D4
:105250002F4804F04BF801212D4804F047F80421B1
:105260002B4804F043F88021294804F03FF81CBD86
:1052700000F0010119B10221254A118302E0022147
:10528000234A518300F0020119B10121204A118300
:1052900002E001211E4A518300F0040119B10421EA
:1052A0001B4A118302E00421194A518300F00801CE
:1052B00019B18021164A518302E08021144A1183DA
:1052C000704700B500201DE0124931F81010124A55
:1052D0001256914204DA0121814019438BB202E057
:1052E000012181408B430B4931F81010491C89B2D0
:1052F000084A22F81010142902DB002122F81010AD
:10530000411CC8B20428DFDB1846FFF7B1FF00BD1F
:10531000001002405C0300205803002030B58BB021
:105320000025D44C01A803F056FE08A805F063F947
:1053300003A805F09CFF012C01D8012004E0CE4811
:10534000844200D900E0204604460121082004F0F0
:10535000A9FD0121022004F0C8FD0121084604F046
:10536000C4FD0121152004F0DAFC0C20019002207C
:105370008DF8080003208DF8090000208DF80A0040
:1053800001208DF80B0001A9BC4803F079FD022231
:105390001146BA4804F088F802220321B74804F005
:1053A00083F8B74800684008B0FBF4F0401E85B2AF
:1053B00042F210700990ADF820500020ADF828009E
:1053C000ADF8220008A9AF4805F08AF86020ADF8D2
:1053D0000C000020ADF818000120ADF80E004FF4CD
:1053E0007A60059003A9A74805F0E8FD0821A548C3
:1053F00006F0B1F90120ADF80E004FF47A60059087
:1054000003A9A04805F0A2FE08219E4806F0CFF9A6
:1054100001219C4805F0E9FA01219A4805F0D1FBE9
:105420004FF4D440019002208DF8080003208DF83D
:10543000090000208DF80A0001208DF80B0001A959
:10544000914803F01DFD012209218F4804F02CF83A
:1054500001220B218C4804F027F801220D218A48F3
:1054600004F022F801220E21874804F01DF8844838
:105470000068B0FBF4F0401E85B242F21070099053
:10548000ADF820500020ADF82800ADF822008DF8CE
:105490002A0008A97D4805F023F86020ADF80C002B
:1054A0000020ADF81000ADF818000820ADF81A0083
:1054B0004001ADF81C000020ADF81E000120ADF841
:1054C0000E004FF47A60059003A9704805F0C1FB07
:1054D00008216E4806F0CBF84FF47A60059003A9D6
:1054E0006A4805F07EFC0821684806F0FEF84FF493
:1054F0007A60059003A9654805F060FD08216348BE
:1055000006F029F94FF47A60059003A95F4805F089
:105510001DFE08215D4806F04AF901215B4807F0AD
:10552000FCF80121594805F060FA0121574805F0BF
:1055300048FB4FF44070019002208DF808000320D2
:105540008DF8090000208DF80A0001208DF80B006D
:1055500001A94F4803F094FC032208214C4803F0B2
:10556000A3FF032209214A4803F09EFF4448006834
:10557000B0FBF4F0401E85B242F210700990ADF815
:1055800020500020ADF82800ADF822008DF82A0048
:1055900008A9404804F0A4FF6020ADF80C000020EA
:1055A000ADF81000ADF818000820ADF81A00400161
:1055B000ADF81C000020ADF81E004FF47A60059095
:1055C00003A9344805F0FAFC0821304806F0C3F876
:1055D0004FF47A60059003A92E4805F0B7FD082125
:1055E0002A4806F0E4F801212A4807F096F801213C
:1055F000284805F0FAF90121264805F0E2FA0BB037
:1056000030BDB0F90010890001F57A611F4A1164BC
:10561000B0F90210890001F57A61D163B0F9041084
:10562000890001F57A619163B0F90610890001F5EE
:105630007A615163B0F90810890001F57A61114A65
:1056400040321160B0F90A10890001F57A61121F29
:105650001160B0F90C10890001F57A610D4A4032F1
:105660001160B0F90E10890001F57A61121F116006
:105670007047000000093D0000BD01050000024028
:105680007C030020000C004000100240000001409C
:10569000000802400004014000B587B005A803F0EF
:1056A0009AFC02A806F0BBFE0121022004F0FAFBDE
:1056B0000121042004F033FB1D208DF8040002209A
:1056C0008DF8050001208DF806008DF8070001A86F
:1056D00000F077FF8020059002208DF8180003204D
:1056E0008DF8190000208DF81A0002208DF81B009B
:1056F00005A95D4803F0C4FB022207215A4803F0C4
:10570000D3FE5320594908800420ADF808000A2030
:10571000ADF80A000120ADF80C000020ADF80E0035
:10572000ADF8100002A95148283806F092FD012179
:105730004E48283805F045FA012204214B48283804
:1057400007F05AF807B000BD10B54848183800886F
:1057500000F0040000B34FF6FB704449183908808C
:105760004FF6FF30088040481030006800F080009D
:1057700090B93E48283806F0FEFE3D4908800846AC
:1057800000884988401A84B22046FEF7CEF938488E
:1057900000883749488000BF10BD00B587B0684613
:1057A00003F019FC0121202004F09FFB01210420BB
:1057B00004F0B5FA47208DF8080004208DF80900A0
:1057C00001208DF80A008DF80B0002A800F0F9FE08
:1057D00008220721244803F067FE80200090022061
:1057E0008DF804008DF8050001208DF806000020DA
:1057F0008DF8070069461C4803F042FB1D480390E2
:105800000020ADF810004FF40050ADF81200C010A9
:10581000ADF814000020ADF818000420ADF8160013
:1058200003A9154807F0DBFE012240F2255112487A
:1058300008F071FB0121104808F01AF807B000BD0C
:1058400010B540F225510C4808F08BFC58B140F2DD
:105850002551094808F010FD0748001D0088C4B212
:105860002046FEF790F910BD0008024028040040D1
:1058700064030020A0860100001401403EB50446E8
:105880000121202004F00EFB1E4804F04DFD019480
:105890005320ADF800000020ADF80800ADF802007C
:1058A0006946184804F01CFE0121164807F0ADF8BF
:1058B00001221146134806F09FFF0121114805F00F
:1058C00080F90021202004F0EDFA3EBD08B5372014
:1058D0008DF8000007208DF8010001208DF80200EE
:1058E0008DF80300684600F06CFE08BD10B54FF45B
:1058F0007A70FFF7C3FFFFF7E9FF0121202004F0D2
:10590000D1FA10BD00140040704710B58AB00446AB
:1059100006A807F048FF0121102004F0E6FA012153
:10592000084604F0FCF925208DF80C0003208DF8C2
:105930000D0000208DF80E0001208DF80F0003A847
:1059400000F03FFE07220921FE4803F0ADFD0722CB
:105950000A21FC4803F0A8FD4FF4007001900220DA
:105960008DF808008DF8090000208DF80A0001204C
:105970008DF80B0001A9F34803F082FA4FF4806020
:10598000019002208DF808008DF8090001208DF8A3
:105990000A0000208DF80B0001A9EA4803F070FA14
:1059A000E94807F0B7FD06940020ADF81C00ADF8FB
:1059B0001E00ADF82000ADF824000C20ADF8220048
:1059C0000020ADF81000ADF812004FF40070ADF8F3
:1059D00014000020ADF8160006A9DB4807F0FFFD13
:1059E00004A9D94807F0EBFE012240F22551D64820
:1059F00008F091FA0121D44807F03AFF0AB010BD2F
:105A000070B505460E4600240AE0295DCF480278AD
:105A10000078401CCD4B1870CD488154601CC4B236
:105A2000B442F2DBC848808900F0800028B9012226
:105A300040F22771C44808F06EFA70BDC5490A7873
:105A40000978491CC34B1970C34988541946097811
:105A5000642902DB00211A461170704710B510E06E
:105A6000BE490A780978491CBC4B1970BA49885C50
:105A7000FCF70DFFB9480078642802DB0020B74925
:105A80000870B4480078B54909788842E8D110BD5B
:105A900010B5AD48008800F0080010B1AA48808811
:105AA000C4B240F22551A84808F05BFB50B140F267
:105AB0002551A54808F0E0FBA3488088C4B22046E1
:105AC000FFF7BCFF40F227719F4808F04AFBA8B1DE
:105AD000A34801780078401CA14A10709C48405CA3
