:020000040800F2
:10000000C01C0020D16A000861560008DB6A0008A5
:1000100063560008675600086B5600080000000091
:100020000000000000000000000000006F56000803
:100030007156000800000000E76A000841570008F8
:10004000EB6A0008EB6A0008EB6A0008EB6A00083C
:10005000EB6A0008EB6A0008EB6A0008EB6A00082C
:10006000EB6A0008EB6A0008EB6A0008EB6A00081C
:10007000EB6A0008EB6A0008EB6A0008EB6A00080C
:10008000EB6A0008EB6A0008EB6A0008EB6A0008FC
:10009000EB6A0008EB6A0008EB6A00087356000878
:1000A000EB6A0008EB6A0008EB6A0008EB6A0008DC
:1000B000EB6A0008855600088D560008EB6A0008B8
:1000C000EB6A0008EB6A0008EB6A0008EB6A0008BC
:1000D000EB6A0008A9560008B1560008B956000896
:1000E000EB6A0008EB6A0008EB6A0008EB6A00089C
:1000F000EB6A0008EB6A0008EB6A0008EB6A00088C
:10010000EB6A0008EB6A0008EB6A0008EB6A00087B
:10011000C1560008C9560008EB6A00088F5600084F
:10012000EB6A0008EB6A0008EB6A0008EB6A00085B
:10013000EB6A0008EB6A0008EB6A0008EB6A00084B
:10014000EB6A0008EB6A0008EB6A0008EB6A00083B
:10015000EB6A0008EB6A0008EB6A0008D156000859
:10016000EB6A0008EB6A0008EB6A0008EB6A00081B
:10017000EB6A0008EB6A0008EB6A0008EB6A00080B
:10018000EB6A0008EB6A0008DFF80CD00EF06EFF97
:1001900000480047A1010008C01C002000BFFEE786
:1001A00004F04AF800F01EF801E000F041F8FCE726
:1001B00010B503F021FB03F0FAFE10BD7047704745
:1001C00010B52E4803682E4802682E4801682E4854
:1001D000006803F00FFA10BD10B500F08FFE10BDDF
:1001E00070477047002000BF1FE000EB4001274A26
:1001F00002EB810189884FF47A7292FBF1F100EBF6
:100200004002224B03EB8202D18000EB40011A46F0
:1002100002EB8101C988012905DA012100EB4002C6
:1002200003EB8202D180411CC8B20728DDD370479E
:1002300070B5002400BF1EE005F08CFA054604EB03
:100240004400124901EB80008068281A04EB440145
:100250000E4A02EB8101C98888420AD304EB4400AC
:10026000114601EB8000856004EB440152F8210047
:100270008047601CC4B2072CDED370BD040200208E
:10028000F001002000020020FC01002000000020FE
:100290000146002901DB084670474842FCE7034657
:1002A0008B4201DA08467047934201DD1046FAE7B7
:1002B0001846F8E710B50346CC1A944201DD9818A9
:1002C00010BD5042844201DA981AF9E70846F7E770
:1002D0000146CA2903D0CB2901D0CC2901D1012064
:1002E00070470020FCE7FD480068FD490988884206
:1002F0000AD0FA480088FA4908800020F9490860C5
:10030000F9490880012070470020FCE70146F548C4
:100310000068884206DAF34800681430F14A106039
:10032000002070470020EF4A10600120F9E70246E4
:100330005AB1ED4800884EF66023984208DAEA4840
:100340000088401CE84B188002E00020E64B188033
:10035000E5480088884204DB0020E34B1880012038
:1003600070470020FCE770B504460D461646601B3A
:10037000FFF78EFFB04201DC012070BD0020FCE7DA
:1003800070B504460D46D948006802F049FC20606B
:10039000D748006802F049FC286070BD7CB505466E
:1003A0000E461446694601A8FFF7EAFF0199681A4C
:1003B000FFF76EFFA04207DC0099701AFFF768FF95
:1003C000A04201DC01207CBD0020FCE710B500202C
:1003D00002F06FFB042002F001FB10BD2DE9F0419B
:1003E00007460C4615461E46F02200213846FFF708
:1003F00056FFC04908604FF4967251422046FFF7FD
:100400004EFFBD490860BD480560304603F037FB2C
:10041000BDE8F0817CB504460D46694601A8FFF7AA
:10042000AFFF2B462246DDE90010FFF7D7FF7CBD6A
:1004300001207047014611B1012904D101E00420D7
:1004400070470720FCE70920FAE718B5024612B109
:10045000012A18D10CE00846CB1701EB93739B10CF
:10046000A1EB8303A64C04EB83031B68009315E008
:10047000072091FBF0F300FB1310A24B03EB80006D
:10048000006800900AE0092091FBF0F300FB1310D4
:100490009D4B03EB80000068009000BF00BF0098F8
:1004A00018BD38B505462846FFF7C4FF04461CB9F9
:1004B00000200090009838BD601EC1B22846FFF7AA
:1004C000C4FF0090F7E72DE9F84307460D461646AE
:1004D0003846FFF7AFFF80464FF0FF0900240FE0DA
:1004E00021463846FFF7B1FF0090BDF90000A84251
:1004F00004D1BDF90200B04200D1A146601CC4B2D3
:100500004445EDDB4846BDE8F88370B57F48007888
:10051000FFF790FF04467E4805780CB9002070BDB7
:100520007A48007858B96FF09F02A0217748007888
:10053000FFF7C9FF0646FF2E00D0354609E0734895
:100540000078012800D100BF70480078022800D14F
:1005500000BFA54201DB601EC5B22846DFE76C493B
:10056000087008215D4A116070470020704710B57F
:100570004FF6FF705A4908800020664908706649A6
:1005800008706649087061490870654908706049DB
:1005900008706449087054490880634800886349BA
:1005A000088000206249088062490880624908800A
:1005B00062490870624908706249087062490870AF
:1005C0006249087062490880624908806248008870
:1005D0006249088062480088624908806248008851
:1005E000624908804FF4D270614908804FF402706C
:1005F00060490880002060490870604908706049BF
:100600000870604908706049086060490860604986
:10061000086002F0C3F900205E4908705E49086076
:100620005E4908605E4908805E4908805E4908703E
:100630005E4908805E4908805E4908602749086075
:1006400010BDCA20704710B504465948008818B933
:100650005948007802F0FBFB554800881430544993
:10066000088008460088A04201DB0020088010BDF9
:100670002D4801882D480088814203D02B480180F5
:10068000012070470020FCE74C4800784A4909786F
:10069000884201D1012070470020FCE700B589B0F5
:1006A0002048007810B1002009B000BDFFF7C0FE5F
:1006B00018B9002030490870F6E729480088294910
:1006C000098888427ED026480088264908803C4810
:1006D00000788DF814003A48407874E00401002056
:1006E00054000020080100205E000020FC010020D2
:1006F0000002002014010020180100201001002039
:1007000004F1000814F1000830F100085A0000203C
:100710005C000020560000205700002059000020F7
:100720005B0000205D00002090010020620000209E
:100730006400002066000020680000206A0000209D
:100740006B0000206C0000206D0000206E00002077
:100750007000002072000020920100207400002030
:1007600094010020760000209601002078000020EF
:100770007A0000207C0000207E0000207F00002006
:1007800080000020810000208400002088000020DC
:100790008C00002090000020940000209800002091
:1007A0009C0000209E000020A0000020A20000204D
:1007B000A400002084010020600000209801002097
:1007C000C40B002026E08DF81500FE484088ADF8E7
:1007D0001600FC488088ADF81800FA488068079039
:1007E000F848007B8DF820009DF8200090B19DF81E
:1007F0001400F549097888420CD19DF8150060284D
:1008000008D1F2480078FF2804DAF0480078401C4C
:10081000EE490870EE480088EE49098888422BD0DE
:10082000ED4800788DF80400EB4840788DF805001D
:10083000E9484088ADF80600E7488088ADF8080030
:10084000E54880680390E448007B8DF81000E0489C
:100850000088E04908809DF8100060B19DF8040010
:10086000D9490978884206D19DF80500502802D15F
:100870000020D649087000BFD4480078032804DB64
:100880000020D249087001200EE700200CE71FB5B8
:10089000D2480088D2490988884241D0CF48008890
:1008A000CF490880CF4800788DF80000CD484078C7
:1008B0008DF80100CB484088ADF80200C948808817
:1008C000ADF80400C74880680290C648007B8DF8E8
:1008D0000C009DF80C0010B39DF80000A1282AD14F
:1008E0009DF80100612826D1BF480088B0F5C87F77
:1008F00004DDBDF90400BD4908600DE0BDF9041038
:10090000BA4A1268881AC11700EB9171B74A126887
:1009100002EBA101B54A11600020B34908800AE04A
:10092000B14800884EF66021884204DAAE4800885B
:100930001430AD490880AC480088B0F5C87F04DCAD
:10094000AA48006802F034F804E002F027F800201A
:10095000A64908601FBD10B5A5480078012801D13F
:1009600002F01CF810BD70B5044604EB4400800092
:100970000A2190FBF1F5F02251422846FFF78FFC47
:100980000546284670BD70B505460C462846FFF75B
:100990007FFC962804DC2046FFF77AFC962801DDD0
:1009A000002070BD0120FCE72DE9FC4707460C46FE
:1009B000694601A8FFF7E4FC3846FFF7D4FF8046FC
:1009C0002046FFF7D0FF8146019901EB0800F02295
:1009D0000021FFF764FC0546009901EB09004FF484
:1009E00096725142FFF75BFC06468248007838B9A0
:1009F000814805608148066001207E49087017E043
:100A00007D490968681AC11700EB91717A4A12682A
:100A100002EBA101784A116078490968701AC11780
:100A200000EB9171754A126802EBA101734A1160E3
:100A30000A227148016872480068FFF73BFC704960
:100A400008600A226D4801686E480068FFF732FCB2
:100A50006C490860F022002169480068FFF71FFC1C
:100A6000674908604FF49672514266480068FFF784
:100A700016FC64490860BDE8FC872DE9FC47074681
:100A80000C46694601A8FFF77BFC3846FFF76BFF71
:100A900080462046FFF767FF8146019901EB080079
:100AA000F0220021FFF7FBFB0546009901EB09004E
:100AB0004FF496725142FFF7F2FB06464D4800781C
:100AC00038B94D4805604D48066001204949087015
:100AD00017E049490968681AC11700EB9171464A45
:100AE000126802EBA101444A116044490968701A76
:100AF000C11700EB9171414A126802EBA1013F4A14
:100B00001160BDE8FC871CB53A48007830B13A481E
:100B10000068019039480068009003E0694601A828
:100B2000FFF72EFCF02200210198FFF7B8FB00B27E
:100B3000354908804FF4967251420098FFF7AFFB99
:100B400000B2324908801CBD00B587B005A906A8CF
:100B5000FFF716FC01202E49087000202D4908706F
:100B60002D4908702D4908702D4908702D490880BD
:100B70002D4908802D4908802D4908802D4908807D
:100B80002D4908702D4908702D4908702D4908809D
:100B90004FF4D270144908800020144908601549A8
:100BA0000870154906980860144905980860264899
:100BB00000882649088006480088064908800748BA
:100BC000008845E0C40B0020600000207E0000206B
:100BD0009601002078000020D40B00209201002014
:100BE00074000020B40B00207A0000208400002054
:100BF0007601002090000020940000209800002042
:100C000014010020180100209C0000209E000020FC
:100C10006A0000206B0000206C0000206D000020A6
:100C20006E0000207000002072000020660000208E
:100C300068000020640000207F0000208000002069
:100C4000810000207C00002094010020760000201C
:100C5000FE490880FE4800788DF80400FC48407882
:100C60008DF80500FA484088ADF80600F8488088FD
:100C7000ADF80800F64880680390F548007B8DF8D1
:100C800010009DF8100020B39DF80400F149097888
:100C900088421ED19DF8050060281AD10120EE4936
:100CA00008700320ED490870BDF90600EC490860A2
:100CB000BDF90800EB490860BDF90810BDF9060050
:100CC000FFF7DBFEE7480168E548006801F07BFEBE
:100CD00006E00020E2490860E249086001F05EFE9B
:100CE00007B000BD30B589B000240025DE4800887B
:100CF0001430DD4908800C215020FFF78BFBDB48C6
:100D00000088DB490988884278D0D8480088D849CB
:100D10000880CF4800788DF81400CD4840788DF8D1
:100D20001500CB484088ADF81600C9488088ADF85A
:100D30001800C74880680790C548007B8DF82000E0
:100D40009DF82000002859D09DF81400C149097869
:100D5000884253D19DF8150060284FD1012401200D
:100D6000BD4908700020C3490880C3490870C349C1
:100D70000870BA480078FF2804DAB8480078401CA8
:100D8000B6490870BDF91810BDF91600FFF7FBFD54
:100D9000A0B3B2480078032808DCBDF91600B049BA
:100DA0000860BDF91800AF4908601BE0BDF91610D6
:100DB000AB4A1268881AC11700EB9171A84A1268F1
:100DC00002EBA101A64A1160BDF91810A54A1268EC
:100DD000881AC11700EB9171A24A126802EBA101B7
:100DE000A04A1160BDF91810BDF91600FFF745FEC5
:100DF0009C4801689A48006801F0E5FD54B99D4897
:100E000000884EF66021884204DA9A48008814303F
:100E1000984908809A4800889A490988884228D0C9
:100E20009748008897490880974800788DF8040013
:100E3000954840788DF8050093484088ADF8060045
:100E400091488088ADF808008F48806803908E48EC
:100E5000007B8DF810009DF8100050B19DF8040043
:100E60007C490978884204D19DF80500502800D1BA
:100E7000012505B378480078E8B178480078032860
:100E800019DB7D480078FF2804DA7B480078401C95
:100E9000794908707848007806280CDB01207B49E6
:100EA0000870FFF730FE01F079FDD02002F010FC51
:100EB000012009B030BD6F480088B0F5FA7F0EDD23
:100EC00001F06CFD0C215020FFF7A4FA6B4800786C
:100ED00028B9012069490870E22002F0F9FB0020DE
:100EE000E7E710B56A48B0F900306A48B0F9002069
:100EF00058480178102002F02FFC10BDF8B5664864
:100F000090F8380000B1F8BD6348B0F94400B0F57E
:100F1000AF6F12DD6048B0F94400B0F5C86F0CDA6D
:100F20005E48007830B900205D49086001F0EEFAB3
:100F30005A490870FFF71BFBE5E700205749087086
:100F40005548B0F9440040F2A46188421ADD524885
:100F5000B0F9440040F69801884213DA514800780D
:100F600098B95148007880B901204E4908704E491F
:100F700008704E4908604E4908604FF6FF704D49B1
:100F8000088002E00020474908704748007800B90F
:100F9000B9E7474800680E2856D2DFE800F0070896
:100FA0001335FEFDFCFBFAF9F8F7F6F565E3FFF7FC
:100FB0009AF9022001F048FA3D49096808443C4981
:100FC00008605AE3FFF78FF9B0B101F037FDFFF782
:100FD00038FB20490870084600783749087001F04E
:100FE0001DFF1C48007801F032FF002033490880C3
:100FF0001848007802F06CFB01F0EEF92C49096802
:1010000008442B49086038E3FFF76DF900281CD02D
:101010002B4890ED000B2B4880ED000B01F0F4FD08
:10102000FFF7A3FA284908700020284908702849CA
:10103000087028490870284800882849088000203E
:101040002749087004494DE002E38BE0740000205A
:10105000C40B0020600000206B0000207F000020F7
:10106000880000208C0000206600002094010020F1
:10107000760000207C0000208000002081000020FD
:101080009601002078000020D40B00206C00002086
:101090009E0000209C0000201A0C00205800002018
:1010A000100100205700002056000020840100207D
:1010B000040100205400002075010020A40000203D
:1010C000C8010020380100205A0000205B000020E9
:1010D0005C0000205D0000209001002062000020E4
:1010E0006A0000200870FE490870FE490870FE4939
:1010F0000870FE490880FE490880FE490870FE48D5
:101100000088FE490880FE480088FE490880FE48A5
:101110000088FE4908804FF4D270FD4908804FF4E2
:101120000270FC4908800020FB490870FB490870E8
:10113000FB490870FB490870FB490860FB490860DF
:10114000FB49086001F02AFCFFF740F90C2350220C
:1011500000210846FFF742F9F649097801F1A0009D
:1011600002F0B6FA0C23502200210846FFF736F9A8
:101170004FF47A70FFF767FA4FF47A70FFF7C6F80A
:1011800068B10420EC4909E052E226E2FDE180E189
:101190002EE115E1CEE06EE038E001E008606CE29F
:1011A000FFF7A1F838B1FFF711F90C235022002105
:1011B0000846FFF713F90C23502200210846FFF7D9
:1011C0000DF94FF47A70FFF73EFA05220021084628
:1011D000FFF7E4F805460A22D84801685020FFF7D7
:1011E000C2F80646B0EE080A01F0EDFC04461DB157
:1011F00016B10CB1012100E0002108461921FFF7CA
:1012000096F810B10520CC49086036E2FFF76BF87C
:1012100050B1FFF7DBF80C23502200210846FFF7FE
:10122000DDF8902002F054FA0C23502200210846E9
:10123000FFF7D4F8FFF78FFB4FF47A70FFF703FA4C
:10124000FFF72CFA18B10020FFF789F915E240F6F4
:10125000B830FFF75BF868B101F0D6FC0C235022E0
:1012600000210846FFF7BAF8912002F031FA062073
:10127000B149086001E2FFF711FA20B1B0480078E7
:10128000FFF76DF9F9E1AB480078FFF7D3F8AC4907
:101290000978884203DC0A20A7490860EDE1A848E4
:1012A0000178A4480078FFF7D0F80090FFF71BF80A
:1012B00078B1FFF78BF8BDF90210BDF900001423D7
:1012C0005022FFF78BF89E49097801F1B00002F037
:1012D000FFF9BDF90210BDF9000014235022FFF7F9
:1012E0007DF8FFF7D4FA4FF47A70FFF7ACF9BDF947
:1012F0000210BDF900000522FFF750F805460A224A
:101300008E4801685020FFF72EF80646B0EE080A16
:1013100001F059FC04461DB116B10CB1012100E0E9
:10132000002108460A21FFF702F810B10720824980
:101330000860A2E1FFF7B2F930B181490978491C90
:10134000C8B2FFF70CF998E17D4801787948007838
:10135000FFF77BF80090FEF7C6FF48B1FFF736F8BD
:10136000BDF90210BDF900000C235022FFF736F83A
:10137000BDF90210BDF900000C235022FFF72EF832
:10138000FFF7E9FA4FF47A70FFF75DF94FF47A70DE
:10139000FEF7BCFF98B16A480078401C68490870A5
:1013A00064480078FFF746F865490978884203DC0D
:1013B0000A206149086002E006205F4908605CE19C
:1013C000FEF791FF68B1FFF701F8FFF7BDFB0C21B5
:1013D0005020FFF71FF8602002F07AF9102002F089
:1013E00077F9FFF77FFC10B109205349086044E109
:1013F000FEF779FF70B10020524908705249088009
:10140000FFF76FFD4F480078401C4E490870D1200F
:1014100002F05EF90C2350224C4801684C480068E9
:10142000FEF7DCFF01F0BAFA46480078082812DA25
:1014300045480088143044490880084600886428DC
:1014400026DB00200880FFF74CFD3E480078401C5A
:101450003C4908701CE001203E490870FFF755F830
:1014600037490870097801F00F01E031C8B202F085
:101470002FF930480078FEF7DDFF314909788842BE
:1014800003DC0A202C49086002E006202A49086093
:10149000F3E028480078FFF704F80090FEF723FFF8
:1014A00048B1FEF793FFBDF90210BDF90000142307
:1014B0005022FEF793FFBDF90210BDF9000014237E
:1014C0005022FEF78BFFFFF7E2F9BDF90210BDF9DC
:1014D00000000522FEF762FF05460A2217483BE09E
:1014E0006C0000206D0000206E00002070000020C5
:1014F0007200002090000020920100207400002063
:101500009401002076000020960100207800002041
:101510007A0000207C0000207E0000207F00002058
:10152000800000208100002084000020880000202E
:101530008C0000205A00002004010020F00100204F
:101540005B000020A0000020A20000201801002065
:10155000140100205D00002001685020FEF703FF09
:101560000646B0EE080A01F02EFB04461DB116B186
:101570000CB1012100E0002108461E21FEF7D7FE34
:1015800010B10B203E49086077E03E480078FEF736
:1015900088FF0090FEF7A7FE60B1FEF717FFBDF9C8
:1015A0000210BDF900000C235022FEF717FFC320E4
:1015B00002F08EF8BDF90210BDF900000C23502294
:1015C000FEF70CFFFFF7C7F940F2DC50FEF79EFE76
:1015D00010B10C202A4908604FE0FEF784FEB0B13C
:1015E00028480078FEF75DFF0090FEF7EFFEBDF99A
:1015F0000210BDF900000C235022FEF7EFFE01F0AF
:10160000CDF9002020490870C12002F061F81E4881
:10161000007830B900201D49086000F077FF1A49B2
:1016200008701948007810B10D201549086024E0B1
:10163000FEF759FE10B1C22002F04AF801F0AEF9EF
:10164000002013490870134908600D49086014E030
:10165000FEF7BCFE01F0A2F90A480078FEF721FF70
:101660000090BDF90210BDF9000014235022FEF7CE
:10167000B5FE0A200249086000BF00BF00BF42E477
:10168000040100205A000020590000201001002011
:101690005600002084010020FF20F94981F84E0007
:1016A0006421F748A0F850100121A0F85210FF2043
:1016B000F34981F880011421F148A0F8821100213A
:1016C000A0F88411FF20EE4981F820010021EC48A8
:1016D000A0F82211A0F82411FF20E94981F8320175
:1016E0000021E748A0F83411A0F83611FF20E449A2
:1016F00081F838010021E248A0F83A11A0F83C1125
:10170000FF20DF4981F886010021DD48A0F888111B
:10171000A0F88A11FF20DA4981F840050021D84855
:10172000A0F84215A0F84415FF20D54981F84C05D2
:101730000021D348A0F84E15A0F85015704770B599
:1017400004460D462946204605F029F970BDCC4ACD
:1017500010700122CA4B5A707047C94A82F84C0572
:10176000012382F84D3570472DE9F04104460D46BE
:1017700000260027E178A81F814201D0BDE8F08152
:10178000002006E0215C3144CEB2B919CFB2411C31
:10179000C8B2A91E8142F5DC601910F8020CB042F3
:1017A00004D1601910F8010CB84200D0E6E72078A7
:1017B000AA2805D16078612803D06078FF2800D07E
:1017C000DCE7A078202811D1A088AE490880E08805
:1017D0004880208988806089C880A0890881E08944
:1017E0004881208A8881608AC881CAE0A0780F2851
:1017F0000DD1207940B2A4490870607940B2487098
:10180000A07940B28870E07940B2C870B9E0A078A1
:1018100006280CD120799D4948706079C870A0795C
:101820000871E17999484171217A8171A9E0A07824
:1018300007280AD1002005E0211D095C944A1154B3
:10184000411CC8B20628F7DB9BE0A07803280AD128
:10185000002005E0211D095C8E4A1154411CC8B2CC
:101860000728F7DB8DE0A07803280AD1002005E0E7
:10187000211D095C884A1154411CC8B20928F7DBB4
:101880007FE0A07805280AD1002005E0211D095C31
:10189000824A1154411CC8B20928F7DB71E0A078D4
:1018A00008280AD1002005E0211D095C7C4A11545A
:1018B000411CC8B20828F7DB63E0A078012860D09B
:1018C000A078E0281ED12079012806D0022805D072
:1018D000102804D0112804D102E003E002E001E066
:1018E00000E000BF00BF2079654981F80C0608467A
:1018F00080F80D6680F80E7600F20C61AF20FFF7DD
:1019000026FF3EE0A078B0B95D4890F80F06217937
:10191000884236D15A4890F810066179884230D111
:10192000574890F81106A17988422AD100205449DD
:1019300081F8000625E0A078E12811D121796079AD
:1019400001EB00201FFA80F84D48A0F81486002112
:10195000C0F8181600F21461FF20FFF7FEFE10E039
:10196000A078E2280DD12079454981F80C06084677
:1019700080F80D6680F80E7600F20C61FF20FFF70C
:10198000E6FE00BFFAE610B504464648007838B9CE
:10199000AA2C05D1012043490870434804708EE009
:1019A00040480078012809D1612C01D0FF2C05D1D5
:1019B00002203C4908703C48447080E03948007877
:1019C000022805D10320374908703748847076E033
:1019D0003448007803280CD1FA2C0ADA0420314963
:1019E00008703148C47031480470002030490870D4
:1019F00065E02C480078042819D12C48007800288C
:101A000015DD2A480078401E2849087028480078CB
:101A100027490978491C264A1170001D22490C5497
:101A20002248007858BB05201E49087047E01D4831
:101A3000007805280DD106201A4908701C48007846
:101A40001B490978491C1A4A1170001D16490C548B
:101A500035E01448007806282ED10020114908707E
:101A600013480078001D10490C5411480078401D9F
:101A700010490870084601780B48FFF775FE1EE014
:101A80001C040020460B0020A0030020A80B00200F
:101A9000B7000020B0000020560B00205F0B002094
:101AA000BD000020AA000020380A0020A800002065
:101AB000A9000020A60000200020E249087010BD07
:101AC0007CB50346342B4FD007DC7BB10D2B23D0E4
:101AD000302B2ED0332B6FD138E0402B52D0412BFE
:101AE0005DD0E02B6AD0E22BF5D17BE0D64890F8B0
:101AF0000C460D78681C08705455D34890F80D4674
:101B00000D78681C08705455CF4890F80E460D7833
:101B1000681C0870545594E0002007E0CB4C255C0D
:101B20000E78741C0C709555441CE0B20428F5DB4B
:101B300087E0002007E0C64C255C0E78741C0C7012
:101B40009555441CE0B21728F5DB7AE0002008E048
:101B5000BF4C193C255C0E78741C0C709555441CC8
:101B6000E0B20628F4DB6CE0002008E0B84CE41F8B
:101B7000255C0E78741C0C709555441CE0B2072847
:101B8000F4DB5EE0002007E0B24C255C0E78741CAC
:101B90000C709555441CE0B21428F5DB51E0002090
:101BA00007E0AD4C255C0E78741C0C709555441CF8
:101BB000E0B20E28F5DB44E042E0FFE7A24890F8EF
:101BC00001460D78681C08705455002007E0A34CAE
:101BD000255C0E78741C0C709555441CE0B20A28E4
:101BE000F5DB2EE09848B0F8140600B201909DF89D
:101BF00004400D78681C087054559DF805400D7818
:101C0000681C087054559048D0F8180600909DF84C
:101C100000400D78681C087054559DF801400D78FF
:101C2000681C087054559DF802400D78681C0870B7
:101C300054559DF803400D78681C0870545500E019
:101C400000BF00BF7CBDF8B504460F4600200090E1
:101C5000AA219DF80020501CC0B2009080488154F9
:101C600039789DF80020501CC0B200907C48815407
:101C70009DF80010481CC0B20090794844540021DF
:101C80009DF80020501CC0B2009075488154024657
:101C900069462046FFF714FF9DF80000001F7049B9
:101CA000C87000250026002007E06D49095C294422
:101CB000CDB27119CEB2411CC8B29DF80010884255
:101CC000F3DB9DF80010481CC0B2009064484554F6
:101CD0009DF80010481CC0B20090614846545A4814
:101CE00090F8000640B1E02C06D1574880F80F4626
:101CF00080F8105680F811669DF800105848FFF7DC
:101D00001EFDF8BD10B5044604EB44004E4901EB3E
:101D10004000408828B304EB440001EB4000808879
:101D200004EB4401484A02EB4101498888420CDA3D
:101D300004EB4400114601EB40008088401C04EB9A
:101D4000440102EB410188800BE0012004EB4401D7
:101D50003D4A02EB4101888004EB440102EB410162
:101D6000487004EB4400384901EB4000407868B10A
:101D7000002004EB4401344A02EB4101487004EBBB
:101D8000440002EB40012046FFF75DFF10BD2E4AE4
:101D900082F84005012382F8413501222A4B83F85D
:101DA0000026704710B52DED028BB0EE408A00F092
:101DB0001BF83020FFF7A6FF3320FFF7A3FF3420E6
:101DC000FFF7A0FF4020FFF79DFF4120FFF79AFF9C
:101DD000E020FFF797FFE220FFF794FF0D20FFF7C9
:101DE00091FFBDEC028B10BD174890F8000601284A
:101DF00021D11C480078322805DA1A480078401CA6
:101E0000184908701CE00020164908701648007830
:101E1000401C1549087008460078052804DA01219D
:101E2000094880F841150BE000200F490870064969
:101E300081F8000604E000200A4908700A49087089
:101E400070470000AA0000201C040020AC00002005
:101E5000910B0020540C0020380B00201E0A00209B
:101E6000E8030020AB000020A700002000B52DED06
:101E7000028B85B0B0EE408AFE4890F83900002809
:101E80007BD1FC48B0F94200B0F5966F06DA01202C
:101E900000F0DAFA0120F849087010E0F548B0F9CE
:101EA000420040F2A461884206DA022000F0CCFA37
:101EB0000220F149087002E0022000F0C5FAED4866
:101EC000B0F93A00A0F2DC5000EE900AF8EEE00A19
:101ED000B0EE600A9FEDE91ADFEDE90A02F012FEAA
:101EE0008DED010AE348B0F93C00A0F2DC5000EEB1
:101EF000900AF8EEE00AB0EE600A9FEDE01ADFED1E
:101F0000E00A02F0FFFD8DED020ADA48B0F93E006A
:101F1000A0F2DC5000EE900AF8EEE00AB0EE600AA3
:101F20009FEDD81ADFEDD60A02F0ECFD8DED030A25
:101F3000D048B0F94000A0F2DC5000EE900AF8EE74
:101F4000E00AB0EE600A9FEDCF1ADFEDCD0A02F095
:101F5000D9FD8DED040ACC48007858B19FEDC80A30
:101F60008DED010A9FEDC60A8DED020A9FEDC40AB0
:101F70008DED040A9DED010A00E053E0DFEDC30A98
:101F800020EE200ADFEDC20A20EE200ABDEEC00AD4
:101F900010EE100A00B2BF4908809DED020AB1EEB2
:101FA000400ADFEDBA0A20EE200ADFEDB90A20EE82
:101FB000200ABDEEC00A10EE100A00B24880AD48FB
:101FC000C08FA0F57A7000B288809DED040AB1EE52
:101FD000400ADFEDB10A20EE200ADFEDB00A20EE64
:101FE000200ABDEEC00A10EE100A00B2C880AC484C
:101FF0000088404200B2C880AA48008800B2088128
:10200000A948008800B24881A848008800B28881A9
:102010000121A74880F887110020A6490870A64929
:1020200008701EE0A548C07878B1A248007828B9A9
:10203000032000F009FA9F49087006E09E480078E6
:1020400018B900F029FA9C490870002091490880CD
:1020500048804FF4AF7088800020C8808881488114
:10206000088105B0BDEC028B00BD10B50446944854
:10207000008800EE100AB8EE400ADFED920A20EE6A
:10208000200ABDEEC00A10EE100A00B28E49088088
:102090008B48408800EE100AB8EE400ADFED890A4E
:1020A00020EE200ABDEEC00A10EE100A00B24880F1
:1020B0008348808800EE100AB8EE400ADFED810AFE
:1020C00020EE200ABDEEC00A10EE100A00B2888091
:1020D0007B48C08800EE100AB8EE400ADFED790AAE
:1020E00020EE200ABDEEC00A10EE100A00B2C88031
:1020F0007348008900EE100AB8EE400ADFED710A5D
:1021000020EE200ABDEEC00A10EE100A00B20881CF
:102110006B48408900EE100AB8EE400ADFED690A0C
:1021200020EE200ABDEEC00A10EE100A00B248816F
:102130006348808900EE100AB8EE400ADFED610ABC
:1021400020EE200ABDEEC00A10EE100A00B288810F
:102150005B48C08900EE100AB8EE400ADFED590A6C
:1021600020EE200ABDEEC00A10EE100A00B2C881AF
:102170005648007818B901205449087027E0E4B1A6
:10218000002017E0504931F91010002901DC00212E
:102190000BE04D4931F91010B1F57A7F02DD4FF4B3
:1021A0007A7102E0484931F91010474A22F81010BC
:1021B000411CC8B20828E5DB09E0002005E0002149
:1021C000414A22F81010411CC8B20828F7DB3E48EB
:1021D00003F0D3FD10BD10B503F08EFBDFED3C0A1C
:1021E00020EE200ABCEEC00A10EE100A3949088021
:1021F00010BD10B538480088401C37490880084693
:1022000000880A2190FBF1F201FB1200324908809C
:102210000846008810BB9FED310A02F0DCF99FED03
:102220002F0AFFF723FE9FED2D0A00F09BFB9FED89
:102230002B0A02F0A1FE28484088401C264948800D
:10224000084640880A2190FBF1F201FB1200224966
:1022500048800846408808B9FFF7BDFF04F01EFC1F
:10226000012003F029F89FED1E0A00F043F89FEDCE
:102270001C0A37E01A0C0020D00000200000204289
:10228000000000000000A042E20000208F360E3B5C
:1022900000C05A45380B0020C6F91B3B00004843DC
:1022A000F8000020EC000020F0000020F4000020E6
:1022B0001C040020CE000020CF000020A80B00202E
:1022C000460B0020CDCCCC3D680B0020D600002072
:1022D0000000C842AC000020D80000200AD7233CF0
:1022E0006F12833AFFF75EFD0120FFF7BEFE03F099
:1022F000A4FB10BD10B52DED028BB0EE408A00F0AE
:1023000020F800BF2D4840782D490978884214D024
:102310002A4840782A49087000202A4988744FF4D6
:1023200087712848A0F813102448C1692548C0F8CF
:1023300015100121244880F8391100BFBDEC028B33
:1023400010BD22480078FF2804D020480078401CA7
:102350001E490870194800781D490978884216D02E
:10236000164800781A4908701448007A50B113488A
:10237000C07838B111484089124908800F488089D7
:10238000488004E04FF400400E49088048800B4824
:1023900040781049097888420ED0084840780D49A5
:1023A00008704FF40040074988800121064880F8F2
:1023B000331100200549087070470000880C002088
:1023C000DF000020780B00201C040020DE0000202D
:1023D000DC000020DD00002010B50120CB49887012
:1023E000CB4890F8000688B91020C94981F8010649
:1023F0000021C74880F80216012180F8031600F278
:102400000161FF20FFF7C3FC012010BD0020FCE7A5
:1024100010B50020BD498870BD4890F8000688B905
:102420001020BB4981F801060021B94880F8021646
:10243000022180F8031600F20161FF20FFF7A7FCDC
:10244000012010BD0020FCE710B50446B14800781B
:10245000A0421FD0AE4890F80006C8B9AB4804703F
:10246000AC4804700120AA4981F801060121A8485E
:1024700080F8021680F80316A4480178A44880F872
:10248000041600F20161FF20FFF781FC012010BD5E
:102490000020FCE70120FAE710B59D4890F80006FF
:1024A00088B910209A4981F801060021984880F8DF
:1024B0000216072180F8031600F20161FF20FFF7E2
:1024C00066FC012010BD0020FCE701B5904890F8A3
:1024D0000006C8B910208E4981F8010600218C48F9
:1024E00080F80216052180F803169DF8001080F888
:1024F00004169DF8011080F8051600F20161FF2016
:10250000FFF745FC012008BD0020FCE710B580481E
:1025100090F8000688B910207D4981F80106002155
:102520007B4880F80216062180F8031600F201614C
:10253000FF20FFF72CFC012010BD0020FCE707B5B1
:10254000734890F8000648BB1020714981F80106D5
:1025500002216F4880F80216032180F803169DF8C7
:10256000001080F804169DF8011080F805169DF8FB
:10257000041080F806169DF8051080F807169DF8DF
:10258000081080F808169DF8091080F8091600F266
:102590000161FF20FFF7FBFB01200EBD0020FCE7DF
:1025A00013B55B4890F8000608BB1020584981F825
:1025B00001060221564880F80216072180F803160A
:1025C0009DF8001080F804169DF8011080F805169B
:1025D0009DF8041080F806169DF8051080F807167F
:1025E00000F20161FF20FFF7D2FB01201CBD00209B
:1025F000FCE713B5464890F8000608BB1020444994
:1026000081F801060221424880F80216082180F86C
:1026100003169DF8001080F804169DF8011080F84C
:1026200005169DF8041080F806169DF8051080F830
:10263000071600F20161FF20FFF7A9FB01201CBD76
:102640000020FCE710B5324890F8000688B9012058
:102650002F4981F8010600212D4880F80216032138
:1026600080F8031600F20161FF20FFF790FB0120C4
:1026700010BD0020FCE710B5254890F8000688B989
:102680000120234981F801060021214880F8021623
:10269000042180F8031600F20161FF20FFF777FBA9
:1026A000012010BD0020FCE710B5194890F8000685
:1026B00088B90120164981F801060021144880F8E4
:1026C0000216052180F8031600F20161FF20FFF7D2
:1026D0005EFB012010BD0020FCE710B50C4890F80F
:1026E000000688B901200A4981F80106002108483E
:1026F00080F80216022180F8031600F20161FF2023
:10270000FFF745FB012010BD0020FCE7A80B0020CF
:102710001C040020E000002010B504469848B0F9E1
:102720004000B0F5AF6F0BDD9548B0F94000B0F553
:10273000C86F05DA0120934948709349087002E098
:102740000020904948708E48B0F93E00B0F5966F71
:1027500006DA8C48407818B901208A49087002E0EE
:102760000020884908708848007801284AD18748A5
:10277000C078002853D18248B0F93A0040F26C7119
:10278000884210DD7E48B0F93C0040F24C4188425E
:1027900009DA7B48B0F93E00884204DA7848B0F99B
:1027A0004000884217DB7648B0F9400040F26C7177
:1027B000884230DD7248B0F93C0040F24C4188421A
:1027C00029DA6F48B0F93E00884224DA6C48B0F943
:1027D0003A0088421FDA6E480088B0F57A7F12DA34
:1027E000D4ED000A6A48008800EE100AB8EE400AEC
:1027F0009FED681A00EE810ABCEEC00A10EE100AC6
:102800006349088062E0FFF7E7FD00206049088027
:102810005D4908705AE000205D49088056E05B4839
:10282000C078012852D15648B0F93A0040F26C7194
:10283000884210DD5248B0F93C0040F24C418842D9
:1028400009DA4F48B0F93E00884204DA4C48B0F942
:102850004000884217DB4A48B0F9400040F26C71F2
:10286000884230DD4648B0F93C0040F24C41884295
:1028700029DA4348B0F93E00884224DA4048B0F9EA
:102880003A0088421FDA42480088B0F5967F12DA93
:10289000D4ED000A3E48008800EE100AB8EE400A67
:1028A0009FED3C1A00EE810ABCEEC00A10EE100A41
:1028B000374908800AE0FFF7ABFD00203449088063
:1028C0003149087002E000203149088010BD10B580
:1028D0002E48C078002844D12948B0F9400040F281
:1028E0004C41884217DA2648B0F93C00884212DA97
:1028F0002348B0F93E0088420DDA2148B0F93A0089
:10290000884208DA2448007838BBFFF79BFE012094
:102910002149087025E01A48B0F9400040F26C7176
:1029200088421BDD1648B0F93C0040F24C41884219
:1029300014DA1348B0F93E0088420FDA1048B0F9B3
:102940003A0040F26C71884208DD1348007820B9E3
:10295000FFF791FE01201049087002E000200E49A7
:10296000087010BD10B52DED020B054890F8390028
:1029700020B96846FFF7D0FEFFF7A9FF1CBD000095
:102980001A0C0020E2000020E6000020A80B002026
:10299000E400002000007A44E70000200020DF4926
:1029A0000870DF490860DF490860DF490860704748
:1029B000DB4908600021DB4A1160DB4A116001211C
:1029C000D64A117070470022D54B1A60D54A106064
:1029D000D54A11600222D14B1A7070470021D34AA8
:1029E0001160D34A1160D34A1160D34A1160D34AAF
:1029F0001160012806D0022805D003280BD0042836
:102A000019D110E000BF0121CB4A1160C74A116003
:102A1000C74A116010E00121C74A1160C34A116022
:102A2000C44A116008E00121C34A1160BF4A116025
:102A3000C24A116000E000BF00BF70470020C049DB
:102A40000860C0490860704710B50446BC4800687B
:102A5000A04205DABA4800681430B94908600AE0B3
:102A60000020B7490860102000F032FEB648006828
:102A7000401CB549086010BD05E0DFEDB40A70EEFA
:102A8000600AB0EE600ADFEDB20AB4EEE00AF1EEE1
:102A900010FAF2DC05E0DFEDAD0A70EE200AB0EED0
:102AA000600ADFEDAC0AB4EEE00AF1EE10FAF2D9FA
:102AB000704700B500EE100AB8EEC00AFFF7DCFF61
:102AC000BDEEC00AA44981ED000A0021A34A11709D
:102AD00000BD10B52DED028BA14890ED000B51EC1F
:102AE000100B0CF0E1F908EE100AB0EE480AFFF7FF
:102AF000C3FFBDEEC00A984880ED000A0020974948
:102B00000870BDEC028B10BD10B52DED048B044692
:102B100020460CF055F941EC190B914890ED000B53
:102B200053EC102B51EC190B0BF0C2FF41EC180BBE
:102B30000CF057F988490860012088490870BDECFD
:102B4000048B10BD10B50446002C00DA64426042CC
:102B5000FFF7DAFF10BD10B50446002C00DA64421E
:102B60002046FFF7D1FF10BD10B52DED028B7B483D
:102B70000078012812D17A4890ED000B51EC100B2F
:102B80000CF092F900EE100A7348D0ED000AF8EE4E
:102B9000E00A30EEC00ABDEC028B10BD704890ED2B
:102BA000000B51EC100B0CF07FF900EE100A6A4894
:102BB000D0ED000AF8EEE00A30EEC00AB0EE408A2E
:102BC000FFF75AFFE7E710B52DED028BB0EE408A14
:102BD000FFF7CAFFF0EE408AF4EEC88AF1EE10FA71
:102BE0000AD2B1EE480AF4EEC08AF1EE10FA03DD23
:102BF0000120BDEC028B10BD0020FAE700205949EE
:102C000008605949086070470020584908605848D2
:102C1000006858490860584800685849086070477B
:102C2000014654480068081A704701465348006836
:102C3000081A70470D286DD2DFE800F0070D151E49
:102C4000272F3740484F565E660000214C4A1160DE
:102C50004C4A11605FE04FF4D771494A11600A2174
:102C6000484A116057E04FF4D771454A11604FF45C
:102C7000B971444A11604EE04FF4AA71404A1160A4
:102C80004FF4B9713F4A116045E04FF4AA713C4AD4
:102C9000116050213B4A11603DE04FF48771384A82
:102CA00011605021374A116035E04FF48771344A82
:102CB00011604FF4B971334A11602CE0C821304AD9
:102CC00011604FF4B9712F4A116024E0C8212C4AD9
:102CD000116050212B4A11601DE08221284A1160A9
:102CE0005021284A116016E08221254A11604FF4D4
:102CF000B971244A11600EE00021214A11604FF49D
:102D0000B971204A116006E000211D4A11601D4A78
:102D1000116000E000BF00BF704700007601002096
:102D2000780100207C010020800100204801002063
:102D30004C010020540100205001002058010020C7
:102D4000080100200C010020040100200000B44311
:102D500000003443000034C31C010020680100203F
:102D600040010020FC000020000100206401002040
:102D7000FC0100205C010020000200206001002016
:102D800014010020180100200146CA2903D0CB29D4
:102D900001D0CC2901D1012070470020FCE710B5FB
:102DA00004462046FFF7F0FF08B9A12C01D101200D
:102DB00010BD0020FCE70146502903D0602901D056
:102DC000612901D1012070470020FCE770B505465C
:102DD0000C46A12D05D1612C01D1012070BD002030
:102DE000FCE72846FFF7D0FF38B1602C01D0502C0B
:102DF00001D10120F2E70020F0E70020EEE730B536
:102E0000039C0170427043808480FE4D2D8805EB49
:102E10008505AD0085600125057330BD5020FA4958
:102E200008700020F9490860F94908605020F94904
:102E300008700020F8490870F8490880F8490880AF
:102E4000F8490873F8490873F8490873704710B5D2
:102E500004462046FFF798FF00B910BD204600F059
:102E6000B5FC00BFF9E72DE9F04104460F46082FF5
:102E700003D04FF0FF30BDE8F0812078BB2808D1A7
:102E80006078102805D1A078F12802D16079EE2869
:102E900002D04FF0FF30EEE7E6782579102E13D1FF
:102EA000052D0ED2DFE805F0030507090B00002011
:102EB000E1E70120DFE70220DDE70320DBE7042074
:102EC000D9E74FF0FF30D6E7202E15D12846FFF77F
:102ED0005BFF10B94FF0FF30CDE7D54805705020AB
:102EE000C94908700020C9490860C94908602846D6
:102EF000FFF7ADFF1420BEE74FF0FF30BBE72DE931
:102F0000F0410446CB480078082876D2DFE800F08C
:102F10000415293D49556976BB2C0DD10020C649C1
:102F20000870084601780078401CC34A1070C348F6
:102F300044540120BF490870A1E0102C0BD1BE48B9
:102F400001780078401CBC4A1070BC4844540220F0
:102F5000B849087004E00020B6490870B649087006
:102F60008DE0F12C0BD1B44801780078401CB24AB6
:102F70001070B24844540320AE49087004E00020A9
:102F8000AC490870AC49087079E0AB48017800782A
:102F9000401CA94A1070A94844540420A54908704F
:102FA0006DE0A54801780078401CA34A1070A34842
:102FB000445405209F49087061E0EE2C0BD19E48D7
:102FC00001780078401C9C4A10709C4844540620AC
:102FD0009849087004E000209649087096490870E6
:102FE0004DE0954801780078401C934A1070934852
:102FF000445407208F49087041E03AE00026B0466B
:103000008D4801780078401C8B4A10708B484454DE
:10301000002709E08948C05D3044C6B208EB0600CD
:1030200000F0FF08781CC7B2062FF3DB83488079D5
:10303000B04215D18148C079404511D108217F485F
:10304000FFF711FF0546002D04DB052D02DA7C4851
:10305000056008E0002D06DADD2000F039FB02E013
:10306000DF2000F035FB00207249087072490870BB
:1030700005E000206F4908706F49087000BF00BF6D
:10308000BDE8F081F0B502460E2905D11078AA28D6
:1030900002D1507B0A2802D04FF0FF30F0BD90786B
:1030A000577840EA072003B21079D77840EA072022
:1030B00004B29079577940EA072006B2107BD77A9C
:1030C00040EA072005B25F4803605F4804605F483C
:1030D00005600020E2E710B504465D48007810B1B5
:1030E000012832D109E0AA2C06D15A4804700120E7
:1030F00059490870564908702DE057480178007802
:10310000401C554A107053484454104600780E280D
:103110001ADB50480078AA280BD14E48407B0A2879
:1031200007D10E214B48FFF7ADFF01204B49087036
:1031300005E0002049490870DE2000F0C9FA0020AF
:10314000454908704249087005E000204049087070
:103150004149087000BF00BF10BD38B5044640A00B
:10316000006800900221684603F0FAF838BD3D4936
:10317000096829B90A2803D101213A4A116034E0CB
:1031800038490968012905D1374908700221354AB3
:1031900011602AE033490968022905D133490870D2
:1031A0000321304A116020E02E490968032905D126
:1031B0002F49087004212B4A116016E0294909683B
:1031C000042905D12B4908700521264A11600CE01D
:1031D00024490968052905D1274908700021214A99
:1031E000116002E000211F4A11601F490978234A3B
:1031F00011801146098801297ED11D490978204A8C
:1032000011803FE090010020740100206C0100203B
:103210007001002099010020980100209A010020EF
:103220009C010020B40B0020C40B0020D40B002014
:10323000750100209E010020A70100209F010020B1
:1032400084010020FC010020000200200402002074
:10325000A8010020E40B0020A90100208801002023
:10326000010A0000AC010020B0010020B1010020E3
:10327000B2010020B3010020B40100208A01002027
:103280008C01002011460978090209B2118011460B
:10329000B1F90010C04A12781143C04A1180C049E8
:1032A0000978C04A118011460978090209B21180D3
:1032B0001146B1F90010BC4A12781143B94A118085
:1032C000B649B1F9001000EE101AB8EEC00AF6EED9
:1032D000080A20EE200ABDEEC00A10EE101A09B24C
:1032E000AE4A1180AF49B1F9001000EE101AB8EEE5
:1032F000C00AF6EE080A00E009E020EE200ABDEE62
:10330000C00A10EE101A09B2A64A118004E000218A
:10331000A24A1180A34A1180704738B50446AFF223
:10332000C000006800900221684603F03AF938BDF9
:103330002DE9F84304468946B9F10A0F02D000206E
:10334000BDE8F8832078BB2802D1607AFF2801D03D
:103350000020F5E76678A5783046FFF720FD18B124
:103360002846FFF728FD08B90020E9E7294630463E
:10337000FFF72CFD08B90020E2E7E07810B1E07813
:10338000012804D1A07920B1A079012801D0002022
:10339000D6E76079217940EA01200FFA80F8207A97
:1033A000E17940EA012007B2E078012803D1C8F1B1
:1033B00000000FFA80F8A079012801D1784207B205
:1033C0007A4806707A4805707A48A0F800807A48F2
:1033D0000780A12E14D1612D12D143462A463146D1
:1033E00076480097FFF70BFD75480088401C74492C
:1033F000088074480088401C7249088001209FE7BB
:103400003046FFF7C1FC38B3602D25D16E480078F7
:10341000FFF7BAFC28B16C480078864201D0002042
:103420008EE743462A46314668480097FFF7E7FC97
:103430006020674908706748C0F8008066480760E8
:1034400066480088401C654908805E480088401C2A
:103450005C490880012073E73046FFF795FC38B3DC
:10346000502D25D158480078FFF78EFC28B15648DA
:103470000078864201D0002062E743462A46314662
:1034800057480097FFF7BBFC5020514908700020B7
:10349000504908605049086052480088401C514912
:1034A000088048480088401C46490880012047E7BA
:1034B000002045E710B50446BB2C11D14A480078DE
:1034C00070B1002049490870084601780078401C16
:1034D000464A10704648445401204349087010BDC4
:1034E000414800780A284ED2DFE800F00516171888
:1034F000191A1B1C1D2BBB2C0DD100203B49087039
:10350000084601780078401C384A10703848445406
:103510000120354908703CE000BF00BF00BF00BF7C
:1035200000BF00BF00BF314801780078401C2F4A1F
:1035300010702F4844542C480078401C2A490870C9
:1035400027E02A4801780078401C284A1070284853
:103550004454104600780A280CD125480078BB282E
:1035600008D12348407AFF2804D10A212048FFF7D8
:10357000DFFE02E0DE2000F0ABF800201B490870FF
:103580001949087005E000201749087017490870AC
:1035900000BF00BF00BFA2E7B10100208C010020E6
:1035A000B40100208E010020B3010020980100200A
:1035B000990100209A0100209C010020B40B0020FA
:1035C000920100209001002075010020C40B002012
:1035D000740100206C010020700100209401002083
:1035E000D40B002096010020B5010020B601002078
:1035F000F20B00207FB50024BB222146641C7D48CD
:10360000425410222146641C4254F1222146641C7B
:10361000425408222146641C42549DF80020214651
:10362000641C42549DF801202146641C42549DF8BC
:1036300004202146641C42549DF805202046611C4C
:10364000CCB26C490A549DF808202146601CC4B2D3
:10365000684842549DF809202046611CCCB2654957
:103660000A549DF80C202046611CCCB261490A54D2
:103670009DF80D202046611CCCB25E490A54EE2212
:103680002046611CCCB25B490A540025002600206C
:1036900007E05849095C2944CDB27119CEB2411CEA
:1036A000C8B25449C978491D8142F2DC2046611CE8
:1036B000CCB250490D542046611CCCB24D490E5439
:1036C0000846C078C01DC1B24A4802F055FD7FBD12
:1036D000F1B50024BB222146641C46484254102206
:1036E0002146641C4254F1222146641C42540222A9
:1036F0002146641C42549DF800202146641C42541B
:103700009DF801202146641C4254EE222146641C8F
:10371000425400250026002007E03649095C294470
:10372000CDB27119CEB2411CC8B23249C978491D17
:103730008142F2DC2046611CCCB22E490D54204659
:10374000611CCCB22B490E540846C078C01DC1B2D2
:10375000284802F011FDF8BD2DE9F04705460E4658
:103760001746984600241FFA87F91FFA88FAAA22FA
:103770002146641C1F484254BB222146641C42540B
:103780002146641C45542146641C46544FEA1922C4
:103790002146641C42542146641C00F801904FEA03
:1037A0001A222146641C42542046611CCCB21149A5
:1037B00001F800A0FF222046611CCCB20D490A543A
:1037C00009210C4802F0D8FCBDE8F08770B5054629
:1037D0000024BB222146641C064842542146641C36
:1037E0004554FF222146641C4254032102F0D9FEB5
:1037F00070BD0000FC0B002010B52DED048B5E4960
:10380000B1F900000BF0DCFA41EC180B9FED5B0BFB
:1038100053EC102B0BF065FA5A4A03C25649B1F922
:1038200002000BF0CDFA41EC180B9FED540B53EC5A
:10383000102B0BF056FA544A03C24F49B1F9040059
:103840000BF0BEFA514A03C29FED510B53EC102B03
:10385000514890ED000B51EC100B0BF00DFB18D202
:103860009FED4E0B53EC102B484890ED000B51ECA4
:10387000100B0BF0E9FA0CD29FED4A0B53EC102B16
:103880004A4890ED000B51EC100B0BF011F9474A30
:1038900003C29FED420B53EC102B3F4890ED000B01
:1038A00051EC100B0BF0D0FA18D29FED390B53EC02
:1038B000102B364890ED000B51EC100B0BF0DCFA9E
:1038C0000CD29FED380B53EC102B384890ED000BC9
:1038D00051EC100B0BF08DF9344A03C29FED270B0E
:1038E00053EC102B294890ED000B51EC100B0BF012
:1038F000F8F941EC180B9FED2E0B53EC102B2B48D5
:1039000090ED000B51EC100B0BF079F941EC190B19
:1039100053EC182B0BF0CCF8274A03C21B4890ED50
:10392000000B1D4880ED000B244890ED000B53EC7C
:10393000102B214890ED000B51EC100B0BF059F9B6
:103940001F4A03C21F48B0F918001F4908601D48EC
:10395000B0F91A001D4908601D4800881D490880FB
:103960001B4840881C4908801C4840681C49086066
:10397000BDEC048B10BD0000B00000200000000072
:1039800000005940B8010020C0010020D0010020F3
:10399000000000000094C140D80100200000000099
:1039A0000094C1C0000000000000F03FE0010020D2
:1039B0000000000000807640C8010020380100208F
:1039C00040010020880C0020F4010020F8010020B4
:1039D000B7000020E8010020EA0100205F0B002072
:1039E000F00100200146002901DB084670474842EB
:1039F000FCE7884201DD084603E04A42904200DAD3
:103A0000484270472DE9F0412DED068B04460D46E6
:103A1000B0EE408AF0EE608A16461F462046FFF759
:103A2000E1FFB04204DC0020BDEC068BBDE8F08174
:103A300005FB04F00BF0C4F941EC1A0B53EC182B06
:103A40000BF0DDF841EC190B0BF0CBF98046394651
:103A50004046FFF7CEFFE7E70146052901DA0520DA
:103A60007047322901DD3220FAE70846F8E710B541
:103A700004462046FFF7F0FFFE49086010BD10B570
:103A800004462046FFF7E8FFFB49086010BD10B56B
:103A900004462046FFF7E0FFF849086010BDF548EE
:103AA00000687047F44800687047F4480068704741
:103AB00030B503460C46181B00EB40051421284680
:103AC000FFF797FF30BD2DE9F04F2DED108B87B03C
:103AD000B0EE408AF0EE608AB0EE419AF0EE619A64
:103AE00005460E4617469946DDE921B8E81B0690C3
:103AF000A6EB0900059005980BF062F941EC1E0B4E
:103B000005980BF05DF941EC1F0B53EC1E2B0BF0ED
:103B100076F841EC1C0B06980BF052F941EC1E0BA9
:103B200006980BF04DF941EC1F0B53EC1E2B0BF0DC
:103B300066F841EC1D0B53EC1C2B0AF0B9FF41EC6D
:103B40001B0B0BF0B1F90AEE100AB0EE4A0A00F0B6
:103B5000C3FEBDEEC00A10EE104A002C0BDC0020A4
:103B6000CBF80000C8F80000C549086007B0BDECFC
:103B7000108BBDE8F08F20460BF022F941EC1B0BB7
:103B800053EC182B0BF03BF841EC1A0B0BF029F916
:103B90008246BB490968601A0BF012F941EC1B0B15
:103BA00053EC192B0BF02BF841EC1A0B0BF019F915
:103BB0000490B348046004985044039020990398FB
:103BC000FFF717FF039020460BF0FAF841EC1B0BB0
:103BD00006980BF0F5F841EC1D0B03980BF0F0F88C
:103BE00041EC1E0B53EC1D2B0BF009F841EC1C0BA8
:103BF00053EC1B2B0BF075F841EC1A0B0BF0F1F8A2
:103C0000029020460BF0DCF841EC1B0B05980BF002
:103C1000D7F841EC1D0B03980BF0D2F841EC1E0BCA
:103C200053EC1D2B0AF0EBFF41EC1C0B53EC1B2B50
:103C30000BF057F841EC1A0B0BF0D3F801902099D8
:103C40000298FFF7D6FECBF8000020990198FFF705
:103C5000D0FEC8F8000000BF88E72DE9F04F2DED39
:103C6000048B87B007460E4690469946B8F1140F6C
:103C700001DD142000E040460690B8F1120F01DD8E
:103C8000122000E0404605903846FFF7ABFE00905A
:103C90000BF096F841EC180B9FED7A0B53EC102BC0
:103CA0000BF0D2F800D800273046FFF79BFE0090BB
:103CB0000BF086F841EC180B9FED720B53EC102BB8
:103CC0000BF0C2F800D800263C4635466F48007815
:103CD00030B96F4804606F48056001206B49087077
:103CE0006B480068A4EB000A6A480068A5EB000B6B
:103CF000674804606748056020460BF061F841ECB6
:103D0000190B654890ED000B53EC102B51EC190B7F
:103D10000AF075FF41EC180B0BF063F8049028468D
:103D20000BF04EF841EC190B5C4890ED000B53EC96
:103D3000102B51EC190B0AF062FF41EC180B0BF041
:103D400050F8039050460BF03BF841EC190B5448E7
:103D500090ED000B53EC102B51EC190B0AF04FFFB8
:103D600041EC180B0BF03DF8029058460BF028F888
:103D700041EC190B4B4890ED000B53EC102B51EC20
:103D8000190B0AF03CFF41EC180B0BF02AF80190DC
:103D900008210298FFF72DFE029008210198FFF7F5
:103DA00028FE0190029A049988180699FFF721FECF
:103DB000C9F80000019A039988180599FFF719FEC0
:103DC000149908601FB916B900203049087007B06F
:103DD000BDEC048BBDE8F08F70B52DED088B04466B
:103DE000B0EE409AF0EE609A2F48007801280CD18E
:103DF00051EC190B0BF058F800EE900A00EE104A47
:103E0000B8EEC00A30EE608A11E051EC190B0BF0ED
:103E10004BF800EE900A00EE104AB8EEC00A30EE01
:103E2000600AF0EE408AFEF727FEB0EE408A1F4897
:103E300090ED000AB8EEC00AB4EEC08AF1EE10FAB6
:103E40000ED290ED000AB8EEC00AB1EE400AB4EE10
:103E5000C08AF1EE10FA03DD9FED150AB0EE408A3C
:103E600018EE100A0AF0DCFF41EC1B0B114890ED34
:103E7000000B21E0A0020020A4020020A8020020E4
:103E8000AC020020000000000000E03FB80200206B
:103E9000B0020020B402002058020020600200207E
:103EA00068020020700200206801002098020020B3
:103EB000000000009002002053EC102B51EC1B0B73
:103EC0000AF09DFE41EC1A0B0AF08BFF0546AE4846
:103ED00001682846FFF78DFDBDEC088B70BD70B5FD
:103EE00004460D4629462046FFF7E2FDA749086033
:103EF00070BD2DE9F0412DED048B86B0B0EE408A07
:103F0000F0EE608AB0EE419AF0EE619A04460D46FA
:103F100016461F46DDF8408000200590049004A856
:103F200005A93B463246CDE900810290294620464C
:103F3000B0EE491AF0EE691AB0EE480AF0EE680ADF
:103F4000FFF7C1FD924905980860924904980860FE
:103F500006B0BDEC048BBDE8F081FEB504460D460D
:103F6000164600200290019001A802AB3246294675
:103F700000902046FFF771FE854902980860854948
:103F800001980860FEBD10B52DED028B0446B0EE21
:103F9000408AF0EE608AB0EE480AF0EE680A2046E9
:103FA000FFF71AFF7C490860BDEC028B10BDF0B52D
:103FB00085B0002004900390002400257748006815
:103FC00030B17748016877480068FFF771FD044613
:103FD00075480068B0B103A804A9744A1268CDE915
:103FE00000210290724803687248026872480168B2
:103FF00072480068724E96ED001B724E96ED000BF3
:10400000FFF761FD7048006808B370480068FEF76C
:1040100007FE06466E480068FEF707FE074603A93E
:1040200004A86C4A12683B46CDE900200291324652
:104030006148016861480068DFF89CC19CED001B85
:10404000DFF898C19CED000BFFF73DFD00BF644811
:10405000006850B103A804AB00906248026862484F
:10406000016862480068FFF7F8FD614800780128A0
:1040700024D1192302225F4890ED000B01215E48F4
:104080000068FFF7BFFC06465C490968701AC11753
:1040900000EB9171594A126802EBA101574A116075
:1040A0000399126888184B490968FFF7A2FC03902E
:1040B000002053490860534908604EE04C4800789E
:1040C000022843D10F2302224F4890ED000B01211B
:1040D0004E480068FFF796FC06460F2302224C4824
:1040E00090ED000B01214B480068FFF78BFC074661
:1040F00043490968701AC11700EB9171404A126870
:1041000002EBA1013E4A11603E490968781AC117C5
:1041100000EB91713B4A126802EBA101394A116030
:10412000374A0499126888182A490968FFF761FC20
:104130000490344A03991268881826490968FFF7E1
:1041400058FC039000202D49086006E000202B4910
:1041500008602B4908602B4908602F48006838B177
:104160002E4890ED000B2E480068FFF735FE0546FF
:1041700007490498086007490398086003480460E9
:104180000548056005B0F0BD9C020020F400002049
:10419000EC000020F0000020F80000204801002082
:1041A000F0010020100100204C010020A00200209E
:1041B000F8010020F4010020180100201401002063
:1041C000180200200802002058010020FC010020F5
:1041D00000020020A4020020380200202802002053
:1041E00054010020A8020020700100206C01002072
:1041F000760100207802002078010020BC02002017
:10420000C0020020C4020020800200207C010020A7
:104210008802002080010020500100204001002081
:104220001C01002010B501F0F3FD0120F84981F8D0
:10423000380081F8390010BD10B501F0C5FA6420CE
:1042400001F0B6FA01F098FB01F024FC642001F0C3
:10425000AFFA4FF4E13001F014FF4FF4E13002F017
:104260000AF84FF4E13002F000F9EA4802F01EFAD1
:10427000E84802F004FB642001F09AFAFFF7D2FF4D
:1042800001F0E6FA642001F093FAFDF705FA4FF425
:10429000487001F08DFA01F0B4F801F0E3FE01205E
:1042A00010BD40F6C411884203DDDB4909780329BB
:1042B00003DCD94909780A290DD10021D64A1170A9
:1042C000D349B1F84E10491CD14AA2F84E10012131
:1042D00082F8501012E0B0F5967F0FDD40F6B8314D
:1042E00088420BDA02B2CA49891CCB4B1B7821F8F1
:1042F0001320C9490978491CC74A1170704738B55D
:104300000446C6A000680090C5484068C4490860DB
:1043100001F023FAC2494860084640680968401A1B
:1043200040F6C411884202D90020BE490870BD4839
:1043300001780078401CBB4A1070BB4844541046BA
:10434000007819287ED1182011460870B6480078E8
:104350000F2878D1B448007E38B1B348007EB34A04
:1043600012781DF802108842F3D10020AD49087080
:10437000AD484078AC49897801F0070140EA012056
:10438000A3498882A848C0788006400DA64989784C
:1043900040EAE1009E49C882A3484079C007400D29
:1043A000A149097940EA81009F49C97840EAA110F2
:1043B000974908839C4880790007400D9A494979BC
:1043C00040EA6100924948839748C0794006400D11
:1043D0009549897940EA21108D4988839248407A2D
:1043E0008007400D9049097A40EA41008E49C97919
:1043F00040EAE1108649C8838B48807AC006400DA8
:104400008949497A40EAA100814908848648C07AEE
:10441000C0008549897A40EA61117D48418482481B
:10442000007B8149497B01F0070140EA012078497E
:1044300088847D48807B8006400D7B49497B40EA2B
:10444000E10001E072E067E07149C8847648007CD1
:10445000C007400D7449C97B40EA81007249897BDD
:1044600040EAA1106A4908856F48407C0007400D6A
:104470006D49097C40EA6100654948856A48807C4D
:104480004006400D6849497C40EA21106049888512
:104490006548007D8007400D6349C97C40EA4100C2
:1044A0006149897C40EAE1105949C8855E48407DF0
:1044B000C006400D5C49097D40EAA10054490886C8
:1044C0005948807DC0005849497D40EA61115048F3
:1044D00041865548C07D4E4981F83400084690F821
:1044E000340000F0080040B90846B0F84E00401C07
:1044F000A1F84E00022081F850004C480078401C82
:104500004A4908700878C11700EB91718910A0EB37
:104510008101464A117009E0002005E0424A411C31
:10452000515C1154411CC8B21828F7DB38BD10B5D6
:104530000446D4ED000A3E48008800EE100AB8EEAA
:10454000400A9FED3C1A00EE810ABCEEC00A10EE54
:10455000100A3749088008460088B0F57A7F39DDAF
:10456000002008802A48B0F84E002949C88608462D
:10457000C08E052803DA012081F8380003E000200E
:10458000234981F83800224890F83800C8B1204803
:104590000078D8B928480078401C27490870087866
:1045A00000EBD0714910A0EB4101234A1170104675
:1045B0000078012802D101F0ACFC07E001F028FCF2
:1045C00004E0134890F85000114908700020104989
:1045D000A1F84E0010BD10B52DED020B6846FFF797
:1045E000A6FF0B4890F8380000286AD108480078E8
:1045F000012823D1002008E00549891C31F810204A
:10460000383121F81020411CC8B20A28F4DB38E008
:104610001A0C002020A10700C80200200414243432
:10462000CC020020D40200206C0C0020D502002017
:10463000D802002000007A44D60200202B480078DF
:1046400002281ED100201AE02849143131F9101037
:10465000A1F5806100EE101AF8EEC00A9FED240A61
:104660009FED241A01EE200ABDEEC00A10EE101ACA
:104670000AB21E493A3121F81020411CC8B20A285A
:10468000E2DB1A48B0F94200B0F5966F05DD174835
:10469000B0F94200B0F5AF6F0BDB1448B0F942003F
:1046A000B0F5C86F09DD1148B0F94200B0F5E16F0F
:1046B00003DA01201049087011E000200E4908704B
:1046C0000DE001200C490870002006E00022074997
:1046D0003A3121F81020411CC8B20A28F6DB0648FE
:1046E0000078024981F839001CBD00001A0C002036
:1046F0000080BB442FDD243FDA020020F0EE400AA8
:10470000F5EEC00AF1EE10FA02DBB0EE600A704777
:10471000B1EE600AFBE700B5B0EE403AB0EE602AB9
:10472000B5EEC03AF1EE10FA07D1B5EEC02AF1EEBF
:1047300010FA02D19FEDFC1A99E0B0EE430AFFF7A0
:10474000DDFFF0EE403AB0EE420AFFF7D7FFF0EEA1
:10475000402AF4EEE23AF1EE10FA02D283EEA24AD7
:1047600001E082EEA34A9FEDF10AB4EEC04AF1EEF9
:1047700010FA02D2F0EE441A2DE0DFEDED0AB6EEAB
:10478000000A14EE200AF0EE404ABDEEE40A10EEF4
:10479000100A00EE100AB8EEC00A34EEC00AF0EEBD
:1047A000404AE44901EB800191ED000AF0EE401A25
:1047B000E04A411C02EB810191ED000A114601EB38
:1047C0008001D1ED000A70EE600AB0EE610A00EEE1
:1047D000A40AF0EE401AF4EEE32AF1EE10FA20DD1E
:1047E000B5EEC02AF1EE10FA0ADBB5EEC03AF1EEF2
:1047F00010FA02DBB0EE611A39E0B1EE611A36E070
:104800009FEDCD1AB5EEC03AF1EE10FA04DB31EEB1
:10481000610AB0EE401A2AE031EEC10AB0EE401A49
:1048200025E0B5EEC03AF1EE10FA10DB9FEDC31AA9
:10483000B5EEC02AF1EE10FA04DB31EE610AB0EEFB
:10484000401A14E031EE210AB0EE401A0FE09FED5D
:10485000BC1AB5EEC02AF1EE10FA04DB31EE210AE3
:10486000B0EE401A03E031EE610AB0EE401AB0EE4D
:10487000410A00BD00B5B0EE405AF0EE605AF0EECD
:10488000450AB0EE650AFFF746FF00BDF0EE400AAC
:10489000F6EE001A60EEA11AB0EE611AB0EE600AF0
:1048A00010EE100AA749A1EB600000EE100A21EEFD
:1048B000002AF7EE081A42EE401A61EE801AB0EEB6
:1048C000610A21EE002AF7EE081A42EE401A61EE64
:1048D000801AB0EE610A704700B5F0EE402AB0EEE3
:1048E000620AFFF7D3FF20EE220A00BD10B52DEDBE
:1048F0000A8BB0EE409AF0EE609A9FED930B53EC6A
:10490000102B51EC190B0AF09FFA18D29FED900B67
:1049100053EC102B51EC190B0AF071F941EC1B0B05
:104920009FED8D0B53EC102B0AF0C2F841EC1A0BE3
:1049300053EC192B0AF063F941EC180B17E09FEDCB
:10494000840B53EC102B51EC190B0AF058F941EC85
:104950001B0B9FED810B53EC102B0AF04DF941EC32
:104960001A0B53EC192B0AF04AF941EC180B9FED86
:10497000760B53EC102B51EC180B0AF065FA20D291
:104980009FED770B53EC102B51EC180B0AF090F8BD
:1049900041EC1C0B9FED740B53EC102B0AF02FF91C
:1049A00041EC1B0B9FED6E0B53EC102B0AF080F8C3
:1049B00041EC1A0B53EC182B0AF021F941EC180BBF
:1049C0001FE09FED670B53EC102B51EC180B0AF016
:1049D00010F941EC1C0B9FED660B53EC102B0AF009
:1049E0000EF941EC1B0B9FED5E0B53EC102B0AF004
:1049F0005FF841EC1A0B53EC182B0AF000F941EC6C
:104A0000180BB0EE480AF0EE680ABDEC0A8B10BD38
:104A100010B52DED068BB0EE408AF0EE608A0124D1
:104A20009FED550B53EC102B51EC180B0AF024FAA8
:104A30000AD89FED510B53EC102B51EC180B0AF0D8
:104A4000D8F841EC180BA41E20460AF0B9F941EC45
:104A5000190BB0EE480AF0EE680AFFF747FFB0EE18
:104A600040AAF0EE60AA53EC192B51EC1A0B0AF095
:104A7000C6F841EC100BBDEC068B10BD10B52DED4A
:104A8000088BB0EE408AF0EE608A01249FED3C0B6B
:104A900053EC102B51EC180B0AF00AF841EC180BF0
:104AA0009FED350B53EC102B51EC180B0AF0E4F989
:104AB0000AD8A41E9FED300B53EC102B51EC180BB1
:104AC0000AF097F841EC180B20460AF079F941EC0E
:104AD0001A0BB0EE480AF0EE680AFFF799FFB0EE45
:104AE00040BAF0EE60BA53EC1A2B51EC1B0B0AF0F3
:104AF00086F841EC190B0AF0D7F900EE100ABDEC6C
:104B0000088B10BDF0EE401AF4EEE01AF1EE10FA48
:104B10003ADD31EEC10AB4EEE00AF1EE10FA3CD211
:104B2000B0EE600A39E00000000000008180803BA8
:104B30000000804354F10008DB0F4940DB0FC93F00
:104B4000DB0FC9BFDF59375F000000000000000025
:104B5000000000602FF0D93F00000060305FF43F9C
:104B6000000000000000F03F000000C0CCCCCCBF33
:104B7000000000C0CCCCCC3FF1D4C853FB2109408D
:104B8000F1D4C853FB21F93F31EE810AB4EEE00ABB
:104B9000F1EE10FA01DDB0EE600A7047F0EE401A57
:104BA000B1EE412A32EE202AB4EEE12AF1EE10FAFB
:104BB00009D231EE202AB4EEE12AF1EE10FA02DD3C
:104BC000B0EE600A01E0B0EE610A7047F0EE402AF4
:104BD000B5EEC01AF1EE10FA02DDB0EE410A01E0C6
:104BE000B1EE410AB6EE003A22EE033A23EE213A44
:104BF000B4EEC30AF1EE10FA06D29FEDD40A20EE0D
:104C0000800AF0EE400A4DE0B5EEC01AF1EE10FA5F
:104C100002DDB0EE410A01E0B1EE410A22EE213A96
:104C2000B4EEC30AF1EE10FA06D29FEDC90A20EEE7
:104C3000800AF0EE400A35E0B5EEC01AF1EE10FA47
:104C400002DDB0EE410A01E0B1EE410AB4EEE10A44
:104C5000F1EE10FA06D2B6EE000A20EE800AF0EE6F
:104C6000400A1FE0B5EEC01AF1EE10FA02DDB0EE18
:104C7000410A01E0B1EE410AB0EE003A21EE833A7A
:104C8000B4EEC30AF1EE10FA06D29FEDB20A20EE9E
:104C9000800AF0EE400A05E09FEDAF0A20EE800AA0
:104CA000F0EE400A9FEDAD0A20EE800A20EE223A97
:104CB000F7EE003A83EE830AB7EE003A30EE030ACD
:104CC000F7EE003A83EE803A90ED000A71EE403A3A
:104CD00090ED000A03EE230A80ED000A90ED000A31
:104CE000B1EE423A23EE213AB4EEC30AF1EE10FAE5
:104CF00004D8B1EE420A20EE210A0DE090ED000A40
:104D000022EE213AB4EEC30AF1EE10FA02DD22EEF1
:104D1000210A01E090ED000A80ED000A90ED000A02
:104D200031EE400A704710B52DED028BB0EE408A8F
:104D3000F0EE608A9FED8A0B53EC102B51EC180BB0
:104D40000AF09AF80CD29FED880B53EC102B51EC23
:104D5000180B09F04EFF41EC100BBDEC028B10BD9F
:104D60009FED830B53EC102B51EC180B0AF06CF8F1
:104D70000AD29FED7D0B53EC102B51EC180B09F070
:104D800097FE41EC100BE8E7B0EE480AF0EE680A37
:104D9000E3E730B505460C46F0EE403AD5ED000AA3
:104DA00060EEA00A94ED001AD4ED001A41EE210A3B
:104DB000B0EE600AFFF790FDB0EE403AB5EEC03AB3
:104DC000F1EE10FA02D81FEDA80A09E0B4EEE33ABA
:104DD000F1EE10FA02DDB0EE630A01E0B0EE430A34
:104DE000B0EE404AB5EEC03AF1EE10FA06D11FED32
:104DF000B20A83ED000A82ED000A0FE084EE030A96
:104E0000D5ED000A20EE200A82ED000A84EE030AA6
:104E1000D4ED000A20EE200A83ED000A30BDF0EE4A
:104E2000400A0B7802EB8303C3ED000A0B785B1C8E
:104E30000B700B78834201DB00230B700B7802EBC5
:104E4000830393ED000A704700B50246B0EE403A86
:104E50000B46F7EE000A43EE430AB0EE600AFFF796
:104E60003BFDD2ED000A20EE200AD2ED010A00EE51
:104E7000C30A83ED000AF7EE000A43EE430AB0EEE0
:104E8000600AFFF729FDD2ED010A20EE200AD2EDDB
:104E9000000A00EE830A83ED010A00BD90ED000ACE
:104EA000D1ED010A20EE200AD0ED010A91ED001AA1
:104EB00000EEC10A704790ED000AD1ED000A20EE25
:104EC000200AD0ED010A91ED011A00EE810A704727
:104ED00090ED010AD1ED020A20EE200AD0ED020A7F
:104EE00091ED011A00EEC10A82ED000A90ED020A6E
:104EF000D1ED000A20EE200AD0ED000A91ED021A51
:104F000000EEC10A82ED010A90ED000AD1ED010A1E
:104F100020EE200AD0ED010A91ED001A00EEC10A40
:104F200082ED020A704790ED000AD1ED000A20EEF2
:104F3000200AD0ED010A91ED011A00EE810AD0EDB0
:104F4000020A91ED021A00EE810A70479A99993F80
:104F5000CDCC4C3FCDCC4C3ECDCCCC3DC3F5C840A8
:104F600000000000008066400000000000807640E5
:104F700000000000008066C008B5C648D0ED000AF9
:104F80009FEDC51AF4EEC10AF1EE10FA0BD2D0ED86
:104F9000000AB7EE001A70EE810AC0ED000A012087
:104FA000BE49887002E00020BC498870B948D0ED45
:104FB000010A9FEDB91AF4EEC10AF1EE10FA0BD214
:104FC000D0ED010AB7EE001A70EE810AC0ED010AB9
:104FD00001208DF8000002E000208DF80000AD48AF
:104FE000D0ED020A9FEDAC1AF4EEC10AF1EE10FA10
:104FF0000BD2D0ED020AB7EE001A70EE810AC0EDB6
:10500000020A01208DF8010002E000208DF8010065
:105010009DF8000030B19DF8010018B101209F49B2
:10502000C87002E000209D49C87008BD30B500225C
:105030000024C5788B1F9D4200D030BD002306E0C0
:10504000C55C1544EAB2A518ECB25D1CEBB28D1E2E
:105050009D42F5DC431813F8023C934204D14318F7
:1050600013F8013CA34200D0E7E78378512B38D1F5
:1050700003795BB94379894D6B7183795BB2AB710D
:10508000C3795BB2EB71037A2B7183E00379012B57
:1050900012D14379814D2B72C3886B810389AB8117
:1050A000837A2B719FED7E0A7A4B83ED010A2B46A2
:1050B0001B785B1C2B706DE00379022B6AD143795E
:1050C000764DAB73C3882B8203896B824389AB8295
:1050D0008389EB82C3892B83038A6B83837C2B7147
:1050E00058E08378342B0DD1D0F807306B4DEB614D
:1050F0009FED6B0A674B83ED020A2B465B785B1CC6
:105100006B7047E08378012B0DD18388634D2B862C
:10511000C3886B860389AB864389EB8683892B879B
:10512000C3896B8736E08378042B33D1B0F9043020
:1051300000EE103AB8EEC00ADFED5A0A20EE200A5F
:10514000564B83ED080AB0F9063000EE103AB8EE7F
:10515000C00ADFED540A20EE200A504B83ED090A05
:10516000B0F9083000EE103AB8EEC00ADFED4D0A93
:1051700020EE200A494B83ED0A0AB0F90A3000EE0E
:10518000103AB8EEC00ADFED470A20EE200A434B82
:1051900083ED0B0A00BF50E710B504464248007883
:1051A00038B9AA2C05D101203F4908703F48047046
:1051B0006FE03D480078012809D1612C01D0FF2C17
:1051C00005D10220384908703848447061E03648FB
:1051D0000078022805D103203349087033488470D1
:1051E00057E03148007803280CD1FA2C0ADA042061
:1051F0002D4908702D48C4702D48047000202D4999
:10520000087046E028480078042819D1284800781A
:10521000002815DD26480078401E254908702548DD
:10522000007824490978491C224A1170001D1F4941
:105230000C541F48007840BB05201B49087028E02B
:105240001948007805280DD106201749087019481B
:10525000007818490978491C164A1170001D134935
:105260000C5416E01048007806280FD100200E4993
:10527000087010480078001D0C490C540D48007847
:10528000401DC1B20948FFF7D1FE02E000200649E7
:10529000087010BDF80C00200000FA43880C0020B4
:1052A0000000000017B7D138DD020020C40C002038
:1052B000DB020020DC0200200146D54800780028EF
:1052C0007ED00022D24B1A70D24A1288C832D14BFB
:1052D0001A80D14A127DD14B5A76CF4AD37DCF4A1C
:1052E0009376CD4A9369CD4AC2F81B30CA4AD36936
:1052F000CA4AC2F81F30C84A526A0A2392FBF3F323
:10530000C64AC2F82330C44A126B0A2392FBF3F256
:1053100013B2C24AA2F82730BF4A526B0A2392FB4B
:10532000F3F213B2BD4AA2F82930BB4A926B0A23AA
:1053300092FBF3F213B2B94AA2F82B30B64AB2F894
:105340004C2000EE102AB8EE400ADFEDB50A20EE40
:10535000200ABCEEC00A10EE100A08B9002204E0D0
:10536000C82801D9C82200E002461046AB4A82F89C
:105370002D00A94A526C00EE102AB8EE400ADFED6B
:10538000A80A20EE200ABCEEC00A10EE100A08B9E6
:10539000002204E0C82801D9C82200E002461046D5
:1053A0009E4A82F82E009C4AD26A00EE102AB8EE7D
:1053B000400ADFED9B0A20EE200ABCEEC00A00E0A6
:1053C00012E010EE100A08B9002204E0C82801D942
:1053D000C82200E002461046904A82F82F000123BE
:1053E000904A82F8213100BF704710B50E218E48D7
:1053F00000F0C2FE10BD10B50E218C4800F0BCFEBE
:1054000010BD10B5642000F0D3F94FF4165000F031
:1054100038FE322000F0CCF91C21854800F0ACFEAB
:10542000642000F0C5F94FF4964000F02AFE3220C7
:1054300000F0BEF91C217E4800F09EFE642000F0C2
:10544000B7F94FF4164000F01CFE322000F0B0F91E
:105450001C21774800F090FE642000F0A9F94FF479
:10546000E13000F00EFE142000F0A2F90B2171488B
:1054700000F082FE142000F09BF90B216E4800F032
:105480007BFE142000F094F90B216C4800F074FEB0
:10549000142000F08DF90B21694800F06DFE1420F6
:1054A00000F086F90B21674800F066FE142000F03A
:1054B0007FF90B21644800F05FFE142000F078F9BA
:1054C000FFF793FF10BD10B50146002000225F4B8F
:1054D0001B782BB9B52903D101235C4C237095E0CF
:1054E0005A4B1B78012B05D1622903D10223574C5B
:1054F00023708BE0554B1B78022B05D10323534CB3
:105500002370534B197081E0504B1B78032B05D14E
:1055100004234E4C23704F4B197077E04B4B1B7894
:10552000042B05D10523494C23704B4B19706DE0BA
:10553000464B1B78052B10D10623444C2370464B59
:105540001B7803EB0123454C238023461B88622BE9
:105550005CDB00233D4C237058E03C4B1B78062B52
:1055600054DB3A4B1B789B1F3C4C2488A41CA34261
:105570000ADA364B1B789B1F274CE154334B1B78C0
:105580005B1C324C237041E0314B1B780344D8B292
:105590001318DAB22F4B1B780344D8B21318DAB2BF
:1055A0002E4B1B780344D8B21318DAB22B4B1B884E
:1055B00000EB1323D8B21318DAB2002307E0164C1D
:1055C000E45C0444E0B21418E2B25C1CE3B2234C85
:1055D0002488A342F3DB104B204C24881B5D8342BC
:1055E00011D10D4C1D4B1B885B1CE35C93420AD10F
:1055F000174B1B78012B06D1164B1B78072B02D1BA
:105600000123034C23700023104C237010BD0000B5
:10561000DE020020E0020020040D0020780B0020B4
:105620000AD7233C1C040020E2020020F0020020E4
:105630001A0300204B0300205603002061030020C2
:105640006C030020770300208203002093030020D6
:105650008D0300208E0300208F0300209003002084
:10566000704700BFFEE700BFFEE700BFFEE77047E0
:10567000704710B5802003F0C4FE10B1802003F005
:1056800016FF10BD10B500F01BFC10BD704710B523
:105690000121114807F0ABFD28B101210E4807F0A8
:1056A00003FEFCF7A6FD10BD10B500F0ADFD10BD6A
:1056B00010B500F09EFE10BD10B500F0BBFF10BD90
:1056C00010B501F0A0F810BD10B501F0B0F910BD93
:1056D00010B500F071FC10BD001400407FB56846A5
:1056E00004F0C1FD4FF47A710198B0FBF1F4E408C5
:1056F0002146B1F1807F00D31DE021F07F40401EA4
:105700004FF0E022506150170F22002807DA1307EC
:105710001E0E314B00F00F052D1F5E5503E01307E1
:105720001D0E2E4B1D5400BF00204FF0E022906153
:105730000720106100BF6FF0040001F095FB7FBDF2
:105740002748D0E900305A1C40F100002449C1E943
:105750000020704722480068704710B500BF204AFB
:1057600011684FF0E02252694FF0E0239B69D21A92
:105770004FF47A735A434FF0E0235B69B2FBF3F2C4
:1057800001EB4103C3EBC11302EBC300144C18CC73
:105790004B402343E3D110BD30B50446FFF7DDFF96
:1057A000054600BFFFF7D9FF401BA042FAD330BD2A
:1057B00010B5044603E04FF47A70FFF7EDFF201EAA
:1057C000A4F10104F7D110BD10B54FF4806001F0D1
:1057D00099FAFFF783FF10BD18ED00E000E400E048
:1057E0009803002000B58FB0684602F096FD0121B5
:1057F000880504F050FE00BF564803F0ABF80028BF
:10580000FAD100905448019054480290002003902F
:1058100032200490002005904FF4806006904000F4
:1058200007908000089000010A9040120990002023
:105830000B9001200C9000200D900E906946454879
:1058400002F015FC0121434802F078FD0FB000BDC5
:1058500000B58DB001A801F009FC0121042004F07D
:105860001AFE0121080204F0FCFEFFF7BBFF032033
:105870008DF8300020200B9000208DF833000BA90C
:10588000374803F0B9FE0020099007904FF48030AC
:10589000089000200A9007A801F0F2FB0020019078
:1058A0008DF8080001208DF8090000200390059074
:1058B00001208DF8180001A927484C3801F00DFB94
:1058C000072301220F2124484C3801F09EFD0121BD
:1058D00021484C3801F077FF01211F484C3801F076
:1058E00080FC01211C484C3801F047FF1A484C3815
:1058F00001F057FE0DB000BD9FED1A0AF0EE400A10
:10590000002010E0154931F8101000EE101AB8EE22
:10591000401ADFED151AB0EE600A01EE210AF0EE32
:10592000400A411CC8B23228ECDB9FED101A80EE11
:10593000810A9FED0F1A20EE010AB2EE061A20EE40
:10594000010AF7EE001A80EE211A9FED0A0A21EEF5
:10595000000A7047106402404C200140680D00208E
:1059600000080240000000000AD7A33C0000804568
:1059700000404E456F12833A1CB5684603F0E7FEBF
:105980000121102004F087FD01208DF804008DF81E
:10599000070000208DF8060002208DF80500072082
:1059A00000906946384803F027FE01208DF8040076
:1059B0008DF8060002208DF80500802000906946D1
:1059C000314803F019FE02212F4804F04BF8012161
:1059D0002D4804F047F804212B4804F043F88021B7
:1059E000294804F03FF81CBD00F0010119B1022163
:1059F000254A118302E00221234A518300F002016B
:105A000019B10121204A118302E001211E4A51836C
:105A100000F0040119B104211B4A118302E00421A2
:105A2000194A518300F0080119B18021164A5183A7
:105A300002E08021144A1183704700B500201DE068
:105A4000124931F81010124A1256914204DA01211B
:105A5000814019438BB202E0012181408B430B4905
:105A600031F81010491C89B2084A22F81010142984
:105A700002DB002122F81010411CC8B20428DFDB31
:105A80001846FFF7B1FF00BD00100240A40300203C
:105A9000A003002030B58BB00025D44C01A803F042
:105AA00056FE08A805F063F903A805F09CFF012C39
:105AB00001D8012004E0CE48844200D900E020460D
:105AC00004460121082004F0A9FD0121022004F070
:105AD000C8FD0121084604F0C4FD0121152004F091
